:020000040800F2
:10000000A00A0020650100088B0100088D0100088E
:1000100000000000000000000000000000000000E0
:100020000000000000000000000000008F01000838
:10003000000000000000000091010008930100088A
:100040009501000895010008950100089501000838
:100050009501000895010008950100089501000828
:1000600095010008DD34000895010008950100089D
:10007000950100087732000895010008E931000871
:100080009132000895010008000000009501000869
:1000900095010008950100089501000895010008E8
:1000A00095010008950100089501000895010008D8
:1000B0009501000800000000950100080000000004
:1000C00000F002F800F03EF80CA030C80838241800
:1000D0002D18A246671EAB4654465D46AC4201D180
:1000E00000F030F87E460F3E0FCCB6460126334274
:1000F00000D0FB1AA246AB4633431847C456000053
:10010000E4560000103A02D378C878C1FAD85207F2
:1001100001D330C830C101D504680C6070470000BD
:100120000023002400250026103A01D378C1FBD813
:10013000520700D330C100D50B6070471FB51FBDFB
:1001400010B510BD05F032F91146FFF7F7FF03F0C7
:10015000B5F805F04AF903B4FFF7F2FF03BC05F068
:100160007FF900000F4880F308880F480168090EE6
:100170000E4A914205D10E480E4901600E480F49C2
:1001800001600F4880470F480047FEE7FEE7FEE7A3
:10019000FEE7FEE7FEE700000B480C490C4A0D4B5A
:1001A00070470000A00A0020040000001F000000AB
:1001B0001810024001000000000001400000000093
:1001C000D9010008C1000008A0040020A00A0020F6
:1001D000A0060020A006002010B54E4801680122AC
:1001E0001143016041684C4A1140416001684B4A2B
:1001F000114001600168012292049143016041684D
:100200003F22120491434160C16A09090901C16298
:10021000016BFF22543291430163416B490849004D
:1002200041630021816000F02EF810BD70B5394E99
:1002300071680C2001403A483A4C03D0042901D09F
:10024000082901D0206014E07268716803239202CB
:10025000DB03150F1940AD1C002907D0F16A09070F
:10026000090F491C04F0AEFC6843EBE72E484543F8
:10027000256070682B490006000F091D085C216885
:10028000C140216070BD1CB500232248009301933A
:100290000168012212041143016051000524240366
:1002A00002680A400192009A521C0092019A002AA8
:1002B00002D1009AA242F3D10168890328D5012115
:1002C00001911A4A11211160416841604168416001
:1002D00041687F22D2039143416041681122120498
:1002E0001143416001680122120611430160016857
:1002F0008901FCD541688908890041604168022272
:100300001143416041680907890F0229FAD11CBDD8
:1003100001931CBD001002400CB8FF08FFFFF6FE61
:1003200000127A000000002000093D000020024079
:10033000864910B5884208D144150121204600F0B5
:10034000BEFF0021204600F0BAFF10BD30B5C268E4
:100350007F4B8C681A400B680D792343CC686D0382
:100360002C4323430C69496923430B431343C36064
:1003700030BD0021016001718160C1600161416196
:1003800070470029816801D0012200E00222114358
:100390008160704701617047002A026901D00A43F9
:1003A00000E08A43026170470122D2030029C1683C
:1003B00001D0114300E09143C160704701229203D4
:1003C0000029C16801D0114300E09143C16070472A
:1003D0000122D2050029C16801D0114300E09143F8
:1003E000C16070470904114301627047C2681F234E
:1003F0009B069A430A43C260704701229205002976
:10040000C16801D0114300E09143C16070470122EF
:100410005049D2050028886801D0104300E090437D
:100420008860704701224B4992050028886801D0F6
:10043000104300E09043886070470122454912064E
:100440000028886801D0104300E09043886070471E
:10045000836A0B4383624261704701225203002981
:10046000C16801D0114300E09143C160704701228F
:1004700012040029C16801D0114300E09143C1601A
:100480007047012212030029C16801D0114300E026
:100490009143C1607047826800210123DB071A4342
:1004A00082600F231B038268491CD20FD207994236
:1004B00001D0002AF7D18168002901DB006C704768
:1004C0000020704781681022114381607047816865
:1004D0000422114381607047006C80B2704700298C
:1004E000C16802D00122114301E049084900C160FE
:1004F0007047C26802239A43C260C2680A43C2605E
:100500007047002A426801D00A4300E08A434260F3
:10051000704702460020CB0104D5926801231B06D8
:100520009A4300E012680A4200D00120704701603F
:10053000704702465368002012680B400A4202D0FE
:10054000002B00D00120704701607047002401405B
:1005500003D2FFFF00270140F0B501686A4A11404D
:1005600001600021016041608160C1606749674AA4
:1005700008390F2390422DD0644AF024143290425F
:100580002FD0624A1D022832904231D05F4E1A03AA
:100590003C36B04203D1486815E04860F0BD5B4F7F
:1005A0000F2650373604B8422DD0584F6437B84222
:1005B00002D14868320106E0544F7837B84204D17E
:1005C00048680F2212061043E7E75149504F083997
:1005D000B84202D148681843DFE74D4B14339842C4
:1005E00002D148682043D8E7494B2833984202D1CA
:1005F00048682843D1E7464B3C339842CBD0444A25
:1006000050329042CAD148683043C6E730B50368DB
:10061000404A0C6A13408A684D6922430C692C4396
:1006200022438C692243CC6922434C6A22438C6A60
:1006300022431A430260CA6842600A6882604968BD
:10064000C16030BD0021016041608160C160016115
:1006500041618161C161016241628162704700292B
:10066000016802D00122114301E0274A11400160D4
:10067000704710B58030826A0B0F9C000F23A34097
:100680009A438262826A090109090A43826210BDA3
:1006900041607047406880B27047002A026801D00C
:1006A0000A4300E08A430260704702460020D100FE
:1006B00002D51749083901E014490839096811427F
:1006C00000D001207047C10002D51149083901E06E
:1006D0000E4908394860704702460020D10002D513
:1006E0000B49083901E0094908390968114200D06D
:1006F00001207047C10002D50549083901E00349CE
:100700000839486070470000FEFF00000800024002
:10071000080402400F80FFFFFE4A116849084900A3
:10072000014311607047FB4910220028086801D07E
:10073000104300E0904308607047F64900200968C4
:10074000890600D501207047F2480169090603D5E2
:10075000F1494160F14941607047EE4801698022EA
:10076000114301617047EB490420CA68D20701D0E8
:1007700001207047CA68D20601D502207047C968B7
:100780004907FBD50320704700B50346FFF7EBFF91
:1007900002E0FFF7E8FF5B1E012803D0002B00D129
:1007A000052000BD002BF4D1FAE7F0B50B27064673
:1007B0003F043846FFF7E8FF04280FD1D54C2069E5
:1007C0000225284320616661206940210843206199
:1007D0003846FFF7D9FF2169A9432161F0BD70B503
:1007E0000B252D042846FFF7CFFF04280ED1C94C56
:1007F000206904263043206120694021084320619C
:100800002846FFF7C1FF2169B143216170BDF8B5EA
:10081000064600200B273F0400900D463846FFF7A0
:10082000B3FF042815D1BB4C206901210843206186
:1008300035803846FFF7A8FF042806D1B61C290CDE
:10084000009631803846FFF79FFF2169490849002B
:100850002161F8BDF0B50B2706463F040D4638462A
:10086000FFF792FF04280CD1AA4C2069012108430C
:10087000206135803846FFF787FF21694908490024
:100880002161F0BDA3480169890503D4A2498160B3
:10089000A249816070479F480169421591430161F7
:1008A00070479C480169012252031143016170475E
:1008B00098490020C9694907890F00D00120704775
:1008C000F0B5AA24FFF7F4FF002800D000240B277E
:1008D0003F043846FFF758FF042813D18D4D28698F
:1008E0002026304328612869402108432861384682
:1008F000FFF74AFF1021042805D0052802D02A69F5
:100900008A432A61F0BD2869B043286128690E46F0
:1009100030432861824804803846FFF735FF0528B8
:10092000F0D02969B1432961F0BDF0B5C04301049D
:100930000E0E0102C7B2040E0B200D0E0004FFF7CD
:1009400023FF042831D173490A6910231A430A612D
:10095000FF2F07D0724807810B200004FFF714FF18
:1009600004281BD1FF2E07D06D4846810B200004C0
:10097000FFF70AFF042811D1FF2D07D068488581B1
:100980000B200004FFF700FF042807D1FF2C07D03D
:100990006348C4810B200004FFF7F6FE052804D04D
:1009A0005C490B69102293430B61F0BDF0B50B2736
:1009B00006463F043846FFF7E7FE04281ED1554C93
:1009C00020692025284320612069402108432061B7
:1009D0003846FFF7D9FE04280BD12069A8432061CF
:1009E00020691025284320614D4806803846FFF7CE
:1009F000CBFE052802D02169A9432161F0BDF0B5E5
:100A000006460B2094460F460004FFF7BDFE04285F
:100A100014D1404C20691025284320613E43604694
:100A20000643F82006433E4846800B200004FFF7AB
:100A3000ABFE052802D02169A9432161F0BDF0B5C4
:100A40000B2706463F043846FFF79EFE042810D1C8
:100A5000304C2069102528432061EF2006433048A0
:100A600046803846FFF790FE052802D02169A94349
:100A70002161F0BDF0B50B2706463F043846FFF76D
:100A800083FE042810D1234C2069102528432061BF
:100A9000F7200643224846803846FFF775FE0528B2
:100AA00002D02169A9432161F0BDF0B50B270646AC
:100AB0003F043846FFF768FE042810D1154C206922
:100AC0001025284320617F2006431548468038467C
:100AD000FFF75AFE052802D02169A9432161F0BD24
:100AE000F0B50B2706463F043846FFF74DFE0428B5
:100AF00019D1084C2069102528432061DF200643C6
:100B0000074846803846FFF73FFE05280BD021698D
:100B1000A94307E00020024023016745AB89EFCDE0
:100B200000F8FF1F2161F0BDF0B50B2706463F041A
:100B30003846FFF729FE042810D1304C20691025D3
:100B400028432061BF2006432D4846803846FFF7E2
:100B50001BFE052802D02169A9432161F0BDF0B533
:100B60000B2706463F043846FFF70EFE04280ED139
:100B7000224C2069102528432061214846803846B0
:100B8000FFF702FE052802D02169A9432161F0BDCB
:100B9000F0B507460B200E460004FFF7F5FD0428CC
:100BA0000ED1164C20691025284320613E800B2071
:100BB0000004FFF7E9FD052802D02169A94321615E
:100BC000F0BD0E48C0690004000E70470B48006A73
:100BD00070470A4A0029116901D0014300E08143AE
:100BE00011617047054A0146D26800200A4200D0D0
:100BF000012070470149C860704700000020024092
:100C000000F8FF1F092110B5C906884202D1012151
:100C10004C0404E05049884209D1012104022046D5
:100C200000F044FB0021204600F040FB10BD4B4982
:100C3000884202D101210402F1E74949884202D1E8
:100C400001210C05EBE74749884202D1012144020A
:100C5000E5E745498842E9D101218C05DFE7F0B598
:100C60000022032501230C6893401C409C422AD19A
:100C70000C79012C01D0022C12D1876854002E4629
:100C8000A640B74387604E79A640846826438660B5
:100C900084889C43848084888B7993401C4384801F
:100CA000066853002C469C40A64306600E790768F0
:100CB0009E403E430660C668A643C660CC799C4011
:100CC000C3681C43C460521C102ACBD3F0BD274913
:100CD000016000210171012242718171C17170476F
:100CE000012208B512040A430092C261C161009951
:100CF000C161C169C069009008BD0246128A002026
:100D00000A4200D001207047008A70470246928A4A
:100D100000200A4200D001207047808A704781611C
:100D2000704701857047002A01D0816170470185B5
:100D30007047818270474B07DB0E9A40C90810B597
:100D400089000818016A0F249C40A1430162016ACE
:100D50001143016210BD0000000400480008004873
:100D6000000C00480010004800140048FFFF00007D
:100D70000D49086070470C49486070470A4988600F
:100D8000704709490948086070470749086170477A
:100D90000549074808607047034A0146D2680020A9
:100DA0000A4200D00120704700300040AAAA00008B
:100DB000CCCC000030B5827801240178002A15D00F
:100DC0008B08174A9B009A1813688907C90EFF25DC
:100DD0008D40AB434578AD072D0E8D401D4315600A
:100DE0000078C006C00E84400E4804E0C806C00E5D
:100DF00084400C488030046030BD0B4A00291169E2
:100E000001D0014300E0814311617047042207498A
:100E10000428086902D09043086170471043FBE73B
:100E200000E400E000E100E000ED00E000E000E0B0
:100E3000F84801680122114301604168F64A1140F7
:100E400041600168F54A1140016001680122920485
:100E50009143016041683F22120491434160C16A9D
:100E600009090901C162016BED4A11400163416B3F
:100E7000490849004163002181607047E54900222B
:100E80008A708870704703460020E24A59090CD0E6
:100E900001290CD002290CD0516BDA06D20E0123A5
:100EA00093400B4200D0012070471168F5E7116AAA
:100EB000F3E7516AF1E718B50020052424030090F8
:100EC0001120FFF7E0FF0099491C0091A14201D0D9
:100ED0000028F5D01120FFF7D6FF002800D0012010
:100EE00018BDCC4A1168F8239943C000084310602C
:100EF0007047C8490028086802D00122104301E069
:100F00004008400008607047C24A516BF82399437B
:100F1000C000084350637047BE490028486B02D0A8
:100F20000122104301E04008400048637047B9497E
:100F300004220028486B01D0904300E0104348632E
:100F40007047B4490A6A520852000A620A6A0423C6
:100F50009A430A620A6A02430A627047AD490A6A02
:100F600018239A430A620A6A02430A627047A9492F
:100F70000028486A02D00122104301E040084000E6
:100F80004862704710B5A34A53687B24E403A34327
:100F90005360536808430343536010BD01229D49C9
:100FA00012060028086801D0104300E09043086052
:100FB00070470122974912040028486B01D0104362
:100FC00000E0904348637047924AD16A09090901D9
:100FD0000143D162704701228E49D204002808687B
:100FE00001D0104300E0904308607047894B5A6875
:100FF0001202120A00060843104358607047854ADF
:1010000051688908890001435160704781484068F0
:101010000C21084070477F4A5168F02399430143EF
:10102000516070477B4A516807231B029943014373
:101030005160704777494A6801239B039A434A608D
:101040004A6883B21A434A600A6B8B159A430A6353
:101050000A6B000C02430A6370476E490A6B402317
:101060009A430A630A6B02430A63704769490A6B31
:1010700010239A430A630A6B02430A637047010F05
:10108000644A01290AD00229116B0BD003239B0467
:1010900099431163116B014311637047116B890808
:1010A0008900F6E703231B04F2E75A490A6B802301
:1010B0009A430A630A6B02430A637047F8B5554EB8
:1010C0000446706800210C22564D104005D00428BB
:1010D00003D0082803D00C281AD025601AE07168C4
:1010E000706803228902D2030F0F1040BF1C002832
:1010F0000AD0F06A0107090F2846491C03F062FD77
:1011000078430146216005E0474839464143F9E705
:10111000464820607068464F0006000F3B5C206820
:101120000246DA40626073685B055B0FFB5CDA4085
:10113000A260336BDB0501D43E4B05E073685B04B2
:1011400001D4530800E09308E360336B5F063A4B29
:1011500003D4394F1237276100E02361376BFF0654
:1011600001D4656100E06061376BBF070ED0376B5B
:10117000BF07BF0F012F0BD0376BBF07BF0F022F69
:1011800008D0376BFF43BF0706D006E0A26104E03A
:10119000A06102E0A36100E0A561376BBF03BF0F50
:1011A0000FD0376BBF03BF0F012F0CD0376BBF03BE
:1011B000BF0F022F09D0376BBF03BF0F032F06D01D
:1011C00006E0E26104E0E06102E0E36100E0E56185
:1011D000376B3F03BF0F0FD0326B1203920F012A00
:1011E0000CD0306B0003800F022809D0306B000355
:1011F000800F032806D006E0226204E0206202E0AD
:10120000236200E02562306B000617D40748606255
:10121000F8BD0000001002400CB8FF08FFFFF6FE0A
:10122000ACFEF0FF00127A0000093D00006CDC0209
:1012300014000020809FD500008000006162E7E775
:1012400035490A6A02430A62704701223249D203D1
:101250000028086A01D0104300E0904308627047FC
:1012600001222D4912040028086A01D0104300E031
:10127000904308627047284A0029516901D0014310
:1012800000E0814351617047234A0029916901D0F0
:10129000014300E08143916170471F4A0029D169F1
:1012A00001D0014300E08143D16170471A4A00290F
:1012B000916A01D0014300E0814391627047164A70
:1012C0000029D16801D0014300E08143D16070471B
:1012D000114A0029116901D0014300E081431161E5
:1012E00070470D4A0029517A01D0014300E0814343
:1012F000517270470848416A012212061143416247
:101300007047054A0146926800200A4200D0012039
:10131000704701498872704700100240F94910B5C2
:10132000884202D10121C4143AE001218907884290
:1013300006D101210846FFF7CBFF0021012008E07C
:10134000F149884208D101210220FFF7C1FF0021A5
:101350000220FFF7BDFF10BDEC49884206D10121F4
:101360001020FFF7B5FF00211020F2E7E84988427E
:1013700006D101212020FFF7ABFF00212020E8E764
:10138000E449884207D1841501212046FFF7A0FFD8
:1013900000212046DDE7E049884209D101210C0403
:1013A0002046FFF78CFF00212046FFF788FF10BD85
:1013B000DA49884202D101214C04F1E7D849884238
:1013C000F5D101218C04EBE710B50288CD4B984292
:1013D00006D00124A407A04202D0CB4CA04203D1E6
:1013E0007024A2434C882243C84CA04203D0CD4C69
:1013F00022400C89224302804A68C2620A88028520
:10140000984208D0C44A904205D0C44A904202D0C3
:10141000C34A904201D1897A01860121818210BD9F
:101420000021C94341600021018001814180817216
:101430007047018582827047028870239A430A436D
:101440000280704741627047C1627047406A7047CE
:10145000008D704702220029018801D0114300E06D
:1014600091430180704704220029018801D0114373
:1014700000E091430180704780220029018801D05B
:10148000114300E0914301807047028808239A438A
:10149000028002880A43028070470288A14B1A40EA
:1014A000028002880A43028070470029018802D026
:1014B0000122114301E0490849000180704710B53D
:1014C0000A884B88CC881A438B8823431A430B899C
:1014D0001A434B8989891A430A434030828010BDE0
:1014E0000021018041808180C18001814181818111
:1014F000704740300029818803D00122D203114374
:1015000001E04904490C8180704770B5028C520893
:1015100052000284048C8288038B7025AB439B08A5
:101520000D889B001D4302239C438E894B882643D4
:10153000744C3343A04208D0774CA04205D0774C7E
:10154000A04202D0764CA0420DD10824A343CC89FE
:101550001C4304239C438B882343724C22400C8AF7
:1015600014434A8A22438280058389684163038445
:1015700070BD70B5028C10239A430284048C82885B
:10158000038B694D2B400D782D062D0C1D43202318
:101590009C438B891B051E0C4B8826431B051B0C8B
:1015A000584C3343A04202D05B4EB04219D15F4E3B
:1015B00032400E8AB604360C3243A04211D1802448
:1015C000A343CC892405240C1C4340239C438B88D3
:1015D0001B051B0C2343564C22404C8AA404240CAC
:1015E00022438280058389688163038470BD30B59E
:1015F000028C504B1A400284038C8288848B7025A5
:10160000AC43A4080D88A40025434B4C23400C7B1D
:101610002406240C1C438B781B061B0C2343394CDB
:10162000A04215D1424C23408C7B2406240C1C4341
:101630003E4B1C400B791B061B0C23433F4C2240A6
:101640000C8A2405240C14434A8A1205120C2243E6
:10165000828085838968C163038430BD30B5028C84
:10166000374B1A400284058C8288838B2E4C234092
:101670000C782406240C1C43324B1D400B7B1B07AB
:101680001B0C2B438D782D072D0C1D431D4B9842B1
:1016900005D12D4B13400A8A9205120C1A43828001
:1016A000848389680164058430BD00210180418004
:1016B000818081608181C18101824182704730B522
:1016C000034618330124058C8C40A543058400296A
:1016D00010D008290ED0091F0804400CC01801685A
:1016E00007231B039943016001681206120C114382
:1016F000016030BD4808C01801687023994301603B
:101700000168F4E7002C0140000400400010004094
:10171000001400400020004000400140004401400F
:1017200000480140FFFC0000FF8C0000FFFB0000B0
:10173000FFF70000FFFE0000FFFD0000FFCF0000EC
:10174000FFEF0000FFDF0000FFBF000041637047B4
:1017500081637047C163704701647047028B7023D7
:101760009A430A4302837047028BF64B09021A40E0
:10177000114301837047828B70239A430A4382830B
:101780007047828BEF4B09021A40114381837047E7
:101790000029818802D00122114301E04908490053
:1017A00081807047028B08239A430A430283704763
:1017B000028BE54B09021A40114301837047828B6B
:1017C00008239A430A4382837047828BDE4B0902C7
:1017D0001A40114381837047028B04239A430A43C2
:1017E00002837047028BD94B09021A4011430183CF
:1017F0007047828B04239A430A4382837047828B0B
:10180000D24B09021A40114381837047028B802317
:101810009A430A4302837047028B5204520C090216
:10182000114301837047828B80239A430A4382834A
:101830007047828B5204520C090211438183704716
:10184000028C02239A430A4302847047028C0823C5
:101850009A430A4302847047028C20239A43090169
:10186000114301847047028C80239A43090111437C
:1018700001847047028CB64B09021A40114301845F
:101880007047028CB04B09021A4011430184704723
:10189000028CB04B09031A4011430184704702893E
:1018A00008239A43028102890A430281704710B5D6
:1018B0000123048C8B409C430484038C8A40134393
:1018C000038410BD10B50423048C8B409C43048416
:1018D000038C8A401343038410BD042200298188AD
:1018E00001D0114300E0914381807047828B9A4B75
:1018F0001A408283828B09020A4382837047828B5B
:101900000C239A438283828B0A4382837047028B23
:10191000914B1A400283028B09020A4302837047EB
:10192000F0B5048C1026B4430484058B048C8B4FD3
:101930001B0309013D402B4312021A43A0239C4381
:101940000C43344302830484F0BD028B0C239A437E
:101950000283028B0A430283704770B5048C6408CB
:1019600064000484058B048C1B011343F3260A22B4
:10197000B54394432B430C4301210C43038304845C
:1019800070BDF8B5054608884E888A880B890C46D4
:1019900000281DD0042824D00828288C2AD070497B
:1019A00008402884A88B2F8C31036C4E12023040E3
:1019B0000243180310436B4AA88317400F430121C9
:1019C00009030F432F84E1882846FFF78FFFF8BDF6
:1019D00031462846FFF7C1FFE1882846FFF7B5FFEB
:1019E000F8BD31462846FFF79BFFE1882846FFF700
:1019F0008EFFF8BD5C4908402884A98B288C3702EB
:101A0000F3261B01B14313430B435849AB830840F2
:101A1000FF213843013108432884E1882846FFF735
:101A20006EFFF8BD00210180418001228280C180CB
:101A300001817047F8B50C46498800260125074604
:101A4000002900D10226A288012A00D1022520887F
:101A500023890028384610D0FFF762FFE188384616
:101A6000FFF755FF23892A4631463846FFF775FFB1
:101A7000E1883846FFF769FFF8BDFFF76EFFE188A0
:101A80003846FFF762FF23892A4631463846FFF77A
:101A900047FFE1883846FFF73AFFF8BD406B7047D3
:101AA000806B7047C06B7047006C7047002A82895A
:101AB00001D00A4300E08A438281704781827047E7
:101AC0000246128A00200A4200D001207047C94312
:101AD000018270470246138A002092890B400A4017
:101AE000002B02D0002A00D001207047C943018298
:101AF00070471143403001817047002A828901D02C
:101B00000A4300E08A4382817047082200298188C5
:101B100001D0114300E09143818070470189C908D9
:101B2000C90001817047028970239A430A430281E8
:101B3000704710B50446FFF7F6FF208907210843D8
:101B4000208110BDFF8F0000FFF70000FFFB0000A9
:101B5000FFFD0000FFDF0000FFF30000FF0C0000AE
:101B6000FFEF0000FF5F0000FFFE0000FFF5000038
:101B700070B516460D46044660290CD00122314648
:101B8000FFF7EBFE29462046FFF7CDFF208907210E
:101B90000843208170BD01223146FFF7C1FEF1E705
:101BA00010B504891B021343E4B20B4323430381A2
:101BB00010BD10B50446FFF7F3FF2089C108C90026
:101BC00007200143702081430143218110BD10B5DE
:101BD0000446FFF7E5FF208901218903084320819E
:101BE00010BD828870239A43828082880A43828053
:101BF00070470289D208D200028102890A43028119
:101C00007047028980239A43028102890A43028134
:101C1000704770B50589048B068CED08ED000D4307
:101C20000C4905810C40FF2102310C43AA218E434F
:101C30001901114331430483018470BD80220029BE
:101C4000818801D0114300E091438180704740308A
:101C500001827047FCFC0000F948062101705B21FD
:101C600041704F2181706621C1706D2101717D210C
:101C70004171072181717F21C171704730B5002208
:101C8000EF49012805D0782302280ED0032813D06D
:101C900018E0EC485C2305783920382408704B7034
:101CA000332D8C700DD13E2004E00B703020487035
:101CB00054238B70C87005E00B706D204870502065
:101CC0008870CA700A714A718A71CA7130BDDC4865
:101CD0000021017041708170C17001714171817189
:101CE000C171704710B5002404E00A2102F06AFFB8
:101CF000641CE4B20028F8D1204610BDF7B50C46AC
:101D00000298FFF7EFFF05462046FFF7EBFF0A2199
:101D1000029802F061FF4900CB4EC94C715C00276C
:101D20002170022D06D30A2102F056FF4800305CD4
:101D3000607000E06770032D0AD36421029802F0FE
:101D40004BFF0A2102F048FF4800305CA07000E021
:101D5000A770042D0BD37D21C900029802F03CFF2F
:101D60000A2102F039FF4800305CE070FEBDE770E8
:101D7000FEBDF7B507461046FFF7B4FF0198FFF721
:101D8000B1FF0026AE4C0546002F2FD00A21019846
:101D900002F022FF4900AC4F022D795C217006D37E
:101DA0000A2102F019FF4800385C607000E066709C
:101DB000032D0AD36421019802F00EFF0A2102F0DC
:101DC0000BFF4800385CA07000E0A670042D0BD318
:101DD0007D21C900019802F0FFFE0A2102F0FCFEFD
:101DE0004800385CE070FEBDE670FEBD26707620CF
:101DF00060707820A0705E20F4E7F7B507461046C3
:101E0000FFF770FF0198FFF76DFF00268C4C054629
:101E1000002F2FD00A21019802F0DEFE49008A4FE0
:101E2000022D795C217006D30A2102F0D5FE48000C
:101E3000385C607000E06670032D0AD3642101985D
:101E400002F0CAFE0A2102F0C7FE4800385CA0700A
:101E500000E0A670042D0BD37D21C900019802F08B
:101E6000BBFE0A2102F0B8FE4800385CE070FEBDFF
:101E7000E670FEBD2670302060707620A0705E2077
:101E8000F4E7F7B507461046FFF72CFF0198FFF778
:101E900029FF00266A4C0546002F2FD00A21019801
:101EA00002F09AFE4900684F022D795C217006D33A
:101EB0000A2102F091FE4800385C607000E0667014
:101EC000032D0AD36421019802F086FE0A2102F054
:101ED00083FE4800385CA07000E0A670042D0BD390
:101EE0007D21C900019802F077FE0A2102F074FEFC
:101EF0004800385CE070FEBDE670FEBD26705C20D8
:101F000060703820A0705E20F4E700224C49542312
:101F1000002801D0392000E05C2008704B708A70E6
:101F2000CA707047F1B50098FFF7DCFE05460A213C
:101F3000009802F051FE4900434F414C795C002665
:101F40002170022D06D30A2102F046FE4800385CBB
:101F5000607000E06670032D0AD36421009802F0DF
:101F60003BFE0A2102F038FE4800385CA07000E019
:101F7000A670042D0BD37D21C900009802F02CFE21
:101F80000A2102F029FE4800385CE07000E0E670AB
:101F90002671762060717820A0715E20E071F8BD16
:101FA0002749002806D07720087079224A705022ED
:101FB0008A7006E0002008705E20487078208870E3
:101FC0006D20C870704770471D49002806D0012851
:101FD00006D0022806D0032806D007E03F2004E000
:101FE000062002E05B2000E04F200870732048705C
:101FF00000208870C87070477047144A00205378DA
:102000000F49002B07D071230B704B705C238B7032
:102010007823CB7004E0087048708870C870012085
:1020200050707047094A002093780549002B0FD063
:102030005E230B7071234B708B705C23CB700CE0B4
:1020400008010020380000206E57000824000020FE
:10205000087048708870C870012090707047F3B5A0
:1020600081B00D460198FFF73DFE2946F94F002546
:10207000F94E044600293CD0F848C078002830D0FA
:102080000A21019802F0A8FD4900795C3170022C08
:1020900006D30A2102F0A0FD4800385C707000E011
:1020A0007570032C0AD36421019802F095FD0A2172
:1020B00002F092FD4800385CB07000E0B570042C6E
:1020C0000BD37D21C900019802F086FD0A2102F0A0
:1020D00083FD4800385CF07000E0F570DF48C570A3
:1020E000FEBD35707570B570DC48F5700121C170AA
:1020F000FEBD0A21019802F06FFD4900795C317044
:10210000022C12D30A2102F067FD4800385C70707F
:10211000032C0BD36421019802F05EFD0A2102F02A
:102120005BFD4800385CB07001E07570B570042C40
:102130000BD37D21C900019802F04EFD0A2102F067
:102140004BFD4800385CF070FEBDF570FEBDC34A23
:1021500000201379C049002B08D05E230B70402368
:102160004B7054238B705C23CB7004E00870487074
:102170008870C870012010717047F3B581B00D46AA
:102180000198FFF7AFFD2946B24F0025B24E044635
:1021900000293CD0B1484079002830D00A2101986C
:1021A00002F01AFD4900795C3170022C06D30A2135
:1021B00002F012FD4800385C707000E07570032C6E
:1021C0000AD36421019802F007FD0A2102F004FD00
:1021D0004800385CB07000E0B570042C0BD37D2152
:1021E000C900019802F0F8FC0A2102F0F5FC480051
:1021F000385CF07000E0F5709848457134E0357057
:102200007570B5709548F570012141712CE00A2177
:10221000019802F0E1FC4900795C3170022C12D384
:102220000A2102F0D9FC4800385C7070032C0BD3F3
:102230006421019802F0D0FC0A2102F0CDFC480094
:10224000385CB07001E07570B570042C0BD37D2143
:10225000C900019802F0C0FC0A2102F0BDFC480050
:10226000385CF07000E0F5705E20307140207071D5
:102270005420B0715C20F071FEBD784A0020937943
:102280007549002B08D078230B705C234B707623A4
:102290008B706D23CB7004E0087048708870C87034
:1022A000012090717047F3B581B00D460198FFF79A
:1022B00019FD2946674F0025674E044600293CD08A
:1022C0006648C079002830D00A21019802F084FCC9
:1022D0004900795C3170022C06D30A2102F07CFCA3
:1022E0004800385C707000E07570032C0AD36421DC
:1022F000019802F071FC0A2102F06EFC4800385C83
:10230000B07000E0B570042C0BD37D21C90001989A
:1023100002F062FC0A2102F05FFC4800385CF070B9
:1023200000E0F5704D48C57134E035707570B570DA
:102330004A48F5700121C1712CE00A21019802F090
:102340004BFC4900795C3170022C12D30A2102F057
:1023500043FC4800385C7070032C0BD36421019857
:1023600002F03AFC0A2102F037FC4800385CB070F9
:1023700001E07570B570042C0BD37D21C900019864
:1023800002F02AFC0A2102F027FC4800385CF070B9
:1023900000E0F570782030715C2070717620B071AB
:1023A0006D20F071FEBD70477047F3B581B00746F0
:1023B0000298FFF797FC0546782079216D220026C8
:1023C000254C012F07D0022F15D0062323706070F3
:1023D000A170E270FEBD214B1D7A2670002D04D045
:1023E0006070A170E2701E72FEBD6670A670E6702D
:1023F00001201872FEBD0A21029802F0E3FB490099
:10240000144F022D795C217006D30A2102F0DAFB09
:102410004800385C607000E06670032D0AD36421C8
:10242000029802F0CFFB0A2102F0CCFB4800385C96
:10243000A07000E0A670042D12D37D21C90002987F
:1024400002F0C0FB0A2102F0BDFB4800385CE070DE
:10245000FEBD00006E570008080100202400002087
:10246000E670F5E7F7B507460298FFF73BFC002654
:10247000BC4C0546012F05D0022F1CD0267066707B
:10248000A67046E026706670A670B748E670417A7E
:10249000002909D05B212171782161717921A17115
:1024A0006D21E1714672D3E726716671A671E671FE
:1024B00001214172CCE70A21029802F083FB490016
:1024C000AA4F022D795C217006D30A2102F07AFB13
:1024D0004800385C607000E06670032D0AD3642108
:1024E000029802F06FFB0A2102F06CFB4800385C96
:1024F000A07000E0A670042D0BD37D21C9000298C6
:1025000002F060FB0A2102F05DFB4800385CE070DD
:1025100000E0E6705B202071782060717920A07166
:102520006D20E07194E710B50C4609200821C00623
:10253000FEF7E3FB8B49002802D0012804D007E016
:10254000012C05D1302006E0002C03D0012C04D052
:10255000002000E00620087210BD3620FBE781480D
:10256000002101705E214170542181707921C17078
:1025700070477C48782101706D2141703E21817047
:102580005E21C1700021017141718171C17170477B
:102590007448782101703021417054228270C170DA
:1025A0000021017141718171C1717047704770479D
:1025B0006C4900220A7139234B716D238B715E23A4
:1025C000CB715C23002802D00A70542001E07120F6
:1025D000087048708B70CA70704762487121017032
:1025E00041708170C1707047704770B50446604D8E
:1025F000C00701D0002200E0012220212846FEF77A
:1026000092FBA00701D5002200E00122012128460B
:10261000FEF789FB600701D5002200E001221021AE
:102620002846FEF780FB534E200701D5002200E02C
:10263000012280213046FEF776FBE00601D500221C
:1026400000E0012280212846FEF76DFBA00601D59F
:10265000002200E0012240213046FEF764FB6006C4
:1026600001D5002200E0012201213046FEF75BFB8C
:1026700070BD70B5044640493E4BC00701D00122F1
:1026800000E000221846FEF74EFB3C49384DA007FB
:1026900001D5012200E000222846FEF744FB600736
:1026A00001D5012200E0002240212846FEF73BFB35
:1026B000200701D5012200E0002208212846FEF76C
:1026C00032FBE00601D5012200E000220421284669
:1026D000FEF729FB2A4DA00601D5012200E00022C9
:1026E00008212846FEF71FFB600601D5012200E005
:1026F000002208212846FEF716FB200601D50122FC
:1027000000E0002208212846FEF70DFBE00501D578
:10271000012200E0002208212846FEF704FB70BDDC
:1027200070B5114D0F4928782C46095C0C34217086
:102730000E4940001239085A60600020FFF755FF2B
:102740006068FFF796FF2078FFF74FFF6068FFF79C
:1027500090FF2878411C2970082801D30020287098
:1027600070BD000008010020240000206E57000802
:102770000004004800000048008000000001000044
:10278000001400481CB501214804FEF774FD012126
:102790008804FEF770FD0121C804FEF76CFD0121DD
:1027A0008805FEF768FD00206946087148719F485A
:1027B0008188009100686946FEF751FA9B484030D5
:1027C0008188009100686946FEF749FA97486030B1
:1027D0008188009100686946FEF741FA93482030ED
:1027E0008188009100686946FEF739FA1CBDF0B493
:1027F00009228E49D206012040020A6088800D23FA
:102800008B71002048810861C87116240C771F2540
:102810000D7232278F6114264E6120310127FF028D
:102820000A608F808B7148810861C8710C770D72C6
:1028300064278F614E6120310127BF020A608F80BB
:102840008B7148810861C8710C770D7264278F61A4
:102850004E6120310A60012212038A808B71488107
:102860000861C8710C770D728F614E61F0BC89E709
:1028700030B581790022212320240D2909D00B298C
:1028800014D00C2911D184690169A1420DD30372BE
:1028900007E085690169A94208D30372C17900295B
:1028A00003D102614189491C418130BD0472F8E7BE
:1028B00010B5044681880068FEF71FFA217F1629AB
:1028C00005D0152902D1012800D0002010BD002814
:1028D000FBD1012010BD70B554482030FFF7E8FF50
:1028E000524E012420360025012805D03046FFF73E
:1028F000DFFF002805D005E03069401C3061F4712D
:1029000000E0F5713069002805D048482030FFF715
:10291000CFFF002809D0B1693069884209D94348FE
:102920002030FFF7C5FF012803D140482030FFF7D2
:102930009FFF3E48FFF7BCFF3C4E012805D03046C4
:10294000FFF7B6FF002805D005E03069401C306174
:10295000F47100E0F5713069002804D03348FFF7C6
:10296000A7FF002808D0B1693069884207D92F48ED
:10297000FFF79EFF012802D12C48FFF779FF2B4873
:102980004030FFF795FF294E4036012805D03046EC
:10299000FFF78EFF002805D005E03069401C30614C
:1029A000F47100E0F5713069002805D01F4840300F
:1029B000FFF77EFF002809D0B1693069884209D944
:1029C0001A484030FFF774FF012803D11748403000
:1029D000FFF74EFF15486030FFF76AFF134E603671
:1029E000012805D03046FFF763FF002805D005E039
:1029F0003069401C3061F47100E0F57130690028E5
:102A000005D00A486030FFF753FF002809D0B169AC
:102A10003069884209D905486030FFF749FF01282D
:102A200003D102486030FFF723FF70BD140100207E
:102A300010B500280AD001280DD0022812D0032892
:102A40000FD11F220B211920000208E01F220B21A9
:102A5000FF20193003E019201F220B21400101F053
:102A6000BBFE10BD1F220B2119208001F7E7F8B52E
:102A7000F84E002470783546C1060C3527460029EB
:102A800004DAEF2108407070FFF7CCFAA5E02020AF
:102A90002870F148C079002803D1F048C079002897
:102AA00007D07078EF21084070700220285E002166
:102AB00008E07078C10607D5EF2108407070022049
:102AC000285E0121FFF7CBFAE3490A20085EF2797C
:102AD000904202D00A7A202A03D0C879012807D070
:102AE00009E0F0714F816888401C6880012404E08F
:102AF000087A21280ED020200872D8480A21415E89
:102B0000F279914202D0017A202921D0C17901299C
:102B100024D026E04F810869FF21913188420AD2F2
:102B20000A2110E0B0680128E7D16888401C68805D
:102B30000124B760E1E70146FF39FF229239903264
:102B40009142EFD2052102F03DF80029EAD0D4E706
:102B500047816888401E6880012404E0017A2129A9
:102B600008D0202101720220285EBD4988421FDB67
:102B7000698020E047810069FF21913188420AD2B3
:102B80000A2110E0B0680128EDD16888401E6880F5
:102B90000124B760E7E70146FF39FF2292399032FE
:102BA0009142EFD2052102F00DF80029EAD0DAE7D0
:102BB000002800DC6F807078C1060ED5012C0CD186
:102BC000EF210840707000242978A64800F0F0F941
:102BD0000221695EA44800F0EBF9A448017A20299B
:102BE00003D14089042800D151E7F8BD10B59949B7
:102BF0004878C20604D5EF2210404870FFF7FDF96F
:102C000094491F200C31087010BDF8B5924F002573
:102C1000964E904C2BE0FFF7E9FF0A20385EA17931
:102C200088420BD0397A202908D1A0717D81E078C3
:102C3000401C40B2E070012800DDE57087490A20A1
:102C4000085EA27990420BD0087A202808D14D81E5
:102C5000E078401E40B2E070002801DA0120E07008
:102C60000A20305E042802DB052070812AE0E0782B
:102C70000028D0D026E0FFF7FAFE0A20385EA179BE
:102C800088420AD0387A202807D17D81E078401C1C
:102C900040B2E070012800DDE570704A0A20105E45
:102CA00088420BD0107A202808D15581E078401E48
:102CB00040B2E070002801DA0120E0700A20305EA6
:102CC000052802DAE0780128D5D0F8BDF8B5614DC5
:102CD00000242857FFF778F95F490A20085E6A79CF
:102CE000FF2791370026904202D00A7A202A03D08B
:102CF000C879012803D005E068714E811BE0087A8D
:102D000021280ED02020087254480A21415E6A7999
:102D1000914202D0017A20291FD0C17901291ED009
:102D200020E04E810869B8420AD20A2110E0A86862
:102D30000128E9D1AE602878401C28700124E3E71F
:102D40000146FF39FF22923990329142EFD205219C
:102D500001F038FF0029EAD0D6E7468115E0017A74
:102D6000212908D0202101720020285600281EDACF
:102D7000032028701EE046810069B8420AD20A2169
:102D800010E0A8680128EFD1AE602878401E2870B6
:102D90000124E9E70146FF39FF229239903291423E
:102DA000EFD2052101F00EFF0029EAD0DCE703286D
:102DB00000DD2E706878C10604D5002C02D0EF210A
:102DC00008406870F8BDF8B52448284FC07901283C
:102DD00002D1F87901287DD02548C079012879D021
:102DE0001D480126C0791B4D012873D07AE00024CC
:102DF00019487C814481FFF769FF78890128FAD05E
:102E000000202856FFF714FE1DE0A878FFF7C8F849
:102E100011490A20085E2A79904202D0087A2028B7
:102E200008D00E480A21415E91420CD0017A202937
:102E300009D121E04C8120E0AE7000E0AC70A978AF
:102E40000C4800F0B5F878890228DED080B203285B
:102E500017D025E04000002054010020740100201C
:102E60000F27000000590008005D00083401002011
:102E700014010020006D00084481A8780028DDD1ED
:102E8000DAE7387A20282DD1204800781F2802D090
:102E9000202802D002E0EC7000E0EE70FFF7B5FEF3
:102EA000387A20281ED178890328F7D017E0FFF759
:102EB00056FB387A202815D10A20385E06280EDB0A
:102EC0007C81FC71114C1248217800F071F80221CC
:102ED000615E00E011E00F4800F06AF802E07889D6
:102EE0000528E4D0F879012804D1B9693869884205
:102EF00000D37CE7387A2128FBD0F8BD70477047B3
:102F00007047704770477047704700004C000020C2
:102F100000590008005D000810B50446FDF714FCD8
:102F20003520FDF767FE2046FDF73FFC3520FDF715
:102F300061FEFDF712FC10BD70B50C460546FDF7AD
:102F400003FC3520FDF756FE21462846FDF75FFCC1
:102F50003520FDF74FFEFDF700FC70BD10B5284889
:102F6000FFF7DAFF2748FFF7D7FF2748FFF7D4FF1F
:102F70002648FFF7D1FF264C2046FFF7CDFF254816
:102F8000FFF7CAFF2448FFF7C7FF2448FFF7C4FF35
:102F90002348FFF7C1FF2046FFF7BEFF2046FFF79B
:102FA000BBFF2046FFF7B8FF2046FFF7B5FF10BD77
:102FB000F3B504460646006881B01A4D0127BF02EA
:102FC000286008E0241DA01BB84202D93046FFF754
:102FD000A3FF20682860401CF4D120460299FFF727
:102FE000ABFFFEBD026801460E4B1A60521C03D0B7
:102FF0000146001D0268F8E7086818607047000085
:1030000000590008005D0008006100080065000824
:10301000006D0008006900080071000800750008D4
:10302000007900085400002010B55E48017800299E
:1030300007D0002101705C48006802F0A5F85B49E8
:10304000886010BDF8B55A4D0024E879264601285D
:1030500040D15848554FC07901283CD036E0012076
:1030600038705048082106700920C006FDF745FE5B
:10307000024609200821C006FDF755FE214617200B
:10308000FFF793F9FFF7D0FF4748006802F0A2F876
:10309000044603E021460220FFF787F968890128EA
:1030A000F8D00A20285E02280DDBA8816E811F203F
:1030B000414928724E81087240494E8108723D494B
:1030C00008727E703E70E879012803D1A9692869E9
:1030D0008842C4D26E81F8BDF8B53348006802F06A
:1030E00053F83749002509780127364E2F4C00291F
:1030F00026D035492F4A0978344B002902D00129BE
:1031000005D00BE001B232480180558103E001B2E5
:103110003048018057811846FFF74AFF09200821EF
:10312000C006FDF7EAFD024609200821C006FDF7AA
:10313000FAFDE168A068284A884216DC106015E0B4
:10314000E168A0684018C10F08184010606014289A
:1031500002DC1420606003E02049884200DB6160EB
:10316000A08801B231801E48D6E71160A088308067
:103170000F4867704581C5711F2101721948116898
:10318000FFF716FFF8BD10B506480178002907D0F3
:10319000002101700448006801F0F6FF0349C8608F
:1031A00010BD000078000020BC0000205800002066
:1031B000140100203401002054010020740100207B
:1031C000420000209200002076000020006D0008E0
:1031D0008A0000208C000020D0000020FF0F00009B
:1031E000006500080079000870B501218D072846A8
:1031F000FEF770FC00283DD0324C2068401C206057
:1032000031494868401C48602068C00711D12F48E8
:103210000078002803D02E480188491C01802D48E1
:103220000078002803D02C490888401C0880FFF74C
:1032300077FA0A21206801F0C5FC0126002903D194
:10324000FFF749FB254806602068FF21F5318842D9
:103250000CD300F0C0F822481022017871400170B0
:103260002048017811430170002020600121284688
:10327000FEF73CFC70BD10B51B4C01212046FEF74B
:1032800029FC002803D001212046FEF72FFC10BDA9
:1032900010B5164C10212046FEF71CFC00280CD05F
:1032A00002211348FDF729FD002802D11149012010
:1032B000087010212046FEF719FC10BD01F040F8FF
:1032C000FCE70000680000204C0000207200002095
:1032D0008E00002073000020900000204800002095
:1032E0006D00002041000020002C0140000400403F
:1032F000000400486C00002030B5002305E09D006C
:103300004D59046864195B1C04609342F7DB30BDBF
:1033100070B50B460446002103E08D005D59281866
:10332000491C9142F9DB01F04DFC206070BD70B585
:10333000FB4CE0782546883500283AD1286801F012
:1033400085FF216D02F06AF904D2206D01F01CFFA7
:10335000286022E0686801F079FF216D02F05EF9D3
:1033600004D2206D01F010FF686016E0A86801F03B
:103370006DFF216D02F052F904D2206D01F004FFBF
:10338000A8600AE0E86801F061FF216D02F046F9EB
:1033900003D2206D01F0F8FEE86003CD401806CDA1
:1033A00089184018C117890F08188010E06500209F
:1033B000206670BD30B504460023184607E0820041
:1033C000A2589A4201D913460546401C00B28842D1
:1033D000F5DB284630BD10B5D14C606D01F0D4FE50
:1033E000606410BDCE48417A012906D02221415E99
:1033F000502902DB0021817141847047F8B5C84C27
:10340000607A012869D02079E178884201D10121D0
:1034100000E00021C34D61712B7809200027C00610
:103420001F2B0ED02E460225755F7268BC4E366C7F
:103430007543202B13D0BB4E212B1DD0222B2AD01D
:1034400049E0002905D001220821FDF76CFC6F60DE
:103450003FE000220821FDF766FC6F603BE0002999
:1034600006D001220821FDF75EFCAE48476032E03D
:10347000AA4230D9002204E0002906D0AA422AD963
:1034800001220821FDF74FFC23E000220821FDF76F
:103490004AFC77601FE0237D0E461E4302D00029C0
:1034A00009D106E09F4900224F600821FDF73BFC4F
:1034B00011E0012B0FD1AA4206D201220821FDF70B
:1034C00032FC0120207506E000220821FDF72BFCCC
:1034D0002775012060756079A070F8BDFEB50220E7
:1034E000FDF7FAF8002850D08F480021415E8F4840
:1034F0008B4D411A0B202856C2018D4812183220DC
:10350000285E8300D150401C68862878002828D087
:1035100020200921C906886186481021018128469A
:10352000803007687F1C07603420285E01F0C7FDEB
:10353000022201F0CFFD04460E46384601F0C7FDD9
:103540002246334601F0C6FF0BD8294600208031C1
:103550000860287010210920C0068161754920206B
:1035600008813220285E20280CDB00206886A86EA7
:103570000126401CA866697B012907D06E49884254
:1035800000D36E730220FDF7B5F8FEBDE87A401C4B
:1035900041B2E9720429F5DB654C0020C9010F191D
:1035A000820011198025A3586D58401C5B19FF2516
:1035B00001356D58FF31813109686918591889083A
:1035C000B9502028ECDB5D48002505602021C56747
:1035D000FFF7F0FEC2B2930020461B185049FF339C
:1035E000FF338A7302331F68CF67504B3946323935
:1035F000913B99427ED84A4CD11E1B2928D2511E9C
:10360000C9B2E1738C46911EC9B221748E46531C17
:10361000DBB2911C6374C9B2A17400916146890048
:103620000918FF31FF3102310968E16671468900EE
:103630000918FF31FF310231096821679900091823
:10364000FF31FF310231096861670099890013E099
:10365000022A18D8E573511C2574C9B26174931CF1
:103660008900DBB20918A374FF31E566FF3102312E
:1036700025670968616799000818FF30FF3002303C
:103680000068A06719E01E2A17D3511EC9B2E17362
:10369000931E8900DBB209182374FF316574FF3172
:1036A000A57402310968E16699000818FF30FF30FF
:1036B000023000686567A5672067207C236F009350
:1036C0005843E37BE16E01914B43C118606F637C0B
:1036D0007A4386464343D0180B18A06FA27C8446D9
:1036E00042439818009B019900025918C919714466
:1036F000614400E0DFE001F065FA0949803148608B
:1037000001F0ACFD2065E57201462586284601F0F2
:10371000B1FF0B496065884214DB0846606516E01E
:103720006C0000204C00002004010020FF0F00006E
:103730009401002020000048A861000094030020AC
:10374000003C1C460121C905884200DA6565362027
:103750003946205E01F036FA7D210901484300B266
:10376000FE4AA08600215156002906D0012908D022
:1037700002290BD003290CD00FE028280DDB2820CC
:1037800002E0AA2809DBAA20A08606E0FF21733107
:1037900000E0F349884200DBA186A08EE086608DC0
:1037A000401C60852E20205E01F050FD616D01F00F
:1037B0000BFF03D8606D01F0E7FCE0852C20205E54
:1037C00001F044FD616D01F029FF03D8606D01F047
:1037D000DBFCA0852A20205E062807DD6585E08DBC
:1037E000A18D401A2085E585DE48A085DE48007859
:1037F000012802D0002832D060E02020205E01F0B5
:1038000025FD616D01F0E0FE07D81E20205E01F06D
:103810001DFD616D01F002FF3DD9FF20676DC00500
:10382000C7420BD220202821205E615E401A50380A
:1038300001F00CFD394601F0F1FE3AD91E20282195
:10384000205E615E4018503001F000FD616D01F0B6
:10385000BBFE33D8C548616D81422ADD2EE02820A9
:10386000205E01F02CFC0122D24301F033FC07461C
:1038700026200091205E01F022FC3A46009B01F0D8
:10388000DAFB07460091606D01F054FC3A46009B5C
:1038900001F0EEFD01D8E67010E026202821205E20
:1038A000615E4018503001F0D1FC616D01F08CFE7A
:1038B00004D8E57002E0AE48C674C570AC4C2673FF
:1038C000FFF79CFDFFF78EFDA1796079FEF72BFED7
:1038D00058E600216422504300E0491C8842FCD88D
:1038E0007047F8B57D21A24CC900A248E18433227B
:1038F0000270A14F1F263E700A2078809F4A6420E4
:1039000010800420A08301202071E18349102184CC
:10391000954900250D709A4908709A490870606EA3
:103920002566A565E065258631469748FFF740FB8B
:103930003220FFF7CEFF0221795E9448FFF738FB73
:103940003220FFF7C6FF2621615E9148FFF730FB6A
:103950003220FFF7BEFF8F4FA16C3846FFF728FBE0
:103960003220FFF7B6FF834801788B48FFF720FB32
:103970003220FFF7AEFF21798848FFF719FB32208C
:10398000FFF7A7FFA18B8648FFF712FB3220FFF756
:10399000A0FF8448616EFFF70BFB3220FFF799FF11
:1039A0003220FFF796FF704801783846FFF700FB9A
:1039B0003220FFF78EFF1E21615E3846FFF7F8FACE
:1039C0003220FFF786FF2021615E3846FFF7F0FACC
:1039D0003220FFF77EFF6B4841573846FFF7E8FA81
:1039E0007148067205614581704806724581F8BDCF
:1039F000F8B56D4C207A212839D16D486D49C379CD
:103A00001F27CA790026002B04D10D7A212D01D160
:103A1000012A04D0654D2D7A212D29D02EE0554D57
:103A20002A78332A0ED033222A70002262810E4671
:103A30000120FEF723F94E4901200872207A21283F
:103A400002D00BE03422EFE75948C079002805D1B5
:103A5000307A212802D1F0790128E9D029784E481E
:103A6000FFF7A6FA27720020608170813772F8BDD7
:103A70004E4DED79012D01D1002B11D0012BF6D146
:103A8000037A212BF3D1002AF1D1394A2546044685
:103A9000D6640320FEF7F2F8287A21282AD033E0F2
:103AA0000D46002AE3D1FEF712F90FE0FFF756FAB0
:103AB00002E00220FEF7E2F83B48FEF7F9FE01289B
:103AC00004D13A48FEF7F4FE0128F2D03648FEF75A
:103AD000EFFE012804D13548FEF7EAFE0128E5D0C3
:103AE000FFF7FFFE668127726E8131482F72468193
:103AF00007720EE0E079012806D1207A212803D14F
:103B00002C48C0790028C4D02F722E616E81668146
:103B100027727D20C000FFF7DCFEF8BDF8B5144C1D
:103B20002079FEF7F2F922490A20085E227E01265A
:103B30001A4F002590420CD00A7A202A09D120760B
:103B40004D812079002846D0257121793846FFF72C
:103B50002FFA18480A21415E227E2DE04000002005
:103B600022060000FF0F000042000020003C1C461F
:103B70006C000020380000204C0000203A0000209B
:103B80003C0000203D00002000590008005D0008B6
:103B900000650008006D0008006900080071000859
:103BA000007500080079000834010020140100208D
:103BB000540100207401002091420BD0017A202989
:103BC00008D145812079002807D025712179384610
:103BD000FFF7EEF9F8BD2671B7E72671F6E7FEB5F7
:103BE000FC48FD4EC079317A084374D1FB48007817
:103BF000332870D12625755F3587F9480A22825E01
:103C0000681CB17D00B20190F5488A42007A02D06A
:103C1000F34B20280AD0F24AF24FD379EE4A3C689F
:103C2000526C012B12B2009209D00BE0B275002049
:103C300058810198EC49F084884253DA5DE0E84A03
:103C4000212812D0E448E94BC08C0A22401E9A5E1B
:103C500000B201901846007A8A4201D020283BD059
:103C6000DA791946012A3FD040E000205081FF2137
:103C70001069913188420BD80A2100F0A3FF002976
:103C80001ED1012C1CD10198F0840020386017E06F
:103C90000146FF39FF229239903291420AD805211C
:103CA00000F090FF00290BD1012C09D10020AD1CA0
:103CB000386004E0012C03D100206D1D3860F584CC
:103CC0002621715EC848814200DBF0842621715EA6
:103CD0000120009A0FE021E0002159810198F08431
:103CE00000280ADCF18408E0212818D0202018726E
:103CF00029467078009AFEF73CF838202621305E7D
:103D0000715E88420AD0B948C079002806D1B4480B
:103D1000C079002802D1B648FFF74AF9FEBD00205D
:103D20004881FF2118699131884209D20A2100F0A7
:103D300049FF00291DD1012C1BD10198F0840FE00F
:103D40000146FF39FF229239903291420BD2052170
:103D500000F038FF00290CD1012C0AD1AD1EF584EA
:103D60000020386005E0012C03D100206D1F386071
:103D7000F5842620305E0028A8DC0020A5E7F0B5F9
:103D800095489549837A93480A7AC0798BB0104355
:103D9000924C03902078924A01900A20105E009085
:103DA000C0B20A901046C0790990104602698D4E43
:103DB0001046FF38346892388C4D08900A20285EEF
:103DC0000790486C05B28948C07906908748006919
:103DD0000746FF3F923F02974F780497804FC97D77
:103DE0003F7A012BBC46814F3F7A05971CD0022BAE
:103DF0007DD1039B002B7AD1019B332B77D1764F5A
:103E00002023FB5E0193BB87019B009F5B1C1BB2C1
:103E100000938F4203D0724B6746202F68D0099BD6
:103E20006F4F012B75D0FAE0039B002B5FD1019BF4
:103E3000332B5CD1684F1E23FB5E03937B87039B70
:103E4000009F5B1C1BB200938F4203D0644B6746FC
:103E5000202F04D0099B624F012B0FD011E05E4C44
:103E60000A98E0750020588100985F49E0838842F5
:103E700000DBE18300221E21615E4BE06346212BC3
:103E800010D0554A079BD28B584F521E12B2009247
:103E90008B4202D0059920293ED0069A3946012A44
:103EA00046D048E00025FF2091307D8182420CD829
:103EB0000A21104600F086FE002921D1012C1FD1D5
:103EC000454835600099C1831AE0FF210898903178
:103ED00088420ED80521104600F074FE00290FD14B
:103EE000012C0DD1356003983B49801C07E06EE042
:103EF00082E0012C04D1356003983749401DC88306
:103F000035481E22825E38498A4200DBC183002286
:103F10004FE080E0012013E0002179812E4B0098D2
:103F2000D883002800DCD9831E212A46595EF1E798
:103F3000059A212A0CD0202038722A460399049829
:103F4000FDF75BFF24483A221E21825E415EC7E0F6
:103F500000274F81FF21913188420BD20A2100F0C6
:103F600031FE00291ED1012C1CD11B48376000995D
:103F7000C18317E0FF220299903291420BD20521B2
:103F800000F020FE00290DD1012C0BD137600398E1
:103F90001149801E05E0012C04D1376003980E49B9
:103FA000401FC8830C481E21415E002900DCC783E6
:103FB0002A461E21415EADE70C48C079002806D193
:103FC0000748C079002802D10A48FEF7F1FF0BB07C
:103FD000F0BD0000340100206C00002038000020FB
:103FE00054010020480000200F2700007401002029
:103FF00000650008006D0008FB4C0A98E075002081
:1040000058810098F9492084884200DB21842021CE
:104010002A46615E47E03B466746212F10D0F24AB0
:10402000079B128CF24F521E12B200928B4202D0AA
:104030000599202939D0069A3946012A41D043E012
:104040000027FF2091305F8182420BD80A21104661
:1040500000F0B8FD00291ED1012C1CD13760E248C8
:10406000009917E0FF200899903081420CD8052173
:10407000104600F0A7FD00290DD1012C0BD13760AF
:104080000199D948891C05E0012C04D137600199B8
:10409000D548491D0184D4482022825ED3498A42F2
:1040A00052DB018450E0012013E000217981CE4BE6
:1040B00000981884002800DC198420212A46595EC3
:1040C000F1E7059A212A0FD0202038722A4601995B
:1040D0000498FDF7D6FEC4483C222021825E415E52
:1040E0008A4200D068E772E700274F81FF219131B3
:1040F00088420BD20A2100F065FD00291ED1012C57
:104100001CD1B94837600099018417E0FF22029959
:10411000903291420BD2052100F054FD00290DD1BF
:10412000012C0BD137600198AF49801E05E0012CAE
:1041300004D137600198AC49401F0884AA48202167
:10414000415E002900DC078420212A46415EAAE75F
:1041500010B5A84800230078A749A34A002807D033
:10416000C856002801D090760B70FFF708FE10BDEE
:10417000907E002802D0937601200870FFF72FFD73
:1041800010BDF8B59D4E9A4F9D49F379F879CA79DB
:10419000012B07D101287AD09A49C979012976D013
:1041A000012A74D0984C904D217833294BD1934BF0
:1041B0000A211C7A8F4B715E1B78002902D0202CBB
:1041C00005D04EE00022AA72202C1BD049E0012924
:1041D00004D0022908D003290DD015E0002840D1D1
:1041E000002A3ED1012004E000283AD1002A38D12B
:1041F0000220A87235E0002833D1002A09D103201B
:10420000A87206E0032902D0042907D029E000287B
:1042100027D1002B25D100207081EAE7002820D18A
:10422000012BF8D01DE0307A212809D17449C879D2
:10423000002805D1387A212802D1F879012827D021
:104240000120FDF71BFDF0790128ECD06D48C07905
:104250000128E8D0F8790128E5D06948C07901281B
:10426000E1D06449A87A097802460A433AD0002886
:1042700036D001283DD0022803D801293BD002289E
:104280003CD0032803D1012901D1FFF747FCF8BD39
:10429000207833280CD03320207000202872002092
:1042A00070810120FDF7EAFC307A212803D00CE070
:1042B00034202070F3E75248C079002805D1387ABD
:1042C000212802D1F8790128EBD021784F48FEF758
:1042D0006FFE1F2131720020708178813972B2E740
:1042E0000129D4D1686C002102B20120FDF706FD3E
:1042F000F8BD0029C1D1FFF72BFFF8BD0029C4D0BC
:10430000F8BD414E384C3B4DE07C002810D0FEF704
:1043100064F9FFF76DFB30783328F5D1A07A29785E
:1043200002460A4307D0012807D8012903D004E038
:10433000FFF727FFEDE7FEF785FEFEF744FDE3E715
:1043400000F018FCFFF7DDFF10B52748C06C00B285
:10435000FDF7E8FD2649002048812949488110BD24
:10436000F8B5214D0021A88B00B2FEF71DF82449B5
:104370000A20085E6A7EAC8B00262027904202D07D
:104380000A7A202A03D0C879012803D005E068768C
:104390004E8118E0087A21280DD00F7214480A21A6
:1043A000415E6A7E914202D0017A202930D0C179E3
:1043B00001292FD031E04E810869FF2191318842D7
:1043C00004D20A210AE0641CAC83E7E70146FF3906
:1043D000FF22923990329142F5D2052100F0F2FB92
:1043E0000029F0D0DAE700006C0000200F27000061
:1043F00074010020420000203D0000203401002014
:104400005401002014010020380000200069000839
:10441000468112E0017A212907D00772A88BFF217B
:10442000F53188421AD3A983F8BD46810069FF217E
:104430009131884205D20A210BE0A88B401EA88347
:10444000ECE70146FF39FF22923990329142F4D2D3
:10445000052100F0B7FB0029EFD0DFE70428E3D8FF
:104460000420A883F8BD7BE72248417A012906D0C1
:104470002421415EA02902DB0021C17181847047A3
:10448000704770B51C48FEF7ADFD1C4C20701C48F1
:10449000FEF7A8FD60801B48FEF7A4FD154C1A4DE1
:1044A000E0842846FEF79EFDA0641848FEF79AFDBA
:1044B000174908701748FEF795FD20711648FEF75A
:1044C00091FDA0831548FEF78DFD60662846FEF736
:1044D00089FD134908702846FEF784FDE0832846CD
:1044E000FEF780FD20842846FEF77CFD0D4908700C
:1044F00070BD00006C000020005900084C00002036
:10450000005D000800650008006D000800690008F3
:1045100038000020007100080075000800790008CC
:10452000420000203D00002010B50521C9040020F4
:10453000FCF728FD0120FCF731FDFE48FCF77AFD71
:104540001920FCF7A0FC0028FAD00220FCF757FD48
:10455000FCF75CFD0828FBD110BDFEB50121480425
:10456000FCF789FE01218804FCF785FE0121C804BF
:10457000FCF781FE01218805FCF77DFE6846FCF70B
:10458000A6FB012569460D71002088710320487142
:104590000824E9480094FCF762FB40266946E64897
:1045A0000096FCF75CFB600100906946E248FCF76E
:1045B00056FB2003009009206946C006FCF74FFB1C
:1045C000042000906946DC48FCF749FB6946DB485B
:1045D0000094FCF744FB6946D8480094FCF73FFB85
:1045E0006946D6480094FCF73AFB6946D3480094E4
:1045F000FCF735FB20246946CF480094FCF72FFBDD
:104600006946CD480095FCF72AFB10276946CA4841
:104610000097FCF724FB8020009009206946C00623
:10462000FCF71DFB802000906946C348FCF717FB90
:1046300009206946C0060096FCF711FB092069466F
:10464000C0060095FCF70BFB09206946C0060094E4
:10465000FCF705FB09206946C0060097FCF7FFFA46
:1046600009200022A102C006FCF75DFB0022E10048
:10467000B148FCF758FB00224021AF48FCF753FB40
:1046800000220821AC48FCF74EFB00220421AA4876
:10469000FCF749FB00220821A848FCF744FB002254
:1046A0000821A648FCF73FFB00220821A348FCF79D
:1046B0003AFB00220821A148FCF735FB002220210B
:1046C0009D48FCF730FB002201219B48FCF72BFBA7
:1046D000002210219848FCF726FB092000228021A7
:1046E000C006FCF720FB002280219348FCF71BFB4F
:1046F000092000224021C006FCF715FB09200022FA
:104700000121C006FCF70FFB092000222021C00672
:10471000FCF709FB092000221021C006FCF703FB6F
:10472000FEBD1CB501214804FCF7A5FD012188044C
:10473000FCF7A1FD0121C804FCF79DFD01218805BE
:10474000FCF799FD6846FCF7C2FA01206A46107131
:10475000002191715171D0710820009009206946A3
:10476000C006FCF77CFA0220009069467348FCF70B
:1047700076FA1CBD1CB501218804FCF77CFD0220E3
:104780006946009008710320487101206A4CC87185
:104790002046FCF764FA012211462046FCF7CBFACA
:1047A0001CBD10B586B060216B461980012159806F
:1047B0000021998099810822DA8152011A82598256
:1047C0005F4C029069462046FCF748FF08212046CE
:1047D000FCF7FBFF06B010BDF0B50D46064685B0F0
:1047E000174601210220FCF758FD10206946087386
:1047F0000A2048730120887303A8FCF7DBFA504CA9
:104800002046FCF78BFD6846FCF70AFE002069464F
:104810000881488001960D808872FFF7ABFF38460B
:10482000FFF7BFFF00212046FDF77DF9002120465C
:10483000FDF77FF906212046FDF7DBF92021204610
:10484000FDF7CFF969462046FCF7BEFD0122102195
:104850002046FDF72BF901212046FCF70DFE012132
:104860002046FCF722FE05B0F0BD1CB5012148042E
:10487000FCF701FD2020009002206946087100200D
:10488000487101200924C871E4062046FCF7E7F9C5
:10489000022205212046FCF74EFA1CBD10B586B059
:1048A00060206A4610800120508000209080908116
:1048B0000821D1814901118250820A2044070290C7
:1048C00069462046FCF721FE08212046FCF76AFFD6
:1048D00080E71FB501210846FCF7DFFC08206A4687
:1048E00050730F2010730120907303A8FCF762FA35
:1048F0000124A4072046FCF711FD00216A4611811E
:1049000051802F2001907D20C000108091720122E3
:1049100011462046FDF7CAF820212046FDF761F92F
:1049200069462046FCF750FD01212046FCF7A4FD16
:10493000012107E000400001000400480014004885
:10494000000400402046FCF7B0FD1FBD1CB501214E
:104950004804FCF790FCFF200130009002206946DB
:104960000871002048710924C871E4062046FCF74C
:1049700076F9022208212046FCF7DDF91CBD70B54E
:1049800001218AB0C802FCF77FFCFFF7DFFF012599
:10499000684645700D2101708570FCF70BFA032104
:1049A00068460183002444830220079008A87E4EB5
:1049B000847006A93046FCF707FD602168468180B7
:1049C000C580048104820821418249018182C48218
:1049D00001A930460395FCF798FD08213046FCF705
:1049E000E1FE01213046FCF784FD01213046FCF751
:1049F00043FD20213046FDF7F4F880213046FDF7D5
:104A000000F901213046FDF771F801213046FCF72D
:104A10004CFD0AB070BD1CB501214804FCF72BFC0D
:104A200004200090032069460871002088714871B5
:104A30000120C8710920C006FCF711F91CBD70B532
:104A400001218CB00846FCF716FC09206946087065
:104A500000244C7001258D706846FCF7ABF9534E6D
:104A60003046FBF779FD52480190524802A931C106
:104A70008020069040000790800008902020099038
:104A8000059400020A9001A90B943046FBF7BEFD85
:104A90000220FBF718FE0220FBF72CFE0122022168
:104AA0003046FBF7FAFD01213046FBF7D8FD0CB08C
:104AB00070BD30B5012187B04802FCF7E5FB0C2042
:104AC0006946087600244C760120887606A8FCF713
:104AD00071F969460C7100940494039405940120C3
:104AE000334CC0020290403C2046FBF72FFC0121D2
:104AF0002046FBF7C6FC002204212046FBF7A8FC59
:104B00002046FBF7C8FC01212046FBF73AFC2A4D62
:104B100020462946FBF7FDFC0028F9D0012120465C
:104B2000FBF7DDFC02212046FBF7E3FC2046FBF708
:104B3000CEFC07B030BD10B5FFF76DFFFFF77FFF6C
:104B4000FFF7B7FF10BD10B55D20FCF79CF90028FA
:104B500001D0FCF7CFFB1948FCF70AF90420FCF759
:104B60000AF97D200001FCF709F9FCF70AF9FCF7C6
:104B70000FF910BD10B5FFF7D7FCFFF700FFFFF7E7
:104B8000A8FEFF201F220B211930FFF725FEFFF79B
:104B9000D2FF0B48FCF792FAFFF7C3FDFFF7DDFCED
:104BA000FDF725FE10BD0000002C0140080002406A
:104BB000402401400401002001000001555500007F
:104BC00014040020002203098B422CD3030A8B42D9
:104BD00011D300239C464EE003460B433CD40022F5
:104BE00043088B4231D303098B421CD3030A8B4207
:104BF00001D394463FE0C3098B4201D3CB01C01AD5
:104C0000524183098B4201D38B01C01A524143099F
:104C10008B4201D34B01C01A524103098B4201D38D
:104C20000B01C01A5241C3088B4201D3CB00C01AFA
:104C3000524183088B4201D38B00C01A5241430872
:104C40008B4201D34B00C01A5241411A00D2014697
:104C50005241104670475DE0CA0F00D04942031030
:104C600000D34042534000229C4603098B422DD37F
:104C7000030A8B4212D3FC22890112BA030A8B4227
:104C80000CD3890192118B4208D3890192118B4276
:104C900004D389013AD0921100E08909C3098B42FB
:104CA00001D3CB01C01A524183098B4201D38B013E
:104CB000C01A524143098B4201D34B01C01A5241E1
:104CC00003098B4201D30B01C01A5241C3088B4226
:104CD00001D3CB00C01A524183088B4201D38B0011
:104CE000C01A5241D9D243088B4201D34B00C01A9B
:104CF0005241411A00D20146634652415B101046B0
:104D000001D34042002B00D54942704763465B10F7
:104D100000D3404201B50020C046C04602BD7047E6
:104D200070477047F0B50C46871A9C410D46861AAD
:104D30009D4103D2C01BA141D21963410D0D1F0D2E
:104D4000C94EEC1BAE435CD07F057F0D0026002FC3
:104D500051D02D05AC46A943DD020123ED0A1B0508
:104D60001D4320231B1B24D41746E74038187141EC
:104D70002F46E740CC199D402818314661410C0D63
:104D800027D161449A4013D50023401C5941520059
:104D90000ED14008400001224B005205D34207D3F8
:104DA00005204007C14201D5B04900E0B049304676
:104DB000F0BD6B00002A00D001229A181F23203C6E
:104DC0001B1B01D5002302E0E540281871410C0DA2
:104DD000D7D0012424050919C407CD074008490884
:104DE000E40F28436144002CD5D00024401C6141CD
:104DF0009A40D0D1CDE76A05520DD9D1C90FC90764
:104E0000D5E79C4D4E00002801D0012400E000248D
:104E100034195F00002A01D0012600E00026BE19E7
:104E2000954FAC420CD8AE420AD8B44206D0012508
:104E30006D05EC42BCD010461946F0BD9942FCD03D
:104E400000203946F0BDF0B51FB40C460F46811A5C
:104E50009F412546861A9D4106D20125ED076F40E8
:104E6000401ABC4152187B41210D1E0D8D1BAC46D2
:104E70007D4D8D437ED075056D0D7CD00D05AE4604
:104E8000AC431B031B0B794D52429D4120236646C8
:104E90009B1B14D31746F740381800260090744126
:104EA00060462F460741E41900989D402818664146
:104EB00016D4714671189A4025D5012320E0931825
:104EC0002A466A415200002B00D0521C1E23203E6D
:104ED0009B1B002B61DD3541EE1728186641E8D594
:104EE000001876415B1C9A4000D3401C4B05F31818
:104EF0001524E34010D3002B52D071467118D30F04
:104F0000C01802D3491C05B0F0BD0123DB079A424B
:104F1000F9D140084000F6E701225205B21801D14C
:104F2000002853D00123CC0ADB029943891E002AB2
:104F300008D1020C03D0020C0004103902E0024632
:104F4000002020390023550B05D112020823550BF0
:104F500001D152010D23550C01D112011B1DD50C9D
:104F600001D192009B1C150D01D152005B1C202524
:104F7000EE1A01E02CE022E00546F540154398408A
:104F8000CA1AE10769181305C918002ABBDA0320F9
:104F900040070818C10FC9070FE071466118B2E752
:104FA000F10740080843711071444A000CD00123F6
:104FB0005B059A42A7D2C90FC9070020A3E749059C
:104FC000490D26D1002001E00028F4D100219AE704
:104FD000284D6600002801D0012100E00021711851
:104FE0005F00002A01D0012600E00026BE19224FF2
:104FF000A94210D8AE420ED8B14208D001256D05A5
:10500000E94206D01946A802414010467BE79C427F
:1050100001D0214677E70020394674E710B50C46E9
:105020005C4005D50124E4076340FFF70CFF10BD89
:10503000FFF778FE10BD30B40C465C4004D5012467
:10504000E407634030BC6DE630BCFCE670B501247B
:10505000E40761400D465D4002D4FFF763FE70BD7A
:105060006340FFF7F0FE70BDFF0700000000F0FF97
:105070000000F07F0000E0FF0000F87F1F22030C1B
:1050800002D10F22000402D0030E03D004E000205E
:10509000014670470002083A030F01D10001121FB8
:1050A000830F01D18000921E002801DB4000521EB8
:1050B000120551184205C012411810467047C10F21
:1050C000C90700D04042012292071143D6E70121CF
:1050D0008907D3E770B505464800440D124B002000
:1050E000002C0AD0634008D09A4206DA6642B242E7
:1050F00003DD12054019514170BD002C08D0002B72
:1051000009D0C90FC907002AF6DB084A114370BD50
:10511000C90FC90770BD28460A03104302D00020FA
:10512000034970BD284670BDFF0700000000F07FF6
:105130000000F87F0121C9050123411842001B0628
:10514000D3185B0E0AD0C1100722D2068918400777
:105150005242D14201D5520089187047090208D540
:105160000146002A03D0C10FC9070020704710462E
:105170007047420202D0002002497047072109050A
:105180000143F4E70000F87F10B501469E240002B9
:10519000CA15A307002A02D01843002A04DBA21A6A
:1051A000002A0CDDD04010BD1206120E01D14000C5
:1051B0004008A21A03D4D04040420028F3DDFF2269
:1051C00048001206904201D9002010BDC817C04304
:1051D000584010BD0102C21504D00123DB0719435A
:1051E000002A0ADB9E239A1A02D40846D040704750
:1051F000FF2241001206914201D900207047C017DA
:10520000C04370471F22030C02D10F2200041CD0A0
:10521000030E01D10002083A030F01D10001121F51
:10522000830F01D18000921E002801DB4000521E36
:10523000D2055118021251181922904004D3491C6A
:10524000002801D14908490008467047C10FC90725
:1052500000D04042012292071143D3E70121890780
:10526000D0E70000F8B5224C4E00069DA6420AD8B1
:10527000A64201D1002806D15E00A64203D8A6426C
:105280000AD1002A08D00D24240425422CD0294616
:10529000002000F061F8F8BD0C461C430CD4994284
:1052A00002D0EFF30080F8BD904202D0EFF300800F
:1052B000F8BDEFF30080F8BD09242407E5008B4218
:1052C00006D0EFF30080A043591A06D2284304E029
:1052D000101A05D3EFF30080A04380F30088F8BDD7
:1052E000EFF30080A043F1E7009500F04DF8F8BD22
:1052F0000000E0FF10B5FF231B0644009C421DD8B0
:105300004C009C421AD80346124A0B4307D4401A59
:1053100002D3EFF3008010BDEFF3008010BD081A38
:1053200006D2EFF3008001219043C907084302E051
:10533000EFF30080904380F3008810BD0D231B0421
:105340001A4204D01146002000F006F810BD00F00B
:1053500025F810BD00000090C80212D54803400F88
:10536000002804D0C803C043012188407047EFF3F0
:1053700000800001000903210907084380F3008829
:10538000704700207047000010B500200249029AC3
:1053900000F033F810BD00000000F87F10B502489F
:1053A00000F02BF810BD00000000C07F754600F033
:1053B00053F8AE46050069465346C008C00085460E
:1053C00018B020B5FAF7E8FE60BC00274908B646D9
:1053D0000026C0C5C0C5C0C5C0C5C0C5C0C5C0C504
:1053E000C0C5403D49008D46704710B50446C046D3
:1053F000C0462046FAF7AFFE10BD10B50C461107A7
:10540000090F092904D00A290AD008290CD104E07F
:1054100011460820FFF7A0FF06E0510606D501E07F
:10542000510601D50120C007214610BDD10607D580
:1054300001010909CC084907000E0006044309E0F0
:10544000410F20024907000A0143200E00061D22D9
:10545000D14101430846E7E7004870473C0400207B
:1054600001491820ABBEFEE726000200704700008D
:1054700070B501250C002D051C4310D4EC4206D458
:10548000AC420AD4994200D070BD904270BDE9424E
:1054900017D4EB4215D4994270BD894270BDEC42DD
:1054A00006D5AC42F9D58B4200D070BD824270BDAA
:1054B0006D004C00EC4204D25C00EC4201D28B4205
:1054C00070BD034C30B4FFF7CDFE30BC70BD00BFE3
:1054D0001900160470B501251C002D050C4310D4CD
:1054E000EC4206D4AC420AD48B4200D070BD82425A
:1054F00070BDEB4217D4E94215D48B4270BD9B427C
:1055000070BDEC4206D5AC42F9D5994200D070BDD1
:10551000904270BD6D005C00EC4204D24C00EC4245
:1055200001D2994270BD0FB4034C0CBC03BC30B423
:10553000FFF798FE30BC70BD1900160470B5012548
:105540000400ED074C4020D4441A01D2001B091975
:10555000C60D4B00F2B2FF2A29D01B0E2CD0000240
:105560000C02D31A2C43DC402843051910D2280A18
:1055700002D3401C6D0611D0761EF6058019FF2A55
:1055800000DA70BDC00DC00570BD694000F084F840
:1055900001200543C541521C761CE8E764089C4085
:1055A000C90161408900E7D10124A043E4E71B0E53
:1055B000440200D0034870BD002AFCD1C00FC007D0
:1055C00070BD00BF0000C07F01230200DB050A435D
:1055D0000DD4DA4203D49A4207D488427047D842A5
:1055E00014D4D94212D48842704780427047DA42BC
:1055F00003D59A42F9D5814270475B004200DA42F6
:1056000004D24A00DA4201D28142704710B5024A00
:10561000FFF770FE10BD00BF0900160401230A0049
:10562000DB0502430DD4DA4203D49A4207D4814207
:105630007047D94214D4D84212D48142704789426B
:105640007047DA4203D59A42F9D5884270475B0029
:105650004A00DA4204D24200DA4201D2884270475C
:105660004840414010B5024A4840FFF743FE10BD94
:105670000900160470B50125ED07684004004C4090
:1056800002D5694000F008F8FFF75EFF70B501250C
:105690000400ED074C4022D4441A02D26C40001B97
:1056A0000919C60D4B00F2B2FF2A4BD01B0E50D089
:1056B00000020C02D31A2C43DC40A843051B05D57D
:1056C000AD0019D36D08761E521E37D0F605280A94
:1056D00001D2801970BD70416D0603D070BD694064
:1056E000FFF732FF9C4009026140490001D0401E93
:1056F00070BD0124A04370BD6D081DD001202B0C8E
:1057000001D12D0410302B0E01D12D0208302B0FAA
:1057100001D12D01001DAB0F01D1AD00801CEB0F9D
:1057200001D16D00401C6D00361A121A680AF50589
:105730004019012A02DB70BD002070BDC036300A5E
:10574000C00770BD1B0E440201D1FF2B00D10248DF
:1057500070BD002AF0D070BD0000C07F01000200C3
:1057600004000800100020004000800000013F00FD
:1057700006005B004F0066006D007D0007007F00A3
:105780006F0077007C0039005E00790071004000F6
:105790005C0054001C006D007800000038007300AD
:1057A0007100760030005000010002000400080083
:1057B0001000200040008000FF0000003E000000BC
:1057C000E057000800000020080100000401000864
:1057D000E85800080801002098090000200100088E
:1057E000006CDC0200000000000000000102030465
:1057F0000607080900000000010203040102030477
:105800000607080900010101010101010000000073
:1058100000000000000000003300640001010000EF
:105820000000000000000000000000001F000A004F
:105830000000000000000000000000000000000068
:105840000000000000000000000000000000010057
:105850000100000000000000000000000000000047
:1058600000000000000000003200E803F401000026
:105870000000E80300000000FF0F0000000000002F
:105880000000000000000000000000000800000010
:1058900000000000E803000000000000000000001D
:1058A00000000000000000000000000000000000F8
:1058B00000000000000000000000000000000000E8
:1058C00000000000000000000000000000000000D8
:1058D0000000000000100000001000000010000098
:0858E0000010000000000000B0
:04000005080000C12E
:00000001FF
