:020000040800F2
:1000000000080020650100088B0100088D01000830
:1000100000000000000000000000000000000000E0
:100020000000000000000000000000008F01000838
:10003000000000000000000091010008930100088A
:100040009501000895010008950100089501000838
:100050009501000895010008950100089501000828
:1000600095010008CF3400089501000895010008AB
:1000700095010008A7320008950100081932000810
:10008000C132000895010008000000009501000839
:1000900095010008950100089501000895010008E8
:1000A00095010008950100089501000895010008D8
:1000B0009501000800000000950100080000000004
:1000C00000F002F800F03EF80CA030C80838241800
:1000D0002D18A246671EAB4654465D46AC4201D180
:1000E00000F030F87E460F3E0FCCB6460126334274
:1000F00000D0FB1AA246AB46334318476C540000AD
:100100008C540000103A02D378C878C1FAD852074C
:1001100001D330C830C101D504680C6070470000BD
:100120000023002400250026103A01D378C1FBD813
:10013000520700D330C100D50B6070471FB51FBDFB
:1001400010B510BD05F008F81146FFF7F7FF03F0F2
:10015000C4F805F020F803B4FFF7F2FF03BC05F084
:1001600053F800000F4880F308880F480168090E13
:100170000E4A914205D10E480E4901600E480F49C2
:1001800001600F4880470F480047FEE7FEE7FEE7A3
:10019000FEE7FEE7FEE700000B480C490C4A0D4B5A
:1001A0007047000000080020040000001F0000004D
:1001B0001810024001000000000001400000000093
:1001C000D9010008C100000800020020000800203A
:1001D000000400200004002010B54E4801680122F0
:1001E0001143016041684C4A1140416001684B4A2B
:1001F000114001600168012292049143016041684D
:100200003F22120491434160C16A09090901C16298
:10021000016BFF22543291430163416B490849004D
:1002200041630021816000F02EF810BD70B5394E99
:1002300071680C2001403A483A4C03D0042901D09F
:10024000082901D0206014E07268716803239202CB
:10025000DB03150F1940AD1C002907D0F16A09070F
:10026000090F491C04F084FB6843EBE72E48454323
:10027000256070682B490006000F091D085C216885
:10028000C140216070BD1CB500232248009301933A
:100290000168012212041143016051000524240366
:1002A00002680A400192009A521C0092019A002AA8
:1002B00002D1009AA242F3D10168890328D5012115
:1002C00001911A4A11211160416841604168416001
:1002D00041687F22D2039143416041681122120498
:1002E0001143416001680122120611430160016857
:1002F0008901FCD541688908890041604168022272
:100300001143416041680907890F0229FAD11CBDD8
:1003100001931CBD001002400CB8FF08FFFFF6FE61
:1003200000127A000000002000093D000020024079
:10033000864910B5884208D144150121204600F0B5
:10034000BEFF0021204600F0BAFF10BD30B5C268E4
:100350007F4B8C681A400B680D792343CC686D0382
:100360002C4323430C69496923430B431343C36064
:1003700030BD0021016001718160C1600161416196
:1003800070470029816801D0012200E00222114358
:100390008160704701617047002A026901D00A43F9
:1003A00000E08A43026170470122D2030029C1683C
:1003B00001D0114300E09143C160704701229203D4
:1003C0000029C16801D0114300E09143C16070472A
:1003D0000122D2050029C16801D0114300E09143F8
:1003E000C16070470904114301627047C2681F234E
:1003F0009B069A430A43C260704701229205002976
:10040000C16801D0114300E09143C16070470122EF
:100410005049D2050028886801D0104300E090437D
:100420008860704701224B4992050028886801D0F6
:10043000104300E09043886070470122454912064E
:100440000028886801D0104300E09043886070471E
:10045000836A0B4383624261704701225203002981
:10046000C16801D0114300E09143C160704701228F
:1004700012040029C16801D0114300E09143C1601A
:100480007047012212030029C16801D0114300E026
:100490009143C1607047826800210123DB071A4342
:1004A00082600F231B038268491CD20FD207994236
:1004B00001D0002AF7D18168002901DB006C704768
:1004C0000020704781681022114381607047816865
:1004D0000422114381607047006C80B2704700298C
:1004E000C16802D00122114301E049084900C160FE
:1004F0007047C26802239A43C260C2680A43C2605E
:100500007047002A426801D00A4300E08A434260F3
:10051000704702460020CB0104D5926801231B06D8
:100520009A4300E012680A4200D00120704701603F
:10053000704702465368002012680B400A4202D0FE
:10054000002B00D00120704701607047002401405B
:1005500003D2FFFF00270140F0B501686A4A11404D
:1005600001600021016041608160C1606749674AA4
:1005700008390F2390422DD0644AF024143290425F
:100580002FD0624A1D022832904231D05F4E1A03AA
:100590003C36B04203D1486815E04860F0BD5B4F7F
:1005A0000F2650373604B8422DD0584F6437B84222
:1005B00002D14868320106E0544F7837B84204D17E
:1005C00048680F2212061043E7E75149504F083997
:1005D000B84202D148681843DFE74D4B14339842C4
:1005E00002D148682043D8E7494B2833984202D1CA
:1005F00048682843D1E7464B3C339842CBD0444A25
:1006000050329042CAD148683043C6E730B50368DB
:10061000404A0C6A13408A684D6922430C692C4396
:1006200022438C692243CC6922434C6A22438C6A60
:1006300022431A430260CA6842600A6882604968BD
:10064000C16030BD0021016041608160C160016115
:1006500041618161C161016241628162704700292B
:10066000016802D00122114301E0274A11400160D4
:10067000704710B58030826A0B0F9C000F23A34097
:100680009A438262826A090109090A43826210BDA3
:1006900041607047406880B27047002A026801D00C
:1006A0000A4300E08A430260704702460020D100FE
:1006B00002D51749083901E014490839096811427F
:1006C00000D001207047C10002D51149083901E06E
:1006D0000E4908394860704702460020D10002D513
:1006E0000B49083901E0094908390968114200D06D
:1006F00001207047C10002D50549083901E00349CE
:100700000839486070470000FEFF00000800024002
:10071000080402400F80FFFFFE4A116849084900A3
:10072000014311607047FB4910220028086801D07E
:10073000104300E0904308607047F64900200968C4
:10074000890600D501207047F2480169090603D5E2
:10075000F1494160F14941607047EE4801698022EA
:10076000114301617047EB490420CA68D20701D0E8
:1007700001207047CA68D20601D502207047C968B7
:100780004907FBD50320704700B50346FFF7EBFF91
:1007900002E0FFF7E8FF5B1E012803D0002B00D129
:1007A000052000BD002BF4D1FAE7F0B50B27064673
:1007B0003F043846FFF7E8FF04280FD1D54C2069E5
:1007C0000225284320616661206940210843206199
:1007D0003846FFF7D9FF2169A9432161F0BD70B503
:1007E0000B252D042846FFF7CFFF04280ED1C94C56
:1007F000206904263043206120694021084320619C
:100800002846FFF7C1FF2169B143216170BDF8B5EA
:10081000064600200B273F0400900D463846FFF7A0
:10082000B3FF042815D1BB4C206901210843206186
:1008300035803846FFF7A8FF042806D1B61C290CDE
:10084000009631803846FFF79FFF2169490849002B
:100850002161F8BDF0B50B2706463F040D4638462A
:10086000FFF792FF04280CD1AA4C2069012108430C
:10087000206135803846FFF787FF21694908490024
:100880002161F0BDA3480169890503D4A2498160B3
:10089000A249816070479F480169421591430161F7
:1008A00070479C480169012252031143016170475E
:1008B00098490020C9694907890F00D00120704775
:1008C000F0B5AA24FFF7F4FF002800D000240B277E
:1008D0003F043846FFF758FF042813D18D4D28698F
:1008E0002026304328612869402108432861384682
:1008F000FFF74AFF1021042805D0052802D02A69F5
:100900008A432A61F0BD2869B043286128690E46F0
:1009100030432861824804803846FFF735FF0528B8
:10092000F0D02969B1432961F0BDF0B5C04301049D
:100930000E0E0102C7B2040E0B200D0E0004FFF7CD
:1009400023FF042831D173490A6910231A430A612D
:10095000FF2F07D0724807810B200004FFF714FF18
:1009600004281BD1FF2E07D06D4846810B200004C0
:10097000FFF70AFF042811D1FF2D07D068488581B1
:100980000B200004FFF700FF042807D1FF2C07D03D
:100990006348C4810B200004FFF7F6FE052804D04D
:1009A0005C490B69102293430B61F0BDF0B50B2736
:1009B00006463F043846FFF7E7FE04281ED1554C93
:1009C00020692025284320612069402108432061B7
:1009D0003846FFF7D9FE04280BD12069A8432061CF
:1009E00020691025284320614D4806803846FFF7CE
:1009F000CBFE052802D02169A9432161F0BDF0B5E5
:100A000006460B2094460F460004FFF7BDFE04285F
:100A100014D1404C20691025284320613E43604694
:100A20000643F82006433E4846800B200004FFF7AB
:100A3000ABFE052802D02169A9432161F0BDF0B5C4
:100A40000B2706463F043846FFF79EFE042810D1C8
:100A5000304C2069102528432061EF2006433048A0
:100A600046803846FFF790FE052802D02169A94349
:100A70002161F0BDF0B50B2706463F043846FFF76D
:100A800083FE042810D1234C2069102528432061BF
:100A9000F7200643224846803846FFF775FE0528B2
:100AA00002D02169A9432161F0BDF0B50B270646AC
:100AB0003F043846FFF768FE042810D1154C206922
:100AC0001025284320617F2006431548468038467C
:100AD000FFF75AFE052802D02169A9432161F0BD24
:100AE000F0B50B2706463F043846FFF74DFE0428B5
:100AF00019D1084C2069102528432061DF200643C6
:100B0000074846803846FFF73FFE05280BD021698D
:100B1000A94307E00020024023016745AB89EFCDE0
:100B200000F8FF1F2161F0BDF0B50B2706463F041A
:100B30003846FFF729FE042810D1304C20691025D3
:100B400028432061BF2006432D4846803846FFF7E2
:100B50001BFE052802D02169A9432161F0BDF0B533
:100B60000B2706463F043846FFF70EFE04280ED139
:100B7000224C2069102528432061214846803846B0
:100B8000FFF702FE052802D02169A9432161F0BDCB
:100B9000F0B507460B200E460004FFF7F5FD0428CC
:100BA0000ED1164C20691025284320613E800B2071
:100BB0000004FFF7E9FD052802D02169A94321615E
:100BC000F0BD0E48C0690004000E70470B48006A73
:100BD00070470A4A0029116901D0014300E08143AE
:100BE00011617047054A0146D26800200A4200D0D0
:100BF000012070470149C860704700000020024092
:100C000000F8FF1F092110B5C906884202D1012151
:100C10004C0404E05049884209D1012104022046D5
:100C200000F044FB0021204600F040FB10BD4B4982
:100C3000884202D101210402F1E74949884202D1E8
:100C400001210C05EBE74749884202D1012144020A
:100C5000E5E745498842E9D101218C05DFE7F0B598
:100C60000022032501230C6893401C409C422AD19A
:100C70000C79012C01D0022C12D1876854002E4629
:100C8000A640B74387604E79A640846826438660B5
:100C900084889C43848084888B7993401C4384801F
:100CA000066853002C469C40A64306600E790768F0
:100CB0009E403E430660C668A643C660CC799C4011
:100CC000C3681C43C460521C102ACBD3F0BD274913
:100CD000016000210171012242718171C17170476F
:100CE000012208B512040A430092C261C161009951
:100CF000C161C169C069009008BD0246128A002026
:100D00000A4200D001207047008A70470246928A4A
:100D100000200A4200D001207047808A704781611C
:100D2000704701857047002A01D0816170470185B5
:100D30007047818270474B07DB0E9A40C90810B597
:100D400089000818016A0F249C40A1430162016ACE
:100D50001143016210BD0000000400480008004873
:100D6000000C00480010004800140048FFFF00007D
:100D70000D49086070470C49486070470A4988600F
:100D8000704709490948086070470749086170477A
:100D90000549074808607047034A0146D2680020A9
:100DA0000A4200D00120704700300040AAAA00008B
:100DB000CCCC000030B5827801240178002A15D00F
:100DC0008B08174A9B009A1813688907C90EFF25DC
:100DD0008D40AB434578AD072D0E8D401D4315600A
:100DE0000078C006C00E84400E4804E0C806C00E5D
:100DF00084400C488030046030BD0B4A00291169E2
:100E000001D0014300E0814311617047042207498A
:100E10000428086902D09043086170471043FBE73B
:100E200000E400E000E100E000ED00E000E000E0B0
:100E3000F84801680122114301604168F64A1140F7
:100E400041600168F54A1140016001680122920485
:100E50009143016041683F22120491434160C16A9D
:100E600009090901C162016BED4A11400163416B3F
:100E7000490849004163002181607047E54900222B
:100E80008A708870704703460020E24A59090CD0E6
:100E900001290CD002290CD0516BDA06D20E0123A5
:100EA00093400B4200D0012070471168F5E7116AAA
:100EB000F3E7516AF1E718B50020052424030090F8
:100EC0001120FFF7E0FF0099491C0091A14201D0D9
:100ED0000028F5D01120FFF7D6FF002800D0012010
:100EE00018BDCC4A1168F8239943C000084310602C
:100EF0007047C8490028086802D00122104301E069
:100F00004008400008607047C24A516BF82399437B
:100F1000C000084350637047BE490028486B02D0A8
:100F20000122104301E04008400048637047B9497E
:100F300004220028486B01D0904300E0104348632E
:100F40007047B4490A6A520852000A620A6A0423C6
:100F50009A430A620A6A02430A627047AD490A6A02
:100F600018239A430A620A6A02430A627047A9492F
:100F70000028486A02D00122104301E040084000E6
:100F80004862704710B5A34A53687B24E403A34327
:100F90005360536808430343536010BD01229D49C9
:100FA00012060028086801D0104300E09043086052
:100FB00070470122974912040028486B01D0104362
:100FC00000E0904348637047924AD16A09090901D9
:100FD0000143D162704701228E49D204002808687B
:100FE00001D0104300E0904308607047894B5A6875
:100FF0001202120A00060843104358607047854ADF
:1010000051688908890001435160704781484068F0
:101010000C21084070477F4A5168F02399430143EF
:10102000516070477B4A516807231B029943014373
:101030005160704777494A6801239B039A434A608D
:101040004A6883B21A434A600A6B8B159A430A6353
:101050000A6B000C02430A6370476E490A6B402317
:101060009A430A630A6B02430A63704769490A6B31
:1010700010239A430A630A6B02430A637047010F05
:10108000644A01290AD00229116B0BD003239B0467
:1010900099431163116B014311637047116B890808
:1010A0008900F6E703231B04F2E75A490A6B802301
:1010B0009A430A630A6B02430A637047F8B5554EB8
:1010C0000446706800210C22564D104005D00428BB
:1010D00003D0082803D00C281AD025601AE07168C4
:1010E000706803228902D2030F0F1040BF1C002832
:1010F0000AD0F06A0107090F2846491C03F038FCA2
:1011000078430146216005E0474839464143F9E705
:10111000464820607068464F0006000F3B5C206820
:101120000246DA40626073685B055B0FFB5CDA4085
:10113000A260336BDB0501D43E4B05E073685B04B2
:1011400001D4530800E09308E360336B5F063A4B29
:1011500003D4394F1237276100E02361376BFF0654
:1011600001D4656100E06061376BBF070ED0376B5B
:10117000BF07BF0F012F0BD0376BBF07BF0F022F69
:1011800008D0376BFF43BF0706D006E0A26104E03A
:10119000A06102E0A36100E0A561376BBF03BF0F50
:1011A0000FD0376BBF03BF0F012F0CD0376BBF03BE
:1011B000BF0F022F09D0376BBF03BF0F032F06D01D
:1011C00006E0E26104E0E06102E0E36100E0E56185
:1011D000376B3F03BF0F0FD0326B1203920F012A00
:1011E0000CD0306B0003800F022809D0306B000355
:1011F000800F032806D006E0226204E0206202E0AD
:10120000236200E02562306B000617D40748606255
:10121000F8BD0000001002400CB8FF08FFFFF6FE0A
:10122000ACFEF0FF00127A0000093D00006CDC0209
:1012300014000020809FD500008000006162E7E775
:1012400035490A6A02430A62704701223249D203D1
:101250000028086A01D0104300E0904308627047FC
:1012600001222D4912040028086A01D0104300E031
:10127000904308627047284A0029516901D0014310
:1012800000E0814351617047234A0029916901D0F0
:10129000014300E08143916170471F4A0029D169F1
:1012A00001D0014300E08143D16170471A4A00290F
:1012B000916A01D0014300E0814391627047164A70
:1012C0000029D16801D0014300E08143D16070471B
:1012D000114A0029116901D0014300E081431161E5
:1012E00070470D4A0029517A01D0014300E0814343
:1012F000517270470848416A012212061143416247
:101300007047054A0146926800200A4200D0012039
:10131000704701498872704700100240F94910B5C2
:10132000884202D10121C4143AE001218907884290
:1013300006D101210846FFF7CBFF0021012008E07C
:10134000F149884208D101210220FFF7C1FF0021A5
:101350000220FFF7BDFF10BDEC49884206D10121F4
:101360001020FFF7B5FF00211020F2E7E84988427E
:1013700006D101212020FFF7ABFF00212020E8E764
:10138000E449884207D1841501212046FFF7A0FFD8
:1013900000212046DDE7E049884209D101210C0403
:1013A0002046FFF78CFF00212046FFF788FF10BD85
:1013B000DA49884202D101214C04F1E7D849884238
:1013C000F5D101218C04EBE710B50288CD4B984292
:1013D00006D00124A407A04202D0CB4CA04203D1E6
:1013E0007024A2434C882243C84CA04203D0CD4C69
:1013F00022400C89224302804A68C2620A88028520
:10140000984208D0C44A904205D0C44A904202D0C3
:10141000C34A904201D1897A01860121818210BD9F
:101420000021C94341600021018001814180817216
:101430007047018582827047028870239A430A436D
:101440000280704741627047C1627047406A7047CE
:10145000008D704702220029018801D0114300E06D
:1014600091430180704704220029018801D0114373
:1014700000E091430180704780220029018801D05B
:10148000114300E0914301807047028808239A438A
:10149000028002880A43028070470288A14B1A40EA
:1014A000028002880A43028070470029018802D026
:1014B0000122114301E0490849000180704710B53D
:1014C0000A884B88CC881A438B8823431A430B899C
:1014D0001A434B8989891A430A434030828010BDE0
:1014E0000021018041808180C18001814181818111
:1014F000704740300029818803D00122D203114374
:1015000001E04904490C8180704770B5028C520893
:1015100052000284048C8288038B7025AB439B08A5
:101520000D889B001D4302239C438E894B882643D4
:10153000744C3343A04208D0774CA04205D0774C7E
:10154000A04202D0764CA0420DD10824A343CC89FE
:101550001C4304239C438B882343724C22400C8AF7
:1015600014434A8A22438280058389684163038445
:1015700070BD70B5028C10239A430284048C82885B
:10158000038B694D2B400D782D062D0C1D43202318
:101590009C438B891B051E0C4B8826431B051B0C8B
:1015A000584C3343A04202D05B4EB04219D15F4E3B
:1015B00032400E8AB604360C3243A04211D1802448
:1015C000A343CC892405240C1C4340239C438B88D3
:1015D0001B051B0C2343564C22404C8AA404240CAC
:1015E00022438280058389688163038470BD30B59E
:1015F000028C504B1A400284038C8288848B7025A5
:10160000AC43A4080D88A40025434B4C23400C7B1D
:101610002406240C1C438B781B061B0C2343394CDB
:10162000A04215D1424C23408C7B2406240C1C4341
:101630003E4B1C400B791B061B0C23433F4C2240A6
:101640000C8A2405240C14434A8A1205120C2243E6
:10165000828085838968C163038430BD30B5028C84
:10166000374B1A400284058C8288838B2E4C234092
:101670000C782406240C1C43324B1D400B7B1B07AB
:101680001B0C2B438D782D072D0C1D431D4B9842B1
:1016900005D12D4B13400A8A9205120C1A43828001
:1016A000848389680164058430BD00210180418004
:1016B000818081608181C18101824182704730B522
:1016C000034618330124058C8C40A543058400296A
:1016D00010D008290ED0091F0804400CC01801685A
:1016E00007231B039943016001681206120C114382
:1016F000016030BD4808C01801687023994301603B
:101700000168F4E7002C0140000400400010004094
:10171000001400400020004000400140004401400F
:1017200000480140FFFC0000FF8C0000FFFB0000B0
:10173000FFF70000FFFE0000FFFD0000FFCF0000EC
:10174000FFEF0000FFDF0000FFBF000041637047B4
:1017500081637047C163704701647047028B7023D7
:101760009A430A4302837047028BF64B09021A40E0
:10177000114301837047828B70239A430A4382830B
:101780007047828BEF4B09021A40114381837047E7
:101790000029818802D00122114301E04908490053
:1017A00081807047028B08239A430A430283704763
:1017B000028BE54B09021A40114301837047828B6B
:1017C00008239A430A4382837047828BDE4B0902C7
:1017D0001A40114381837047028B04239A430A43C2
:1017E00002837047028BD94B09021A4011430183CF
:1017F0007047828B04239A430A4382837047828B0B
:10180000D24B09021A40114381837047028B802317
:101810009A430A4302837047028B5204520C090216
:10182000114301837047828B80239A430A4382834A
:101830007047828B5204520C090211438183704716
:10184000028C02239A430A4302847047028C0823C5
:101850009A430A4302847047028C20239A43090169
:10186000114301847047028C80239A43090111437C
:1018700001847047028CB64B09021A40114301845F
:101880007047028CB04B09021A4011430184704723
:10189000028CB04B09031A4011430184704702893E
:1018A00008239A43028102890A430281704710B5D6
:1018B0000123048C8B409C430484038C8A40134393
:1018C000038410BD10B50423048C8B409C43048416
:1018D000038C8A401343038410BD042200298188AD
:1018E00001D0114300E0914381807047828B9A4B75
:1018F0001A408283828B09020A4382837047828B5B
:101900000C239A438283828B0A4382837047028B23
:10191000914B1A400283028B09020A4302837047EB
:10192000F0B5048C1026B4430484058B048C8B4FD3
:101930001B0309013D402B4312021A43A0239C4381
:101940000C43344302830484F0BD028B0C239A437E
:101950000283028B0A430283704770B5048C6408CB
:1019600064000484058B048C1B011343F3260A22B4
:10197000B54394432B430C4301210C43038304845C
:1019800070BDF8B5054608884E888A880B890C46D4
:1019900000281DD0042824D00828288C2AD070497B
:1019A00008402884A88B2F8C31036C4E12023040E3
:1019B0000243180310436B4AA88317400F430121C9
:1019C00009030F432F84E1882846FFF78FFFF8BDF6
:1019D00031462846FFF7C1FFE1882846FFF7B5FFEB
:1019E000F8BD31462846FFF79BFFE1882846FFF700
:1019F0008EFFF8BD5C4908402884A98B288C3702EB
:101A0000F3261B01B14313430B435849AB830840F2
:101A1000FF213843013108432884E1882846FFF735
:101A20006EFFF8BD00210180418001228280C180CB
:101A300001817047F8B50C46498800260125074604
:101A4000002900D10226A288012A00D1022520887F
:101A500023890028384610D0FFF762FFE188384616
:101A6000FFF755FF23892A4631463846FFF775FFB1
:101A7000E1883846FFF769FFF8BDFFF76EFFE188A0
:101A80003846FFF762FF23892A4631463846FFF77A
:101A900047FFE1883846FFF73AFFF8BD406B7047D3
:101AA000806B7047C06B7047006C7047002A82895A
:101AB00001D00A4300E08A438281704781827047E7
:101AC0000246128A00200A4200D001207047C94312
:101AD000018270470246138A002092890B400A4017
:101AE000002B02D0002A00D001207047C943018298
:101AF00070471143403001817047002A828901D02C
:101B00000A4300E08A4382817047082200298188C5
:101B100001D0114300E09143818070470189C908D9
:101B2000C90001817047028970239A430A430281E8
:101B3000704710B50446FFF7F6FF208907210843D8
:101B4000208110BDFF8F0000FFF70000FFFB0000A9
:101B5000FFFD0000FFDF0000FFF30000FF0C0000AE
:101B6000FFEF0000FF5F0000FFFE0000FFF5000038
:101B700070B516460D46044660290CD00122314648
:101B8000FFF7EBFE29462046FFF7CDFF208907210E
:101B90000843208170BD01223146FFF7C1FEF1E705
:101BA00010B504891B021343E4B20B4323430381A2
:101BB00010BD10B50446FFF7F3FF2089C108C90026
:101BC00007200143702081430143218110BD10B5DE
:101BD0000446FFF7E5FF208901218903084320819E
:101BE00010BD828870239A43828082880A43828053
:101BF00070470289D208D200028102890A43028119
:101C00007047028980239A43028102890A43028134
:101C1000704770B50589048B068CED08ED000D4307
:101C20000C4905810C40FF2102310C43AA218E434F
:101C30001901114331430483018470BD80220029BE
:101C4000818801D0114300E091438180704740308A
:101C500001827047FCFC0000FD48062101705B21F9
:101C600041704F2181706621C1706D2101717D210C
:101C70004171072181717F21C171704730B5002208
:101C8000F349012805D0782302280ED0032813D069
:101C900018E0F0485C2305783920382408704B7030
:101CA000332D8C700DD13E2004E00B703020487035
:101CB00054238B70C87005E00B706D204870502065
:101CC0008870CA700A714A718A71CA7130BDE04861
:101CD0000021017041708170C17001714171817189
:101CE000C171704710B5002404E00A2102F040FEE3
:101CF000641CE4B20028F8D1204610BDF7B50C46AC
:101D00000298FFF7EFFF2046FFF7ECFF05460A2198
:101D1000029802F037FE4900CF4ECD4C715C00278F
:101D20002170022D06D30A2102F02CFE4800305CFF
:101D3000607000E06770032D0AD36421029802F0FE
:101D400021FE0A2102F01EFE4800305CA07000E077
:101D5000A770042D0BD37D21C900029802F012FE5A
:101D60000A2102F00FFE4800305CE070FEBDE77013
:101D7000FEBDF7B507461046FFF7B4FF0198FFF721
:101D8000B1FF0026B24C0546002F2FD00A21019842
:101D900002F0F8FD4900B04F022D795C217006D3A6
:101DA0000A2102F0EFFD4800385C607000E06670C8
:101DB000032D0AD36421019802F0E4FD0A2102F008
:101DC000E1FD4800385CA07000E0A670042D0BD344
:101DD0007D21C900019802F0D5FD0A2102F0D2FD53
:101DE0004800385CE070FEBDE670FEBD2670302015
:101DF00060707620A0705E20F4E7F7B507461046C5
:101E0000FFF770FF0198FFF76DFF0026904C054625
:101E1000002F2FD00A21019802F0B4FD49008E4F07
:101E2000022D795C217006D30A2102F0ABFD480037
:101E3000385C607000E06670032D0AD3642101985D
:101E400002F0A0FD0A2102F09DFD4800385CA07060
:101E500000E0A670042D0BD37D21C900019802F08B
:101E600091FD0A2102F08EFD4800385CE070FEBD55
:101E7000E670FEBD26705C2060703820A0705E2089
:101E8000F4E7002272495423002801D0392000E0F1
:101E90005C2008704B708A70CA707047F1B500986A
:101EA000FFF720FF05460A21009802F06BFD49006C
:101EB000694F674C795C00262170022D06D30A21F8
:101EC00002F060FD4800385C607000E06670032D31
:101ED0000AD36421009802F055FD0A2102F052FD58
:101EE0004800385CA07000E0A670042D0BD37D2163
:101EF000C900009802F046FD0A2102F043FD4800A7
:101F0000385CE07000E0E670267176206071782021
:101F1000A0715E20E071F8BD10B54D4939220A71FB
:101F2000782479234C715E228B71CA71002805D008
:101F3000772008704B7050228A7004E000200870EF
:101F40004A708C706D20C87010BD704740490028E1
:101F500006D0012806D0022806D0032806D007E0C4
:101F60003F2004E0062002E05B2000E04F200870E4
:101F70007320487000208870C87070477047374AD7
:101F8000002053783249002B07D071230B704B701F
:101F90005C238B707823CB7004E0087048708870E5
:101FA000C8700120507070472C4A0020937828494F
:101FB000002B07D05E230B7071234B708B705C235A
:101FC000CB7004E0087048708870C8700120907071
:101FD0007047F3B581B00D460198FFF783FE29469F
:101FE0001D4F00251A4E0446002945D01B48C078D5
:101FF000002839D00A21019802F0C4FC4900795C1C
:102000003170022C06D30A2102F0BCFC4800385C77
:10201000707000E07570032C0AD36421019802F0FF
:10202000B1FC0A2102F0AEFC4800385CB07000E060
:10203000B570042C14D37D21C900019802F0A2FCD4
:102040000A2102F09FFC4800385CF07009E00000B3
:10205000E800002038000020165500082400002069
:10206000F570F848C57034E035707570B570F54896
:10207000F5700121C1702CE00A21019802F082FC68
:102080004900795C3170022C12D30A2102F07AFCEB
:102090004800385C7070032C0BD36421019802F067
:1020A00071FC0A2102F06EFC4800385CB07001E05F
:1020B0007570B570042C0BD37D21C900019802F016
:1020C00061FC0A2102F05EFC4800385CF07000E020
:1020D000F5705E20307171207071B0715C20F0710C
:1020E000FEBDD84A00201379D749002B08D05E23C3
:1020F0000B7040234B7054238B705C23CB7004E037
:10210000087048708870C870012010717047F3B56E
:1021100081B00D460198FFF7E5FD2946CB4F00251C
:10212000C94E044600293CD0C6484079002830D02A
:102130000A21019802F026FC4900795C3170022CDA
:1021400006D30A2102F01EFC4800385C707000E0E3
:102150007570032C0AD36421019802F013FC0A2144
:1021600002F010FC4800385CB07000E0B570042C40
:102170000BD37D21C900019802F004FC0A2102F072
:1021800001FC4800385CF07000E0F570AD48457126
:1021900034E035707570B570AA48F5700121417151
:1021A0002CE00A21019802F0EDFB4900795C3170C6
:1021B000022C12D30A2102F0E5FB4800385C707053
:1021C000032C0BD36421019802F0DCFB0A2102F0FE
:1021D000D9FB4800385CB07001E07570B570042C14
:1021E0000BD37D21C900019802F0CCFB0A2102F03B
:1021F000C9FB4800385CF07000E0F5705E2030717B
:10220000402070715420B0715C20F071FEBD8D4A89
:10221000002093798C49002B08D078230B705C2325
:102220004B7076238B706D23CB7004E00870487080
:102230008870C870012090717047F3B581B00D4669
:102240000198FFF74FFD2946804F00257E4E04463A
:1022500000293CD07B48C079002830D00A21019861
:1022600002F090FB4900795C3170022C06D30A2100
:1022700002F088FB4800385C707000E07570032C39
:102280000AD36421019802F07DFB0A2102F07AFB57
:102290004800385CB07000E0B570042C0BD37D2191
:1022A000C900019802F06EFB0A2102F06BFB4800A6
:1022B000385CF07000E0F5706248C57134E035704C
:1022C0007570B5705F48F5700121C1712CE00A216D
:1022D000019802F057FB4900795C3170022C12D34F
:1022E0000A2102F04FFB4800385C7070032C0BD3BE
:1022F0006421019802F046FB0A2102F043FB4800EA
:10230000385CB07001E07570B570042C0BD37D2182
:10231000C900019802F036FB0A2102F033FB4800A5
:10232000385CF07000E0F570782030715C207071DE
:102330007620B0716D20F071FEBD70477047F3B527
:1023400081B007460298FFF7CDFC00263E4C0546BB
:10235000012F05D0022F1AD026706670A67044E0B7
:1023600026706670A6703748E670017A26710029DB
:1023700007D0782161717921A1716D21E171067217
:10238000FEBD6671A671E67101210172FEBD0A21D2
:10239000029802F0EDFA49002C4F022D795C217071
:1023A00006D30A2102F0E4FA4800385C607000E0CD
:1023B0006670032D0AD36421029802F0D9FA0A212B
:1023C00002F0D6FA4800385CA07000E0A670042D38
:1023D0000BD37D21C900029802F0CAFA0A2102F04B
:1023E000C7FA4800385CE07000E0E6700620207113
:1023F000782060717920A0716D20E071FEBDF7B585
:1024000007460298FFF76EFC00260F4C0546012F89
:1024100005D0022F23D026706670A6704DE026707E
:102420006670A6700748E670417A002910D05B21DB
:102430002171782161717921A1716D21E17146725B
:10244000FEBD000024000020E80000201655000812
:1024500026716671A671E67101214172F0E70A21C9
:10246000029802F085FA4900A64F022D795C21708E
:1024700006D30A2102F07CFA4800385C607000E064
:102480006670032D0AD36421029802F071FA0A21C2
:1024900002F06EFA4800385CA07000E0A670042DCF
:1024A0000BD37D21C900029802F062FA0A2102F0E2
:1024B0005FFA4800385CE07000E0E6705B20207155
:1024C000782060717920A0716D20E071B8E710B5B7
:1024D0000C4609200821C006FEF70FFC8A49002897
:1024E00002D0012804D007E0012C05D1302006E0FD
:1024F000002C03D0012C04D0002000E0062008723C
:1025000010BD3620FBE780480021017041705E223B
:1025100082705422C2707922027141718171C1713D
:1025200070477948782101706D2141703E2181709A
:102530005E21C1700021017141718171C1717047CB
:102540007148782101703021417054228270C1702D
:102550000021017141718171C171704770477047ED
:10256000694900220A7139234B716D238B715E23F7
:10257000CB715C23002802D00A70542001E0712046
:10258000087048708B70CA707047704770B5044609
:102590005E4DC00701D0002200E001222021284624
:1025A000FEF7C1FBA00701D5002200E001220121B6
:1025B0002846FEF7B8FB600701D5002200E00122A3
:1025C00010212846FEF7AFFB514E200701D500220F
:1025D00000E0012280213046FEF7A5FBE00601D590
:1025E000002200E0012280212846FEF79CFBA00685
:1025F00001D5002200E0012240213046FEF793FB86
:10260000600601D5002200E0012201213046FEF7DC
:102610008AFB70BD70B504463E493D4BC00701D0F2
:10262000012200E000221846FEF77DFB3A49374DB3
:10263000A00701D5012200E000222846FEF773FB27
:10264000600701D5012200E0002240212846FEF764
:102650006AFB200701D5012200E00022082128465C
:10266000FEF761FBE00601D5012200E00022042113
:102670002846FEF758FB294DA00601D5012200E0AF
:10268000002208212846FEF74EFB600601D50122F4
:1026900000E0002208212846FEF745FB200601D570
:1026A000012200E0002208212846FEF73CFBE0055D
:1026B00001D5012200E0002208212846FEF733FB65
:1026C00070BD70B5164D104928782C46095C0C3445
:1026D00021700C4940001239085A60600020FFF751
:1026E00055FF6068FFF796FF2078FFF74FFF60689F
:1026F000FFF790FF2878411C2970082801D300209B
:10270000287070BD16550008E8000020000400483D
:102710000000004800800000000100000014004894
:10272000240000201CB501214804FEF7A4FD01216E
:102730008804FEF7A0FD0121C804FEF79CFD0121DD
:102740008805FEF798FD00206946087148719F488A
:102750008188009100686946FEF781FA9B48403005
:102760008188009100686946FEF779FA97486030E1
:102770008188009100686946FEF771FA934820301D
:102780008188009100686946FEF769FA1CBDF0B4C3
:1027900009228E49D206012040020A6088800D235A
:1027A0008B71002048810861C87116240C771F25A1
:1027B0000D721E278F610C264E6120310127FF020A
:1027C0000A608F808B7148810861C8710C770D7227
:1027D00078278F614E6120310127BF020A608F8008
:1027E0008B7148810861C8710C770D7278278F61F1
:1027F0004E6120310A60012212038A808B71488168
:102800000861C8710C770D728F614E61F0BC89E769
:1028100030B581790022212320240D2909D00B29EC
:1028200014D00C2911D184690169A1420DD303721E
:1028300007E085690169A94208D30372C1790029BB
:1028400003D102614189491C418130BD0472F8E71E
:1028500010B5044681880068FEF74FFA217F1629DB
:1028600005D0152902D1012800D0002010BD002874
:10287000FBD1012010BD70B554482030FFF7E8FFB0
:10288000524E012420360025012805D03046FFF79E
:10289000DFFF002805D005E03069401C3061F4718D
:1028A00000E0F5713069002805D048482030FFF776
:1028B000CFFF002809D0B1693069884209D943485F
:1028C0002030FFF7C5FF012803D140482030FFF733
:1028D0009FFF3E48FFF7BCFF3C4E012805D0304625
:1028E000FFF7B6FF002805D005E03069401C3061D5
:1028F000F47100E0F5713069002804D03348FFF727
:10290000A7FF002808D0B1693069884207D92F484D
:10291000FFF79EFF012802D12C48FFF779FF2B48D3
:102920004030FFF795FF294E4036012805D030464C
:10293000FFF78EFF002805D005E03069401C3061AC
:10294000F47100E0F5713069002805D01F4840306F
:10295000FFF77EFF002809D0B1693069884209D9A4
:102960001A484030FFF774FF012803D11748403060
:10297000FFF74EFF15486030FFF76AFF134E6036D1
:10298000012805D03046FFF763FF002805D005E099
:102990003069401C3061F47100E0F5713069002845
:1029A00005D00A486030FFF753FF002809D0B1690D
:1029B0003069884209D905486030FFF749FF01288E
:1029C00003D102486030FFF723FF70BDF400002000
:1029D00070477047F8B5F84E002470783546C10648
:1029E0000C352746002904DAEF2108407070FFF704
:1029F000DBFAA5E020202870F048C079002803D138
:102A0000EF48C079002807D07078EF210840707037
:102A10000220285E002108E07078C10607D5EF216A
:102A2000084070700220285E0121FFF7D2FAE349C6
:102A30000A20085EF279904202D00A7A202A03D056
:102A4000C879012807D009E0F0714F816888401CDF
:102A50006880012404E0087A21280ED02020087222
:102A6000D7480A21415EF279914202D0017A2029A9
:102A700021D0C179012924D026E04F810869FF21A6
:102A8000913188420AD20A2110E0B0680128E7D1CA
:102A90006888401C68800124B760E1E70146FF397F
:102AA000FF22923990329142EFD2052101F060FF6E
:102AB0000029EAD0D4E747816888401E6880012455
:102AC00004E0017A212908D0202101720220285E29
:102AD000BC4988421FDB698020E047810069FF21F3
:102AE000913188420AD20A2110E0B0680128EDD164
:102AF0006888401E68800124B760E7E70146FF3917
:102B0000FF22923990329142EFD2052101F030FF3D
:102B10000029EAD0DAE7002800DC6F807078C1066F
:102B20000ED5012C0CD1EF210840707000242978BB
:102B3000A54800F04BFA0221695EA44800F046FA6D
:102B4000A348017A202903D14089042800D151E704
:102B5000F8BD10B598494878C20604D5EF22104058
:102B60004870FFF70CFA94491F200C31087010BD13
:102B7000F8B5924E0024924F954D2BE0FFF7E9FFF8
:102B80008D490A20305E8A7990420BD0327A202A11
:102B900008D188717481C878401C40B2C87003287D
:102BA00000DDCC700A20385E8A7990420BD0387AEA
:102BB000202808D17C81C878401E40B2C870002807
:102BC00001DA0320C8700A20285E042802DB0520F1
:102BD00068812BE07848C0780028CFD026E0FFF746
:102BE000F9FE75490A20305E8A7990420AD0307A1F
:102BF000202807D17481C878401C40B2C8700328CF
:102C000000DDCC700A20385E90420BD0387A202844
:102C100008D17C81C878401E40B2C870002801DA13
:102C20000320C8700A20285E052803DA6248C078AD
:102C30000128D4D0604903228A56022A46D10A23A9
:102C4000F35E8879834209D0337A202B06D1521C57
:102C500052B27481CA70032A00DDCC700A22BA5EB7
:102C600082420BD0387A202808D17C81C878401E57
:102C700040B2C870002801DA0320C8700A20285E1C
:102C80000528D8DB22E00A23F35E8879834209D045
:102C9000337A202B06D1521C52B27481CA70032A97
:102CA00000DDCC700A22BA5E82420BD0387A20282E
:102CB00008D17C81C878401E40B2C870002801DA73
:102CC0000320C8700A20285E052803DA03228A56EA
:102CD000032AD8D0F8BDF8B5374D00242857FFF7A0
:102CE00035F936490A20085E6A79FF2791370026B0
:102CF000904202D00A7A202A03D0C879012803D052
:102D000005E068714E811BE0087A21280ED0202052
:102D100008722B480A21415E6A79914202D0017AF9
:102D200020291FD0C17901291ED020E04E810869D9
:102D3000B8420AD20A2110E0A8680128E9D1AE60A1
:102D40002878401C28700124E3E70146FF39FF2260
:102D5000923990329142EFD2052101F009FE00290B
:102D6000EAD0D6E7468115E0017A212908D0202152
:102D700001720020285600282CDA032028702CE04D
:102D800046810069B8420AD20A2110E0A8680128E9
:102D9000EFD1AE602878401E28700124E9E7014693
:102DA000FF39FF22923990329142EFD2052101F092
:102DB000DFFD0029EAD0DCE74000002034010020DC
:102DC000540100200F27000000590008005D000892
:102DD00014010020032800DD2E706878C10604D598
:102DE000002C02D0EF2108406870F8BDF8B54948C2
:102DF000494FC079012802D1F879012875D0474898
:102E0000C07901287FD046480126C079454D012868
:102E100079D06EE0002442487C814481FFF75BFF5B
:102E200078890128FAD01DE0A878FFF775F83C49A9
:102E30000A20085E2A79904202D0087A202808D019
:102E400034480A21415E91420CD0017A202909D1EF
:102E50000FE04C810EE0AE7000E0AC70A978324813
:102E600000F0B4F878890228DED080B2032805D0BB
:102E70001DE04481A8780028EFD1ECE7387A2028BB
:102E800037D128480C3000781F2806D0202806D0DB
:102E9000212806D0222806D007E0EC7005E0EE706D
:102EA00003E0022000E00320E870FFF761FE387ABB
:102EB00020281ED178890328F7D017E0FFF723FBDD
:102EC000387A202815D10A20385E06280EDB7C814E
:102ED000FC71144C15480C34217800F077F802216D
:102EE000615E134800F072F803E00CE07889052871
:102EF000E4D0F879012803D1B9693869884289D2C8
:102F0000387A212886D0F8BD7047704770477047DF
:102F1000704700005401002014010020F40000203C
:102F20003401002040000020006D00080059000816
:102F3000005D000810B50446FDF706FC3520FDF7DE
:102F400059FE2046FDF731FC3520FDF753FEFDF715
:102F500004FC10BD70B50C460546FDF7F5FB3520A9
:102F6000FDF748FE21462846FDF751FC3520FDF7C8
:102F700041FEFDF7F2FB70BD10B52848FFF7DAFF00
:102F80002748FFF7D7FF2748FFF7D4FF2648FFF76A
:102F9000D1FF264C2046FFF7CDFF2548FFF7CAFF9B
:102FA0002448FFF7C7FF2448FFF7C4FF2348FFF773
:102FB000C1FF2046FFF7BEFF2046FFF7BBFF2046BC
:102FC000FFF7B8FF2046FFF7B5FF10BDF3B5044685
:102FD0000646006881B01A4D0127BF02286008E04C
:102FE000241DA01BB84202D93046FFF7A3FF20687A
:102FF0002860401CF4D120460299FFF7ABFFFEBDCC
:10300000026801460E4B1A60521C03D00146001D97
:103010000268F8E708681860704700000059000867
:10302000005D00080061000800650008006D0008F0
:1030300000690008007100080075000800790008A8
:1030400054000020F8B56248006801F073FF614940
:10305000002509780127604E604C002926D0604980
:10306000604A0978604B002902D0012905D00BE0A5
:1030700001B25E480180558103E001B25C480180E5
:1030800057811846FFF7A2FF09200821C006FDF767
:1030900034FE024609200821C006FDF744FEE1681F
:1030A000A068544A884216DC106015E0E168A06808
:1030B0004018C10F081840106060142802DC14206A
:1030C000606003E04C49884200DB6160A08801B287
:1030D00031804A48D6E71160A08830804848677040
:1030E0004581C5711F21017246481168FFF76EFFC7
:1030F000F8BD10B544480178002907D000210170BF
:103100003348006801F016FF3449C86010BD10B59F
:103110003D480178002907D0002101702C48006843
:1031200001F008FF2D49886010BDF8B5344C00252A
:10313000E079012849D12B48284EC079012845D093
:103140003FE001203070304809270570FF06082154
:103150003846FDF7D2FD024608213846FDF7E3FD6B
:10316000FFF7D5FF1A4F386801F00AFF0146022029
:10317000FFF7E5F860890128F5D00A20205E0228D3
:103180001CDBFFF7B6FFFFF75DFF13480022825EEE
:1031900000210220FFF733F91C49012008706089E3
:1031A000A08165811F201A4920724D81087219493A
:1031B0004D8108720B49087275703570E0790128ED
:1031C00003D1A16920698842BBD26581F8BD0000A6
:1031D000B8000020420000208A0000205800002093
:1031E0007500002014010020006D000882000020FE
:1031F00084000020CC000020FF0F000000650008C4
:10320000F4000020007900087700002076000020FC
:10321000340100205401002070B501218D0728469B
:10322000FEF758FC00283DD02D4C2068401C206043
:103230002C494868401C48602068C00711D12A48C2
:103240000078002803D029480188491C01802848BB
:103250000078002803D027490888401C0880FFF721
:1032600030FA0621206801F083FB0126002903D1F2
:10327000FFF701FB204806602068FF21F5318842F6
:103280000CD300F0A1F81D481022017871400170A4
:103290001B4801781143017000202060012128465D
:1032A000FEF724FC70BD10B5164C01212046FEF738
:1032B00011FC002803D001212046FEF717FC10BDA9
:1032C00010B5114C01212046FEF704FC002803D064
:1032D00001212046FEF70AFC10BD00F033FFFCE799
:1032E000680000204C0000207100002086000020B3
:1032F0007200002088000020480000206C000020A0
:1033000041000020002C01400004004030B50023A3
:1033100005E09D004D59046864195B1C04609342EC
:10332000F7DB30BD70B50B460446002103E08D008D
:103330005D592818491C9142F9DB01F019FB206006
:1033400070BD70B5F94CA0782546683500283AD193
:10335000286801F051FEE16C02F034F804D2E06C10
:1033600001F0E8FD286022E0686801F045FEE16CAC
:1033700002F028F804D2E06C01F0DCFD686016E091
:10338000A86801F039FEE16C02F01CF804D2E06C90
:1033900001F0D0FDA8600AE0E86801F02DFEE16CC4
:1033A00002F010F803D2E06C01F0C4FDE86003CD38
:1033B000401806CD89184018C117890F08188010C9
:1033C000A0650020E06570BD10B5D84C206D01F0FF
:1033D000B1FDA06310BDD548017A012906D01A219C
:1033E000415E502902DB0021417141837047F8B5ED
:1033F000CE4C207A012869D0E078A178884201D1AA
:10340000012100E00021CA4D21712B7809200027FD
:10341000C0061F2B0ED02E460225755F7268C34E64
:10342000766B7543202B13D0C14E212B1DD0222B40
:103430002AD049E0002905D001220821FDF773FCBC
:103440006F603FE000220821FDF76DFC6F603BE0FC
:10345000002906D001220821FDF765FCB448476029
:1034600032E0AA4230D9002204E0002906D0AA4264
:103470002AD901220821FDF756FC23E00022082169
:10348000FDF751FC77601FE0637B0E461E4302D0C0
:10349000002909D106E0A64900224F600821FDF766
:1034A00042FC11E0012B0FD1AA4206D201220821D1
:1034B000FDF739FC0120607306E000220821FDF7CA
:1034C00032FC67730120A07320796070F8BDFEB5EF
:1034D0000220FDF701F900282DD096480021415E19
:1034E0009548924D401A6864A96C0818A864698DC3
:1034F000491C09B2698504291ADBC117890F002408
:1035000008186C85801001F077FDAC64E864686E83
:103510000126401C6866287B01280DD0FFF711FFAB
:103520007D21686EC900884202D32E73286E2885DB
:103530000220FDF7DFF8FEBD8048007801281ED08C
:10354000A87A00281BD0FFF7FCFEA96D286E401A50
:1035500000B24B21C9002885884202DA49428842DC
:1035600000DC29852820285E01F046FDE96C01F089
:1035700055FF734F2865B84203DB2F6506E02C85A5
:10358000F0E70121C905884200DA2C65688C401CEF
:1035900068842620285E01F02FFD296D01F0E8FEE9
:1035A00003D8286D01F0C6FCE8842420285E01F0D1
:1035B00023FD296D01F006FF03D8286D01F0BAFC48
:1035C000A8842220285E062807DD6C84E88CA98C5C
:1035D000401A2884EC845848A88458480078012868
:1035E00002D0002866D096E018202021285E695E6F
:1035F0004018801C01F000FD296D01F0B9FE0BD8C8
:1036000016202021285E695E401A801E01F0F4FC1D
:10361000296D01F0D7FE59D9286DFF21C905029007
:10362000C84221D22020285E01F01FFC0222D24392
:1036300001F026FC009001911820285EC117490E68
:103640000918C911401A143801F00FFC019B009AA7
:1036500001F0C7FB00900191029801F041FC019B31
:10366000009A01F0D9FD55D92020285E01F0FDFB1C
:103670000222D24301F004FC009001911620285E42
:10368000C117490E0918C9110818143001F0EDFBD3
:10369000019B009A01F098FB01910090286D01F0C8
:1036A0001FFC019B009A01F0E9FD34D8286DB84257
:1036B00030DD30E01E202021285E695E4018801C2D
:1036C00001F09AFC296D01F053FE01D8AE7022E0A2
:1036D0002020285E01F0C9FB0222D24301F0D0FB7A
:1036E00007461E200091285EC117490E0918C9110E
:1036F000401A001F01F0B9FB3A46009B01F071FB34
:1037000007460091286D01F0EBFB3A46009B01F063
:1037100083FD00D8AC70EE72FFF769FEFFF75BFE29
:1037200069792879FEF7D3FE02E700006C000020DB
:103730004C000020E4000020FF0F000042000020A9
:10374000003C1C4600216422504300E0491C884292
:10375000FCD87047F8B57D21FA4CC900FA48E183DE
:1037600033220270F94F1F263E700A207880F84AF3
:10377000642010800420A0820120E070E1824910C2
:103780002183F44900250D70F3490870F34908704E
:10379000206EE5656565A06525853146F048FFF733
:1037A00015FC3220FFF7CEFF0221795EED48FFF7CE
:1037B0000DFC3220FFF7C6FF1E21615EEA48FFF7CD
:1037C00005FC3220FFF7BEFFE84FE16B3846FFF7FC
:1037D000FDFB3220FFF7B6FFDB480178E448FFF736
:1037E000F5FB3220FFF7AEFFE178E248FFF7EEFB92
:1037F0003220FFF7A7FFA18ADF48FFF7E7FB32205F
:10380000FFF7A0FFDD48216EFFF7E0FB3220FFF756
:1038100099FF3220FFF796FFCE4801783846FFF730
:10382000D5FB3220FFF78EFF1621615E3846FFF789
:10383000CDFB3220FFF786FF1821615E3846FFF787
:10384000C5FB3220FFF77EFFC44841573846FFF7DB
:10385000BDFBCB48067205614581CA4806724581A9
:10386000F8BDF8B5C64C207A212839D1C648C749D9
:10387000C3791F27CA790026002B04D10D7A212D88
:1038800001D1012A04D0BF4D2D7A212D29D02EE05F
:10389000AD4D2A78332A0ED033222A70002262815D
:1038A0000E460120FEF7EAF9A6490120C871207AE8
:1038B000212802D00BE03422EFE7B348C07900287A
:1038C00005D1307A212802D1F0790128E9D0297870
:1038D000A748FFF77BFB2772002060817081377259
:1038E000F8BDA84DED79012D01D1002B11D0012B90
:1038F000F6D1037A212BF3D1002AF1D1914A254642
:10390000044616640320FEF7B9F9287A21282AD044
:1039100033E00D46002AE3D1FEF7D9F90FE0FFF7B7
:103920002BFB02E00220FEF7A9F99548FEF790FF75
:10393000012804D19348FEF78BFF0128F2D090486C
:10394000FEF786FF012804D18E48FEF781FF01288B
:10395000E5D0FFF7FFFE668127726E818A482F72DD
:10396000468107720EE0E079012806D1207A2128ED
:1039700003D18648C0790028C4D02F722E616E8191
:10398000668127727D20C000FFF7DCFEF8BDF8B528
:103990006C4CE078FEF775FA7B490A20085E627C81
:1039A0000126744F002590420CD00A7A202A09D1B2
:1039B00060744D81E078002817D0E570E1783846D2
:1039C000FFF704FB71480A21415E627C91420BD0F3
:1039D000017A202908D14581E078002807D0E570D8
:1039E000E1783846FFF7F2FAF8BDE670E6E7E670F0
:1039F000F6E7F8B5534C1E21208F615E02B22078A5
:103A0000FEF77CF95E48E179C0790026084300287A
:103A100069D14D480078332865D11E27E75FA78517
:103A200059490A200097085EE17B594D884203D02E
:103A300055490A7A202A04D05348C179012904D073
:103A400006E0E0734E817F1C3AE0017A21290ED016
:103A5000202101724D4F0A20385EE17B884202D05E
:103A6000387A20282ED0F87901282FD031E04681ED
:103A70000069FF21913188420BD80A2100F078FFBC
:103A80000029E7D128680128E4D17F1CE7832E6054
:103A9000E0E70146FF39FF229239903291420AD87D
:103AA000052100F065FF0029D4D128680128D1D173
:103AB000BF1C2E6004E028680128CBD17F1D2E603A
:103AC000E783C7E77E81E08B401E38E0387A212803
:103AD0000AD0202038721E21615E0098884260D092
:103AE000F879002856D05CE07E81FF213869913159
:103AF00088420AD20A2100F03BFF0029EBD1286856
:103B00000128E8D1E08B401E10E00146FF39FF227A
:103B10009239903291420CD2052100F029FF002900
:103B2000D9D128680128D6D1E08B801EE0832E6091
:103B3000D1E728680128CED12E60E08B401FE083BA
:103B4000C9E700006C000020380000204C00002075
:103B50003A000020420000203C0000203D000020F0
:103B600000590008005D000800650008006D0008AD
:103B7000006900080071000800750008007900085D
:103B800014010020F4000020340100205401002022
:103B900048000020FB48C079002802D1FA48FFF70E
:103BA00015FA1E20205EF949884201DBE183F8BD49
:103BB0000028FCDCE683F8BDF0B5F548F449437A0B
:103BC000F448CA79C0798BB01043F34C0390207845
:103BD000EC4A01900A20105E0090C0B20A90088F53
:103BE000EE4E05B21046C07909901046026934685D
:103BF0001046FF389238EA4F08900A20385E079046
:103C00003846C0790690384600690746FF3F923F24
:103C100002970F780497DB4F097C3F7A002BBC4654
:103C2000DF4F3F7A05971CD0012B7DD1039B002BE2
:103C30007AD1019B332B77D1D54F1823FB5E0193AB
:103C40003B86019B009F5B1C1BB200938F4203D0FD
:103C5000CC4B6746202F68D0099BCA4F012B74D0EC
:103C6000E6E0039B002B5FD1019B332B5CD1C84F57
:103C70001623FB5E0393FB85039B009F5B1C1BB21B
:103C800000938F4203D0BF4B6746202F04D0099B7F
:103C9000BC4F012B0FD012E0BD4C0A9820740020BD
:103CA00058810098B949E082884200DBE182162100
:103CB0002A46615E4AE03B466746212F10D0B44A4F
:103CC000079BD28AB64F521E12B200928B4202D08C
:103CD000059920293CD0069A3946012A44D046E06D
:103CE0000027FF2091305F8182420BD80A211046C5
:103CF00000F03EFE002920D1012C1ED13760A449DE
:103D0000009819E0FF200899903081420ED80521D3
:103D1000104600F02DFE00290FD1012C0DD1376087
:103D200003989B49801C07E06DE06EE0012C04D1F4
:103D3000376003989649401DC88295481622825ED6
:103D400092498A4250DBC1824EE06DE0012013E0CF
:103D5000002179818E4B0098D882002800DCD9821E
:103D600016212A46595EF1E7059A212A0CD0202017
:103D700038722A4603990498FDF7FBFF84482E22E7
:103D80001621825E415EB4E000274F81FF21913110
:103D900088420BD20A2100F0EBFD00291ED1012C34
:103DA0001CD17B4837600099C18217E0FF2202993D
:103DB000903291420BD2052100F0DAFD00290DD19D
:103DC000012C0BD1376003987149801E05E0012C4E
:103DD00004D1376003986E49401FC8826C48162191
:103DE000415E002900DCC78216212A46415EADE70C
:103DF0006B48C079002806D16248C079002802D1FA
:103E00006848FFF7E3F80BB0F0BD614C0A982074E6
:103E10000020588100985D492083884200DB21837F
:103E200018212A46615E47E03B466746212F10D0A5
:103E3000574A079B128B5A4F521E12B200928B4266
:103E400002D00599202939D0069A3946012A41D055
:103E500043E00027FF2091305F8182420BD80A2186
:103E6000104600F085FD00291ED1012C1CD13760C1
:103E70004749009817E0FF200899903081420CD8FC
:103E80000521104600F074FD00290DD1012C0BD145
:103E9000376001983E49801C05E0012C04D1376051
:103EA00001983B49401D088339481822825E3749F2
:103EB0008A4252DB018350E0012013E00021798126
:103EC000334B00981883002800DC198318212A46F8
:103ED000595EF1E7059A212A0FD0202038722A4630
:103EE00001990498FDF789FF294830221821825E44
:103EF000415E8A4200D07BE785E700274F81FF21A2
:103F0000913188420AD20A2100F032FD00291ED1E7
:103F1000012C1CD137601E48009917E0FF2202993E
:103F2000903291420CD2052100F022FD00290ED1E1
:103F3000012C0CD1376001981549801E088306E0DA
:103F4000012C04D1376001991148491F01831048A1
:103F50001821415E002900DC078318212A46415EB2
:103F6000AAE710B51048002300781049084A002835
:103F70001ED0C856002801D0D0740B70FFF71CFE6D
:103F800010BD000034010020006500080F2700006C
:103F90006C000020140100203800002048000020A0
:103FA00054010020006D0008420000203D00002068
:103FB000D07C002802D0D37401200870FFF719FDCF
:103FC000DEE7F8B5C14EC24FC249F379F879CA7934
:103FD000012B07D101286ED0BF49C97901296AD0C8
:103FE000012A68D0BD4CBE4D2178332943D1B74B4F
:103FF0000A211C7ABB4B715E1B78002902D0202C51
:1040000005D046E000226A72202C12D041E001293E
:1040100002D0022906D00EE000283AD1002A38D179
:10402000012011E0002834D1002A09D10220687251
:1040300006E0022902D0032908D02AE0002828D16E
:10404000002B26D100207081687222E0002820D148
:10405000012BF7D01DE0307A212809D19D49C8797C
:10406000002805D1387A212802D1F879012823D0F7
:104070000120FDF703FEF0790128ECD09648C079C5
:104080000128E8D0F8790128E5D09248C0790128C4
:10409000E1D09449687A097802460A4334D001286D
:1040A00003D8012930D0012831D0022803D10129B9
:1040B00001D1FFF76CFCF8BD207833280CD03320F9
:1040C00020700020E871002070810120FDF7D6FDEE
:1040D000307A212803D00CE034202070F3E77D48AB
:1040E000C079002805D1387A212802D1F879012831
:1040F000EBD021787C48FEF769FF1F213172002048
:10410000708178813972B6E7FFF72BFFF8BD00297F
:10411000CFD0F8BD714E724C724DFFF752FFFFF7D2
:10412000A0FB30783328F8D1617A28780A46024318
:1041300003D0012903D8012801D1FEF7F6FFFEF7CD
:1041400055FEEAE700F0F1FBFFF7E4FF10B5644825
:10415000006C00B2FDF7A2FE5D49002048815D4978
:1041600048810DE7F8B55E4D0021A88A00B2FEF740
:10417000E5F858490A20085EAA7CAC8A0026202768
:10418000904202D00A7A202A03D0C879012803D0AD
:1041900005E0A8744E8118E0087A21280DD00F722E
:1041A0004B480A21415EAA7C914202D0017A202923
:1041B0001BD0C17901291AD01CE04E810869FF216A
:1041C0009131884204D20A210AE0641CAC82E7E7FC
:1041D0000146FF39FF22923990329142F5D20521F2
:1041E00000F0C6FB0029F0D0DAE7468112E0017A40
:1041F000212907D00772A88AFF21F53188421AD3F6
:10420000A982F8BD46810069FF219131884205D21B
:104210000A210BE0A88A401EA882ECE70146FF397C
:10422000FF22923990329142F4D2052100F0A0FB96
:104230000029EFD0DFE70428E3D80420A882F8BDE6
:1042400090E72748017A012906D01C21415EA02968
:1042500002DB0021817181837047704770B523486C
:10426000FEF7CEFE224C20702248FEF7C9FE608089
:104270002148FEF7C5FE1A4C204DE0832846FEF784
:10428000BFFEE0631848FEF7BBFE144908701C48E7
:10429000FEF7B6FEE0701B48FEF7B2FEA0821A4899
:1042A000FEF7AEFE20662846FEF7AAFE0D4908700E
:1042B0002846FEF7A5FEE0822846FEF7A1FE2083F1
:1042C0002846FEF79DFE1149087070BD14010020BC
:1042D0005401002034010020F400002038000020A8
:1042E0006C0000204200002000690008005900080E
:1042F0004C000020005D000800650008006D00080B
:104300000071000800750008007900083D000020D9
:1043100010B50521C9040020FCF734FE0120FCF78C
:104320003DFEFE48FCF786FE1920FCF7ACFD002898
:10433000FAD00220FCF763FEFCF768FE0828FBD1E8
:1043400010BDFEB501214804FCF795FF012188044A
:10435000FCF791FF0121C804FCF78DFF01218805BE
:10436000FCF789FF6846FCF7B2FC012569460D7130
:104370000020887148710824E9480094FCF76FFC1C
:1043800040266946E6480096FCF769FC67016946E5
:10439000E3480097FCF763FC20030090092069467E
:1043A000C006FCF75CFC042000906946DC48FCF782
:1043B00056FC6946DB480094FCF751FC6946D94835
:1043C0000094FCF74CFC6946D6480094FCF747FC87
:1043D0006946D4480094FCF742FC202000906946CE
:1043E000CF48FCF73CFC6946CD480095FCF737FC0C
:1043F000102000906946CA48FCF731FC802409204F
:104400006946C0060094FCF72AFC6946C44800943B
:10441000FCF725FC09206946C0060096FCF71FFC46
:1044200009206946C0060095FCF719FC0920002206
:104430002102C006FCF777FC00223946B848FCF799
:1044400072FC00224021B648FCF76DFC00220821D6
:10445000B348FCF768FC00220421B148FCF763FC78
:1044600000220821AF48FCF75EFC00220821AD487D
:10447000FCF759FC00220821AA48FCF754FC002252
:104480000821A848FCF74FFC00222021A448FCF793
:104490004AFC00220121A248FCF745FC0022102121
:1044A0009F48FCF740FC092000228021C006FCF751
:1044B0003AFC002280219A48FCF735FC09200022B2
:1044C0004021C006FCF72FFC092000220121C00674
:1044D000FCF729FCFEBD1CB501214804FCF7CBFE0E
:1044E00001218804FCF7C7FE0121C804FCF7C3FEC4
:1044F00001218805FCF7BFFE6846FCF7E8FB0120B8
:104500006A461071002191715171D071082000909C
:1045100009206946C006FCF7A2FB0220009069460C
:104520008048FCF79CFB1CBD1CB501218804FCF7EE
:10453000A2FE022069460090087103204871012004
:10454000774CC8712046FCF78AFB012211462046B1
:10455000FCF7F1FB1CBD10B586B060206A461080E8
:10456000012050800020908090810821D181490154
:10457000118250821F206C4C029069462046FDF744
:104580006DF808212046FDF720F906B010BD1FB5D3
:1045900001210220FCF781FE10206A4610730A20D8
:1045A00050730120907303A8FCF704FC5E4C204676
:1045B000FCF7B4FE6846FCF733FF00216A46118120
:1045C00051801F2001900B2010809172FFF7ACFFEB
:1045D000FFF7C1FF00212046FDF7A5FA0021204684
:1045E000FDF7A7FA06212046FDF703FB2021204610
:1045F000FDF7F7FA69462046FCF7E6FE0122114670
:104600002046FDF753FA01212046FCF735FF012132
:104610002046FCF74AFF1FBD1CB501214804FCF7EA
:104620002AFE20200090022069460871002048716F
:1046300001200924C871E4062046FCF710FB022281
:1046400005212046FCF777FB1CBD10B586B0602025
:104650006A461080012050800020908090810821BF
:10466000D1814901118250820A2044070290694693
:104670002046FCF74AFF08212046FDF793F884E71F
:104680001FB501210846FCF708FE08206A46507352
:104690000F2010730120907303A8FCF78BFB0124FB
:1046A000A4072046FCF73AFE00216A46118151809A
:1046B0002F2001907D20C00010809172FFF7ACFF89
:1046C000FFF7C3FF012211462046FDF7EFF9202135
:1046D0002046FDF786FA69462046FCF775FE012163
:1046E0002046FCF7C9FE01212046FCF7DEFE1FBD77
:1046F0001CB501214804FCF7BEFDFF2001300090ED
:10470000022069460871002048710924C871E40636
:104710002046FCF7A4FA0222082107E0004000012D
:104720000004004800140048000400402046FCF744
:1047300002FB1CBD70B501218AB0C802FCF7A4FDC4
:10474000FFF7D6FF0125684645700D210170857081
:10475000FCF730FB032168460183002444830220D8
:10476000079008A87B4E847006A93046FCF72CFE03
:10477000602168468180C5800481048208214182CD
:1047800049018182C48201A930460395FCF7BDFE30
:1047900008213046FDF706F801213046FCF7A9FE56
:1047A00001213046FCF768FE20213046FDF719FA5A
:1047B00080213046FDF725FA01213046FDF796F9B4
:1047C00001213046FCF771FE0AB070BD1CB5012115
:1047D0004804FCF750FD042000900320694608714E
:1047E0000020887148710120C8710920C006FCF7BB
:1047F00036FA1CBD70B501218CB00846FCF73BFDB4
:1048000009206946087000244C7001258D706846A7
:10481000FCF7D0FA504E3046FBF79EFE4F48019011
:104820004F4802A931C180200690400007908000C7
:10483000089020200990059400020A9001A90B9489
:104840003046FBF7E3FE0220FBF73DFF0220FBF7BB
:1048500051FF012202213046FBF71FFF01213046A4
:10486000FBF7FDFE0CB070BD30B5012187B04802EA
:10487000FCF70AFD0C206946087600244C760120DE
:10488000887606A8FCF796FA69460C7100940494A1
:10489000039405940120314CC0020290403C204614
:1048A000FBF754FD01212046FBF7EBFD002204211C
:1048B0002046FBF7CDFD2046FBF7EDFD012120460C
:1048C000FBF75FFD274D20462946FBF722FE002817
:1048D000F9D001212046FBF702FE02212046FBF71A
:1048E00008FE2046FBF7F3FD07B030BD10B5FFF71B
:1048F0006DFFFFF77FFFFFF7B7FF10BD10B55D201D
:10490000FCF7C1FA002801D0FCF7F4FC1648FCF7CC
:104910002FFA0420FCF72FFA7D200001FCF72EFA75
:10492000FCF72FFAFCF734FA10BD10B5FFF7F0FCD6
:10493000FFF700FFFFF7A4FEFFF729FEFFF7D6FF02
:104940000A48FCF7BBFBFFF7C6FDFFF7FAFCFDF7D3
:104950001EFF10BD002C0140080002404024014011
:10496000E400002001000001555500007401002002
:10497000002203098B422CD3030A8B4211D300235C
:104980009C464EE003460B433CD4002243088B4236
:1049900031D303098B421CD3030A8B4201D39446C3
:1049A0003FE0C3098B4201D3CB01C01A52418309B6
:1049B0008B4201D38B01C01A524143098B4201D370
:1049C0004B01C01A524103098B4201D30B01C01A9B
:1049D0005241C3088B4201D3CB00C01A5241830815
:1049E0008B4201D38B00C01A524143088B4201D342
:1049F0004B00C01A5241411A00D2014652411046A2
:104A000070475DE0CA0F00D04942031000D3404216
:104A1000534000229C4603098B422DD3030A8B424C
:104A200012D3FC22890112BA030A8B420CD38901EA
:104A300092118B4208D3890192118B4204D38901D0
:104A40003AD0921100E08909C3098B4201D3CB010E
:104A5000C01A524183098B4201D38B01C01A5241C3
:104A600043098B4201D34B01C01A524103098B42C7
:104A700001D30B01C01A5241C3088B4201D3CB00B2
:104A8000C01A524183088B4201D38B00C01A524195
:104A9000D9D243088B4201D34B00C01A5241411A6C
:104AA00000D20146634652415B10104601D340429A
:104AB000002B00D54942704763465B1000D340424B
:104AC00001B50020C046C04602BD70477047704720
:104AD000F0B50C46871A9C410D46861A9D4103D2BB
:104AE000C01BA141D21963410D0D1F0DC94EEC1B16
:104AF000AE435CD07F057F0D0026002F51D02D05E1
:104B0000AC46A943DD020123ED0A1B051D4320230A
:104B10001B1B24D41746E740381871412F46E74045
:104B2000CC199D402818314661410C0D27D16144B4
:104B30009A4013D50023401C594152000ED1400821
:104B4000400001224B005205D34207D30520400705
:104B5000C14201D5B04900E0B0493046F0BD6B001C
:104B6000002A00D001229A181F23203C1B1B01D5CC
:104B7000002302E0E540281871410C0DD7D0012434
:104B800024050919C407CD0740084908E40F284344
:104B90006144002CD5D00024401C61419A40D0D102
:104BA000CDE76A05520DD9D1C90FC907D5E79C4D8C
:104BB0004E00002801D0012400E0002434195F00D9
:104BC000002A01D0012600E00026BE19954FAC4214
:104BD0000CD8AE420AD8B44206D001256D05EC428D
:104BE000BCD010461946F0BD9942FCD00020394691
:104BF000F0BDF0B51FB40C460F46811A9F41254603
:104C0000861A9D4106D20125ED076F40401ABC412E
:104C100052187B41210D1E0D8D1BAC467D4D8D43E1
:104C20007ED075056D0D7CD00D05AE46AC431B03E3
:104C30001B0B794D52429D41202366469B1B14D38A
:104C40001746F740381800260090744160462F46FA
:104C50000741E41900989D402818664116D4714612
:104C600071189A4025D5012320E093182A466A41FD
:104C70005200002B00D0521C1E23203E9B1B002BF9
:104C800061DD3541EE1728186641E8D500187641F8
:104C90005B1C9A4000D3401C4B05F3181524E340DD
:104CA00010D3002B52D071467118D30FC01802D305
:104CB000491C05B0F0BD0123DB079A42F9D1400839
:104CC0004000F6E701225205B21801D1002853D066
:104CD0000123CC0ADB029943891E002A08D1020C69
:104CE00003D0020C0004103902E0024600202039F3
:104CF0000023550B05D112020823550B01D1520197
:104D00000D23550C01D112011B1DD50C01D19200B0
:104D10009B1C150D01D152005B1C2025EE1A01E0F1
:104D20002CE022E00546F54015439840CA1AE107F9
:104D300069181305C918002ABBDA032040070818B0
:104D4000C10FC9070FE071466118B2E7F1074008CB
:104D50000843711071444A000CD001235B059A424C
:104D6000A7D2C90FC9070020A3E74905490D26D1DD
:104D7000002001E00028F4D100219AE7284D6600C8
:104D8000002801D0012100E0002171185F00002AF5
:104D900001D0012600E00026BE19224FA94210D8FA
:104DA000AE420ED8B14208D001256D05E94206D0C9
:104DB0001946A802414010467BE79C4201D021469B
:104DC00077E70020394674E710B50C465C4005D5FE
:104DD0000124E4076340FFF70CFF10BDFFF778FEE6
:104DE00010BD30B40C465C4004D50124E407634098
:104DF00030BC6DE630BCFCE670B50124E4076140D0
:104E00000D465D4002D4FFF763FE70BD6340FFF7BF
:104E1000F0FE70BDFF0700000000F0FF0000F07F13
:104E20000000E0FF0000F87F1F22030C02D10F22D8
:104E3000000402D0030E03D004E0002001467047B6
:104E40000002083A030F01D10001121F830F01D1A4
:104E50008000921E002801DB4000521E12055118EE
:104E60004205C012411810467047C10FC90700D053
:104E70004042012292071143D6E701218907D3E777
:104E800070B505464800440D124B0020002C0AD096
:104E9000634008D09A4206DA6642B24203DD120548
:104EA0004019514170BD002C08D0002B09D0C90F0A
:104EB000C907002AF6DB084A114370BDC90FC907AC
:104EC00070BD28460A03104302D00020034970BD7C
:104ED000284670BDFF0700000000F07F0000F87F4B
:104EE0000121C9050123411842001B06D3185B0E9E
:104EF0000AD0C1100722D206891840075242D14277
:104F000001D5520089187047090208D50146002AC8
:104F100003D0C10FC90700207047104670474202F6
:104F200002D0002002497047072109050143F4E738
:104F30000000F87F10B501469E240002CA15A307A1
:104F4000002A02D01843002A04DBA21A002A0CDD32
:104F5000D04010BD1206120E01D140004008A21A26
:104F600003D4D04040420028F3DDFF22480012065F
:104F7000904201D9002010BDC817C043584010BD51
:104F80000102C21504D00123DB071943002A0ADB02
:104F90009E239A1A02D40846D0407047FF2241004F
:104FA0001206914201D900207047C017C0437047D4
:104FB0001F22030C02D10F2200041CD0030E01D1CA
:104FC0000002083A030F01D10001121F830F01D123
:104FD0008000921E002801DB4000521ED2055118AD
:104FE000021251181922904004D3491C002801D103
:104FF0004908490008467047C10FC90700D0404220
:10500000012292071143D3E701218907D0E700006D
:10501000F8B5224C4E00069DA6420AD8A64201D100
:10502000002806D15E00A64203D8A6420AD1002A73
:1050300008D00D24240425422CD02946002000F05D
:1050400061F8F8BD0C461C430CD4994202D0EFF332
:105050000080F8BD904202D0EFF30080F8BDEFF37E
:105060000080F8BD09242407E5008B4206D0EFF349
:105070000080A043591A06D2284304E0101A05D331
:10508000EFF30080A04380F30088F8BDEFF30080C9
:10509000A043F1E7009500F04DF8F8BD0000E0FFF7
:1050A00010B5FF231B0644009C421DD84C009C42B7
:1050B0001AD80346124A0B4307D4401A02D3EFF31F
:1050C000008010BDEFF3008010BD081A06D2EFF388
:1050D000008001219043C907084302E0EFF30080FC
:1050E000904380F3008810BD0D231B041A4204D0A6
:1050F0001146002000F006F810BD00F025F810BDA4
:1051000000000090CA0211D54A03520F002A04D0B1
:10511000C803C043012188407047054AEFF300816E
:1051200008010009104380F3008870470020704791
:105130000000003010B500200249029A00F031F85A
:1051400010BD00000000F87F10B5024800F029F8FB
:1051500010BD00000000C07F754600F051F8AE465B
:10516000050069465346C008C000854618B020B502
:10517000FBF712F860BC00274908B6460026C0C5F8
:10518000C0C5C0C5C0C5C0C5C0C5C0C5C0C5403DFF
:1051900049008D4670470446C046C0462046FAF78F
:1051A000DAFF10B50C461107090F092904D00A29A6
:1051B0000AD008290CD104E011460820FFF7A2FF0D
:1051C00006E0510606D501E0510601D50120C007D1
:1051D000214610BDD10607D501010909CC084907B0
:1051E000000E0006044309E0410F20024907000AAF
:1051F0000143200E00061D22D14101430846E7E786
:10520000004870479C01002001491820ABBEFEE712
:10521000260002007047000070B501250C002D0526
:105220001C4310D4EC4206D4AC420AD4994200D0BC
:1052300070BD904270BDE94217D4EB4215D499423B
:1052400070BD894270BDEC4206D5AC42F9D58B42A7
:1052500000D070BD824270BD6D004C00EC4204D2A3
:105260005C00EC4201D28B4270BD034C30B4FFF7BE
:10527000CFFE30BC70BD00BF1900160470B501250B
:105280001C002D050C4310D4EC4206D4AC420AD4C9
:105290008B4200D070BD824270BDEB4217D4E94210
:1052A00015D48B4270BD9B4270BDEC4206D5AC421A
:1052B000F9D5994200D070BD904270BD6D005C0080
:1052C000EC4204D24C00EC4201D2994270BD0FB4C2
:1052D000034C0CBC03BC30B4FFF79AFE30BC70BD6D
:1052E0001900160470B501250400ED074C4020D4C8
:1052F000441A01D2001B0919C60D4B00F2B2FF2A55
:1053000029D01B0E2CD000020C02D31A2C43DC40F7
:105310002843051910D2280A02D3401C6D0611D06B
:10532000761EF6058019FF2A00DA70BDC00DC00593
:1053300070BD694000F084F801200543C541521C4E
:10534000761CE8E764089C40C90161408900E7D108
:105350000124A043E4E71B0E440200D0034870BDC3
:10536000002AFCD1C00FC00770BD00BF0000C07F85
:1053700001230200DB050A430DD4DA4203D49A422A
:1053800007D488427047D84214D4D94212D48842F4
:10539000704780427047DA4203D59A42F9D581427C
:1053A00070475B004200DA4204D24A00DA4201D27E
:1053B0008142704710B5024AFFF772FE10BD00BF70
:1053C0000900160401230A00DB0502430DD4DA426A
:1053D00003D49A4207D481427047D94214D4D842A8
:1053E00012D48142704789427047DA4203D59A420B
:1053F000F9D5884270475B004A00DA4204D2420085
:10540000DA4201D2884270474840414010B5024A12
:105410004840FFF745FE10BD0900160470B5012590
:10542000ED07684004004C4002D5694000F008F8E0
:10543000FFF75EFF70B501250400ED074C4022D454
:10544000441A02D26C40001B0919C60D4B00F2B27F
:10545000FF2A4BD01B0E50D000020C02D31A2C4353
:10546000DC40A843051B05D5AD0019D36D08761E99
:10547000521E37D0F605280A01D2801970BD70413E
:105480006D0603D070BD6940FFF732FF9C400902F2
:105490006140490001D0401E70BD0124A04370BD91
:1054A0006D081DD001202B0C01D12D0410302B0EC6
:1054B00001D12D0208302B0F01D12D01001DAB0FA2
:1054C00001D1AD00801CEB0F01D16D00401C6D00BF
:1054D000361A121A680AF5054019012A02DB70BD56
:1054E000002070BDC036300AC00770BD1B0E4402DC
:1054F00001D1FF2B00D1024870BD002AF0D070BD51
:105500000000C07F0100020004000800100020001D
:105510004000800000013F0006005B004F00660075
:105520006D007D0007007F006F0077007C00390070
:105530005E007900710040005C0054001C006D00AA
:1055400078000000380073007100760030005000D1
:10555000010002000400080010002000400080004C
:10556000FF0000003E0000008855000800000020F9
:10557000E80000000401000870560008E800002060
:105580001807000020010008006CDC020000000089
:1055900000000000010203040607080900000000E3
:1055A00001020304010203040607080900010101C6
:1055B00001010101000000000000000000000000E7
:1055C0003300640001010000000000000000000042
:1055D000000000001F000A000000000000000000A2
:1055E00000000000000000000000000000000000BB
:1055F00000000000000100010000000000000100A8
:1056000000000000000000003200E803F401000088
:105610000000E80300000000FF0F00000000000091
:105620000000000000000000080000000000000072
:10563000E80300000000000000000000000000007F
:10564000000000000000000000000000000000005A
:10565000000000000000000000000000001000003A
:10566000001000000010000000100000000000000A
:04000005080000C12E
:00000001FF
