:020000040800F2
:1000000030080020650100088B0100088D01000800
:1000100000000000000000000000000000000000E0
:100020000000000000000000000000008F01000838
:10003000000000000000000091010008930100088A
:100040009501000895010008950100089501000838
:100050009501000895010008950100089501000828
:1000600095010008293E0008950100089501000847
:1000700095010008353A000895010008A3390008E9
:100080004F3A0008950100080000000095010008A3
:1000900095010008950100089501000895010008E8
:1000A00095010008950100089501000895010008D8
:1000B0009501000800000000950100080000000004
:1000C00000F002F800F03EF80CA030C80838241800
:1000D0002D18A246671EAB4654465D46AC4201D180
:1000E00000F030F87E460F3E0FCCB6460126334274
:1000F00000D0FB1AA246AB4633431847EC5D000024
:100100000C5E0000103A02D378C878C1FAD85207C2
:1001100001D330C830C101D504680C6070470000BD
:100120000023002400250026103A01D378C1FBD813
:10013000520700D330C100D50B6070471FB51FBDFB
:1001400010B510BD05F0C6FC1146FFF7F7FF03F030
:1001500034FD05F0DEFC03B4FFF7F2FF03BC05F04D
:1001600013FD00000F4880F308880F480168090E4E
:100170000E4A914205D10E480E4901600E480F49C2
:1001800001600F4880470F480047FEE7FEE7FEE7A3
:10019000FEE7FEE7FEE700000B480C490C4A0D4B5A
:1001A0007047000030080020040000001F0000001D
:1001B0001810024001000000000001400000000093
:1001C000D9010008C10000083002002030080020DA
:1001D000300400203004002010B54E480168012290
:1001E0001143016041684C4A1140416001684B4A2B
:1001F000114001600168012292049143016041684D
:100200003F22120491434160C16A09090901C16298
:10021000016BFF22543291430163416B490849004D
:1002200041630021816000F02EF810BD70B5394D9A
:1002300069680C2001403A483A4C03D0042901D0A7
:10024000082901D0206014E06A68696803239202DB
:10025000DB03160F1940B61C002907D0E96A09070D
:10026000090F491C05F042F87043EBE72E4846435E
:10027000266068682B490006000F091D085C21688C
:10028000C140216070BD1CB5002122480191009140
:10029000026801231B041A4302605B00052212035B
:1002A00004681C400094019C641C0194009C002C78
:1002B00002D1019C9442F3D10268920328D5012116
:1002C00000911A4A11211160416841604168416002
:1002D00041687F22D2039143416041681122120498
:1002E0001143416001680122120611430160016857
:1002F0008901FCD541688908890041604168022272
:100300001143416041680907890F0229FAD11CBDD8
:1003100000911CBD001002400CB8FF08FFFFF6FE64
:1003200000127A000000002000093D000020024079
:10033000864910B5884208D144150121204600F0B5
:10034000BCFF0021204600F0B8FF10BD30B5C368E7
:100350007F4A8C6813400A680D792243CC686D038C
:100360002C4322430C69496922430A431A43C26061
:1003700030BD0021016001718160C1600161416196
:1003800070470029816801D0012200E00222114358
:100390008160704701617047002A026901D00A43F9
:1003A00000E08A43026170470122D2030029C1683C
:1003B00001D0114300E09143C160704701229203D4
:1003C0000029C16801D0114300E09143C16070472A
:1003D0000122D2050029C16801D0114300E09143F8
:1003E000C16070470904114301627047C2681F234E
:1003F0009B069A430A43C260704701229205002976
:10040000C16801D0114300E09143C16070470122EF
:100410005049D2050028886801D0104300E090437D
:100420008860704701224B4992050028886801D0F6
:10043000104300E09043886070470122454912064E
:100440000028886801D0104300E09043886070471E
:10045000836A0B4383624261704701225203002981
:10046000C16801D0114300E09143C160704701228F
:1004700012040029C16801D0114300E09143C1601A
:100480007047012212030029C16801D0114300E026
:100490009143C1607047826800210123DB071A4342
:1004A00082600F231B038268491CD20FD207994236
:1004B00001D0002AF7D18168002901DB006C704768
:1004C0000020704781681022114381607047816865
:1004D0000422114381607047006C80B2704700298C
:1004E000C16802D00122114301E049084900C160FE
:1004F0007047C26802239A43C260C2680A43C2605E
:100500007047002A426801D00A4300E08A434260F3
:10051000704702460020CB0104D5926801231B06D8
:100520009A4300E012680A4200D00120704701603F
:10053000704702465368002012680B400A4202D0FE
:10054000002B00D00120704701607047002401405B
:1005500003D2FFFF00270140F0B50168694A11404E
:1005600001600021016041608160C1606649664BA5
:1005700008390F22984201D1486823E0624CF023E9
:100580001434A04229D0604D1C012835A8422BD03C
:100590005D4E1D023C36B0422DD05B4F1E035037DE
:1005A000B8422FD0584F6437B84204D148681A0473
:1005B00008E04860F0BD544F7837B84204D148682D
:1005C0000F2212061043F4E75049504F0839B84241
:1005D000D2D04E4A1432904202D148681843E8E71C
:1005E0004A4A2832904202D148682043E1E7474A0C
:1005F0003C32904202D148682843DAE7434A5032FD
:100600009042D7D148683043D3E730B50368404AB9
:100610000C6A13408A684D6922430C692C432243BB
:100620008C692243CC6922434C6A22438C6A224360
:100630001A430260CA6842600A6882604968C16001
:1006400030BD0021016041608160C1600161416194
:100650008161C16101624162816270470029016864
:1006600002D00122114301E0264A11400160704787
:1006700010B58030826A0B0F9C000F23A3409A4371
:100680008262826A090109090A43826210BD4160DF
:100690007047406880B27047002A026801D00A4360
:1006A00000E08A430260704701460020CA0002D57C
:1006B000164A083A01E0144A083A12680A4200D081
:1006C00001207047C10002D51049083901E00E49E8
:1006D00008394860704701460020CA0002D50B4A1D
:1006E000083A01E0084A083A12680A4200D001209C
:1006F0007047C10002D50549083901E002490839AF
:1007000048607047FEFF00000800024008040240F5
:100710000F80FFFFFE4A116849084900014311603C
:100720007047FB4910220028086801D0104300E000
:10073000904308607047F64900200968890600D593
:1007400001207047F2480169090603D5F14941606B
:10075000F14941607047EE4801698022114301610F
:100760007047EB490420CA68D20701D001207047C6
:10077000CA68D20601D502207047C9684907FBD56F
:100780000320704700B50346FFF7EBFF02E0FFF7D9
:10079000E8FF5B1E012803D0002B00D1052000BD1F
:1007A000002BF4D1FAE7F0B50B2706463F04384694
:1007B000FFF7E8FF04280FD1D54C20690225284314
:1007C0002061666120694021084320613846FFF7B7
:1007D000D9FF2169A9432161F0BD70B50B252D0416
:1007E0002846FFF7CFFF04280ED1C94C2069042604
:1007F0003043206120694021084320612846FFF7EB
:10080000C1FF2169B143216170BDF8B506460020E2
:100810000B273F0400900D463846FFF7B3FF04282E
:1008200015D1BB4C20690121084320613580384631
:10083000FFF7A8FF042806D1B61C280C00963080CC
:100840003846FFF79FFF2169490849002161F8BD3B
:10085000F0B50B2706463F040D463846FFF792FFDA
:1008600004280CD1AA4C206901210843206135805D
:100870003846FFF787FF2169490849002161F0BD2B
:10088000A3480169890503D4A2498160A249816016
:1008900070479F48016942159143016170479C4828
:1008A00001690122520311430161704798490020F8
:1008B000C9694907890F00D001207047F0B5AA2502
:1008C000FFF7F4FF002800D000250B273F0438462F
:1008D000FFF758FF042813D18D4C206920263043A0
:1008E000206120694021084320613846FFF74AFF14
:1008F0001021042805D0052802D022698A432261EC
:10090000F0BD2069B043206120690E46304320616C
:10091000824805803846FFF735FF0528F0D0216969
:10092000B1432161F0BDF0B5C04301040E0E0102D8
:10093000C7B2040E0B200D0E0004FFF723FF04289E
:1009400031D173490A6910231A430A61FF2F07D076
:10095000724807810B200004FFF714FF04281BD105
:10096000FF2E07D06D4846810B200004FFF70AFFD9
:10097000042811D1FF2D07D0684885810B20000481
:10098000FFF700FF042807D1FF2C07D06348C4817C
:100990000B200004FFF7F6FE052804D05C490B6924
:1009A000102293430B61F0BDF0B50B2607463604C9
:1009B0003046FFF7E7FE04281ED1554C206920255C
:1009C0002843206120694021084320613046FFF719
:1009D000D9FE04280BD12069A84320612069102585
:1009E000284320614D4807803046FFF7CBFE05289D
:1009F00002D02169A9432161F0BDF0B505460B2065
:100A000094460F460004FFF7BDFE042814D1404C65
:100A100020691026304320613D4360460543F8209D
:100A200005433E4845800B200004FFF7ABFE052838
:100A300002D02169B1432161F0BDF0B50B27054615
:100A40003F043846FFF79EFE042810D1304C206941
:100A5000102630432061EF2005433048458038465A
:100A6000FFF790FE052802D02169B1432161F0BD56
:100A7000F0B50B2705463F043846FFF783FE0428F0
:100A800010D1234C2069102630432061F720054304
:100A9000224845803846FFF775FE052802D02169B7
:100AA000B1432161F0BDF0B50B2705463F04384640
:100AB000FFF768FE042810D1154C2069102630433A
:100AC00020617F200543154845803846FFF75AFED0
:100AD000052802D02169B1432161F0BDF0B50B2793
:100AE00005463F043846FFF74DFE042819D1084C4F
:100AF0002069102630432061DF20054307484580E8
:100B00003846FFF73FFE05280BD02169B14307E0C7
:100B10000020024023016745AB89EFCD00F8FF1F9D
:100B20002161F0BDF0B50B2705463F043846FFF7BD
:100B300029FE042810D1304C206910263043206152
:100B4000BF2005432D4845803846FFF71BFE05288A
:100B500002D02169B1432161F0BDF0B50B270646F3
:100B60003F043846FFF70EFE04280ED1224C2069C0
:100B7000102528432061214846803846FFF702FEB1
:100B8000052802D02169A9432161F0BDF0B50746CF
:100B90000B200E460004FFF7F5FD04280ED1164C7D
:100BA00020691025284320613E800B200004FFF7B8
:100BB000E9FD052802D02169A9432161F0BD0E4855
:100BC000C0690004000E70470B48006A70470A4A6B
:100BD0000029116901D0014300E081431161704790
:100BE000054A0146D26800200A4200D00120704721
:100BF0000149C860704700000020024000F8FF1F54
:100C0000092110B5C906884202D101214C0404E033
:100C10005049884209D101210402204600F044FBDA
:100C20000021204600F040FB10BD4B49884202D114
:100C300001210402F1E74949884202D101210C0552
:100C4000EBE74749884202D101214402E5E74549E3
:100C50008842E9D101218C05DFE7F0B500220124AB
:100C600023460D6893401D409D422AD10D79012DE8
:100C700001D0022D12D1876855000326AE40B7433C
:100C800087604E79AE4085682E43866085889D4397
:100C9000858085888B7993401D4385800668550043
:100CA0000323AB409E4306600E790768AE403E4387
:100CB0000660C6689E43C660CB79AB40C5682B43CF
:100CC000C360521C102ACBD3F0BD2749016000211C
:100CD0000171012242718171C1717047012208B511
:100CE00012040A430092C261C1610099C161C169E5
:100CF000C069009008BD0246128A00200A4200D056
:100D000001207047008A70470246928A00200A42FA
:100D100000D001207047808A70478161704701854B
:100D20007047002A01D08161704701857047818238
:100D300070474B07DB0E9A40C90810B589000818A8
:100D4000016A0F249C40A1430162016A11430162C0
:100D500010BD00000004004800080048000C0048D6
:100D60000010004800140048FFFF00000D49086013
:100D700070470C49486070470A49886070470949C4
:100D800009480860704707490861704705490748E6
:100D900008607047034A0146D26800200A4200D02A
:100DA0000120704700300040AAAA0000CCCC00000F
:100DB00030B5837801210278002B15D09408174BA9
:100DC000A400E41823689207D50EFF22AA4093439B
:100DD00042789207120EAA401A4322600078C00699
:100DE000C00E81400E4804E0D006C00E81400C4881
:100DF0008030016030BD0B4A0029116901D00143E8
:100E000000E0814311617047042207490428086902
:100E100002D09043086170471043FBE700E400E014
:100E200000E100E000ED00E000E000E0F8480168CB
:100E30000122114301604168F64A11404160016896
:100E4000F54A11400160016801229204914301605A
:100E500041683F22120491434160C16A09090901B6
:100E6000C162016BED4A11400163416B49084900C1
:100E70004163002181607047E54900228A708870D3
:100E8000704703460020E2495A090CD0012A0CD0D1
:100E9000022A0CD0496BDA06D20E012393400B4292
:100EA00000D0012070470968F5E7096AF3E7496A4D
:100EB000F1E718B500200524240300901120FFF766
:100EC000E0FF0099491C0091A14201D00028F5D013
:100ED0001120FFF7D6FF002800D0012018BDCC4A12
:100EE0001168F8239943C000084310607047C8494F
:100EF0000028086802D00122104301E040084000A9
:100F000008607047C24A516BF8239943C0000843F8
:100F100050637047BE490028486B02D0012210433D
:100F200001E04008400048637047B94904220028A6
:100F3000486B01D0904300E0104348637047B449C8
:100F40000A6A520852000A620A6A04239A430A6231
:100F50000A6A02430A627047AD490A6A18239A4333
:100F60000A620A6A02430A627047A9490028486A6D
:100F700002D00122104301E040084000486270475F
:100F800010B5A34A53687B24E403A343536053681A
:100F900008430343536010BD01229D4912060028F7
:100FA000086801D0104300E09043086070470122B8
:100FB000974912040028486B01D0104300E0904389
:100FC00048637047924AD16A090909010143D16215
:100FD000704701228E49D2040028086801D01043CE
:100FE00000E0904308607047894A53681B021B0A5F
:100FF00000060843184350607047854A51688908C5
:101000008900014351607047814840680C210840C5
:1010100070477F4A5168F0239943014351607047FC
:101020007B4A516807231B02994301435160704773
:1010300077494A6801239B039A434A604A6883B20E
:101040001A434A600A6B8B159A430A630A6B000CB9
:1010500002430A6370476E490A6B40239A430A634E
:101060000A6B02430A63704769490A6B10239A436B
:101070000A630A6B02430A637047020F6449012A3C
:101080000AD0022A0A6B0BD003239B049A430A63FB
:101090000A6B02430A6370470A6B92089200F6E7F4
:1010A00003231B04F2E75A490A6B80239A430A631D
:1010B0000A6B02430A637047F8B5554D04466868E9
:1010C00000210C22564E104005D0042803D00828D9
:1010D00003D00C281AD026601AE0696868680322D9
:1010E0008902D2030F0F1040BF1C00280AD0E86A03
:1010F0000107090F3046491C04F0F8F8784301460F
:10110000216005E0474839464143F9E746482060F9
:101110006868464F0006000F3B5C20680246DA40D4
:1011200062606B685B055B0FFB5CDA40A2602B6B57
:10113000DB0501D43E4B05E06B685B0401D453082A
:1011400000E09308E3602B6B5F063A4B03D4394F02
:101150001237276100E023612F6BFF0601D466611F
:1011600000E060612F6BBF070ED02F6BBF07BF0F72
:10117000012F0BD02F6BBF07BF0F022F08D02F6B93
:10118000FF43BF0706D006E0A26104E0A06102E0D1
:10119000A36100E0A6612F6BBF03BF0F0FD02F6BC1
:1011A000BF03BF0F012F0CD02F6BBF03BF0F022F48
:1011B00009D02F6BBF03BF0F032F06D006E0E261FB
:1011C00004E0E06102E0E36100E0E6612F6B3F03D1
:1011D000BF0F0FD02A6B1203920F012A0CD0286B7D
:1011E0000003800F022809D0286B0003800F03281A
:1011F00006D006E0226204E0206202E0236200E002
:101200002662286B000617D407486062F8BD00000C
:10121000001002400CB8FF08FFFFF6FEACFEF0FF26
:1012200000127A0000093D00006CDC02140000206E
:10123000809FD500008000006162E7E735490A6AB7
:1012400002430A62704701223249D2030028086A29
:1012500001D0104300E090430862704701222D49FD
:1012600012040028086A01D0104300E0904308628D
:101270007047284A0029516901D0014300E08143A9
:1012800051617047234A0029916901D0014300E070
:101290008143916170471F4A0029D16901D0014300
:1012A00000E08143D16170471A4A0029916A01D058
:1012B000014300E0814391627047164A0029D168DA
:1012C00001D0014300E08143D1607047114A0029F9
:1012D000116901D0014300E08143116170470D4A5B
:1012E0000029517A01D0014300E0814351727047D7
:1012F0000848416A01221206114341627047054ABB
:101300000146926800200A4200D00120704701493E
:101310008872704700100240F94910B5884202D126
:101320000121C4143AE001218907884206D1012134
:101330000846FFF7CBFF0021012008E0F149884271
:1013400008D101210220FFF7C1FF00210220FFF791
:10135000BDFF10BDEC49884206D101211020FFF7E6
:10136000B5FF00211020F2E7E849884206D10121AB
:101370002020FFF7ABFF00212020E8E7E449884266
:1013800007D1841501212046FFF7A0FF0021204648
:10139000DDE7E049884209D101210C042046FFF72E
:1013A0008CFF00212046FFF788FF10BDDA498842F4
:1013B00002D101214C04F1E7D8498842F5D101213D
:1013C0008C04EBE710B50288CD4B984206D001247F
:1013D000A407A04202D0CB4CA04203D17024A24368
:1013E0004C882243C84CA04203D0CD4C22400C89EB
:1013F000224302804A68C2620A880285984208D065
:10140000C44A904205D0C44A904202D0C34A904296
:1014100001D1897A01860121818210BD0021C94351
:101420004160002101800181418081727047018506
:1014300082827047028870239A430A430280704771
:1014400041627047C1627047406A7047008D7047C3
:1014500002220029018801D0114300E0914301805C
:10146000704704220029018801D0114300E0914314
:101470000180704780220029018801D0114300E0DB
:10148000914301807047028808239A4302800288B2
:101490000A43028070470288A14B1A4002800288EA
:1014A0000A43028070470029018802D001221143BB
:1014B00001E0490849000180704710B50A884B884F
:1014C000CC881A438B8823431A430B891A434B89D0
:1014D00089891A430A434030828010BD002101806F
:1014E00041808180C180018141818181704740308C
:1014F0000029818803D00122D203114301E049046D
:10150000490C8180704730B5028C52085200028429
:10151000038C8288048B7025AC43A4080D88A4003A
:1015200025430224A3438C891C434B882343744CDA
:10153000A04208D0774CA04205D0774CA04202D000
:10154000764CA0420DD10824A343CC891C4304232C
:101550009C438B882343724C22400C8A14434A8A52
:1015600022438280058389684163038430BD70B55E
:10157000028C10239A430284048C8288038B694D69
:101580002B400D782D062D0C1D4320239C438B8969
:101590001B051E0C4B8826431B051B0C584C334364
:1015A000A04202D05B4EB04219D15F4E32400E8A4B
:1015B000B604360C3243A04211D18024A343CC8917
:1015C0002405240C1C4340239C438B881B051B0CC7
:1015D0002343564C22404C8AA404240C224382808C
:1015E000058389688163038470BD30B5028C504BDC
:1015F0001A400284038C8288848B7025AC43A40833
:101600000D88A40025434B4C23400C7B2406240C5E
:101610001C438B781B061B0C2343394CA04215D16D
:10162000424C23408C7B2406240C1C433E4B1C4024
:101630000B791B061B0C23433F4C22400C8A2405CC
:10164000240C14434A8A1205120C2243828085839B
:101650008968C163038430BD30B5028C374B1A40B2
:101660000284048C8388828B2E4D2A400D782D06AF
:101670002D0C1543324A14400A7B1207120C2243E8
:101680008C782407240C14431D4A904205D12D4A1E
:1016900013400A8A9205120C13438380858389685C
:1016A0000164048430BD002101804180818081601B
:1016B0008181C18101824182704730B50346183370
:1016C0000124058C8C40A5430584002910D00829ED
:1016D0000ED0091F0804400CC018016807231B0323
:1016E0009943016001681206120C1143016030BD7C
:1016F0004808C01801687023994301600168F4E745
:10170000002C014000040040001000400014004084
:1017100000200040004001400044014000480140DA
:10172000FFFC0000FF8C0000FFFB0000FFF7000043
:10173000FFFE0000FFFD0000FFCF0000FFEF0000F4
:10174000FFDF0000FFBF0000416370478163704707
:10175000C163704701647047028B70239A430A4348
:1017600002837047028BF64B09021A401143018332
:101770007047828B70239A430A4382837047828B1F
:10178000EF4B09021A401143818370470029818879
:1017900002D00122114301E04908490081807047CD
:1017A000028B08239A430A4302837047028BE54B5E
:1017B00009021A40114301837047828B08239A4320
:1017C0000A4382837047828BDE4B09021A40114321
:1017D00081837047028B04239A430A430283704734
:1017E000028BD94B09021A40114301837047828B47
:1017F00004239A430A4382837047828BD24B0902A7
:101800001A40114381837047028B80239A430A4315
:1018100002837047028B5204520C09021143018368
:101820007047828B80239A430A4382837047828B5E
:101830005204520C0902114381837047028C022327
:101840009A430A4302847047028C08239A430A434E
:1018500002847047028C20239A43090111430184BA
:101860007047028C80239A43090111430184704719
:10187000028CB64B09021A40114301847047028C56
:10188000B04B09021A40114301847047028CB04BDF
:1018900009031A40114301847047028908239A43BF
:1018A000028102890A430281704710B50123048C2A
:1018B0008B409C430484038C8A401343038410BDF3
:1018C00010B50423048C8B409C430484038C8A4011
:1018D0001343038410BD04220029818801D01143E1
:1018E00000E0914381807047828B9A4B1A4082833B
:1018F000828B09020A4382837047828B0C239A43AE
:101900008283828B0A4382837047028B914B1A40F9
:101910000283028B09020A4302837047F0B5048CEC
:101920001026B4430484058B048C8B4F1B030901E0
:101930003D402B4312021A43A0239C430C433443E3
:1019400002830484F0BD028B0C239A430283028B32
:101950000A430283704770B5048C640864000484F1
:10196000058B048C1B011343F3260A22B5439443D1
:101970002B430C4301210C430383048470BDF8B551
:10198000044608884E888A880B890D4600281DD099
:10199000042824D00828208C2AD0704908402084AC
:1019A000A08B278C31036C4E120230400243180387
:1019B00010436B4AA08317400F43012109030F43D3
:1019C0002784E9882046FFF78FFFF8BD314620467F
:1019D000FFF7C1FFE9882046FFF7B5FFF8BD3146A4
:1019E0002046FFF79BFFE9882046FFF78EFFF8BDF2
:1019F0005C4908402084A18B208C3702F3261B0110
:101A0000B14313430B435849A3830840FF21384394
:101A1000013108432084E9882046FFF76EFFF8BDB6
:101A200000210180418001228280C18001817047B4
:101A3000F8B50C464988002601250746002900D143
:101A40000226A288012A00D10225208823890028A5
:101A5000384610D0FFF762FFE1883846FFF755FFA0
:101A600023892A4631463846FFF775FFE188384614
:101A7000FFF769FFF8BDFFF76EFFE1883846FFF713
:101A800062FF23892A4631463846FFF747FFE1883F
:101A90003846FFF73AFFF8BD406B7047806B7047E0
:101AA000C06B7047006C7047002A828901D00A43DE
:101AB00000E08A4382817047818270470246128A21
:101AC00000200A4200D001207047C94301827047BC
:101AD0000246138A002092890B400A40002B02D054
:101AE000002A00D001207047C9430182704711438A
:101AF000403001817047002A828901D00A4300E00A
:101B00008A438281704708220029818801D01143CD
:101B100000E09143818070470189C908C9000181B3
:101B20007047028970239A430A430281704710B5B7
:101B30000446FFF7F6FF208907210843208110BDE6
:101B4000FF8F0000FFF70000FFFB0000FFFD00001B
:101B5000FFDF0000FFF30000FF0C0000FFEF0000BC
:101B6000FF5F0000FFFE0000FFF5000070B51646A5
:101B70000D46044660290CD001223146FFF7EBFEEA
:101B800029462046FFF7CDFF208907210843208101
:101B900070BD01223146FFF7C1FEF1E710B504899F
:101BA0001B021343E4B20B432343038110BD10B562
:101BB0000446FFF7F3FF2089C108C900072001434D
:101BC000702081430143218110BD10B50446FFF709
:101BD000E5FF2089012189030843208110BD828807
:101BE00070239A43828082880A43828070470289E8
:101BF000D208D200028102890A4302817047028919
:101C000080239A43028102890A430281704770B59A
:101C10000689048B058CF608F6000E430C490681F4
:101C20000C40FF2102310C43AA218D4319011143BD
:101C300029430483018470BD80220029818801D05A
:101C4000114300E09143818070474030018270472A
:101C5000FCFC0000F74910B5884207D101218C0334
:101C60002046FFF72AFB0021204627E0F249884260
:101C700002D101214C0404E0F049884209D101213C
:101C80008C042046FFF722FB00212046FFF71EFBB5
:101C900010BDEB49884202D10121CC04F1E7E949AA
:101CA000884202D101210C05EBE7E749884208D1BF
:101CB00001212020FFF701FB00212020FFF7FDFA82
:101CC00010BDE249884206D101214020FFF7F5FA14
:101CD00000214020F2E7DE498842F1D10121802035
:101CE000FFF7EBFA00218020E8E730B504460068F2
:101CF0008BB00D4640084000206060680321090356
:101D00008843A968014361602068D249EA680840B5
:101D1000696811432A69024311432160A0680321C5
:101D20000902884369690143A1606846FFF7C4F965
:101D3000C048844201D106980AE0BF48844201D1DC
:101D4000079805E0BD48844201D1089800E0029858
:101D500021680904296800D5400003F0C7FA2A6801
:101D600052088A4200D8401C2168090404D50107A2
:101D7000B94A490F10400843A0810BB030BD4B2138
:101D8000C90101600021416081600C22C1600261D3
:101D90004161704710B542680F231B029A4318C96E
:101DA00023430C6849680C4323431343436010BD2D
:101DB0000021016041608160C160704700290168B5
:101DC00002D00122114301E0490849000160704737
:101DD000002A026801D00A4300E08A43026070478B
:101DE0000122D2030029016801D0114300E0914390
:101DF000016070470122D2020029816801D011439D
:101E000000E09143816070470122D20400294168BB
:101E100001D0114300E091434160704701229204D8
:101E20000029416801D0114300E0914341607047AF
:101E3000002A426801D00A4300E08A4342607047AA
:101E40000122D2030029416801D0114300E09143EF
:101E5000416070470122D2050029416801D0114339
:101E600000E09143416070474269120E12064261E0
:101E700042690A4342617047028A120A12020282D0
:101E8000028A0A430282704702220029016801D0B7
:101E9000114300E0914301607047826803231B05F2
:101EA0009A43826082680A43826070470122120569
:101EB0000029416801D0114300E09143416070471F
:101EC000426803235B059A43426042680A434260CA
:101ED0007047C905C90D01857047808CC005C00DCC
:101EE000704742681202120A4260426809060A43B9
:101EF00042607047012252030029016801D011435A
:101F000000E091430160704702680123DB029A43BD
:101F1000026002680A4302607047426810239A43D5
:101F2000426042680A4342607047426820239A43F5
:101F3000426042680A4342607047012292030029CE
:101F4000416801D0114300E091434160704708228D
:101F50000029816801D0114300E0914381607047FE
:101F6000028AD2B20282028A09020A4302827047BE
:101F700020220029816801D0114300E09143816053
:101F8000704710220029816801D0114300E091437D
:101F900081607047826807235B049A43826082688D
:101FA00049040A438260704742691202120A426180
:101FB000426909060A4342617047826804239A43D2
:101FC000826082680A438260704702220029816829
:101FD00001D0114300E091438160704701229203D8
:101FE0000029816801D0114300E09143816070476E
:101FF00082680123DB039A43826082680A4382601D
:10200000704702681F235B059A4302600268490516
:102010000A430260704702681F231B049A43026050
:10202000026809040A4302607047002A826815D0DA
:102030000A4314E0003801400044004000480040DA
:10204000004C0040005000400014014000180140C6
:10205000001C0140F3E9FFFFF0FF00008A438260AB
:102060007047826801235B039A43826082680A4357
:102070008260704710B50B041C0E01238B40022CAC
:1020800002D0032C02D002E0001D00E008300168FD
:10209000002A01D0194300E09943016010BD002AD5
:1020A000028B01D00A4300E08A43028370478268B2
:1020B00001231B039A43826082680A43826070474F
:1020C0000246D26900200A4200D001207047016216
:1020D000704730B50A04130E0122144600258C40C7
:1020E000012B0ED0022B0ED08368090C2340C0694F
:1020F0008A401040002B02D0002800D0012528463D
:1021000030BD0368F1E74368EFE70A0C0121914015
:1021100001627047F748302101705B2141707921DD
:1021200081707421C1706D2101716F21417138215D
:1021300081717F21C171704730B50022ED490128BE
:1021400005D0472302280ED0032813D018E0EA4810
:102150000F240578632007230C704870332D8B7093
:102160000DD1372004E00B700620487062238B707D
:10217000C87005E00B706D20487042208870CA70EE
:102180000A714A718A71CA7130BDDA480021017042
:1021900041708170C170017141718171C17170476D
:1021A00010B5002404E00A2103F0A0F8641CE4B296
:1021B0000028F8D1204610BDF3B581B00298FFF792
:1021C000EFFF07460198FFF7EBFF00900A21029806
:1021D00003F096F802464800C84DC64C285C00261D
:1021E0002070022F07D310460A2103F089F8480017
:1021F000285C607000E06670032F0AD364210298A7
:1022000003F07EF80A2103F07BF84800285CA070F8
:1022100000E0A67038467D27FF0004280AD339461F
:10222000029803F06DF80A2103F06AF84800285C70
:10223000E07000E0E6700A21019803F061F84900BF
:10224000695C21710099022906D30A2103F058F82C
:102250004800285C607100E06671009803280AD38A
:102260006421019803F04CF80A2103F049F8480072
:10227000285CA07100E0A671009804280AD33946B2
:10228000019803F03DF80A2103F03AF84800285C71
:10229000E071FEBDE671FEBDF7B582B00498FFF7B0
:1022A0007FFF00900398FFF77BFF07460A21049801
:1022B00003F026F80246914E48008E4C305C2070A8
:1022C00000980025022807D310460A2103F018F8C9
:1022D0004800305C607000E06570009803280AD305
:1022E0006421049803F00CF80A2103F009F848006F
:1022F000305CA07000E0A570009804280BD37D210D
:10230000C900049802F0FCFF0A2102F0F9FF48001E
:10231000305CE07000E0E570029800282FD00A21C0
:10232000039802F0EDFF4900715C2171022F06D382
:102330000A2102F0E5FF4800305C607100E0657141
:10234000032F0AD36421039802F0DAFF0A2102F076
:10235000D7FF4800305CA07100E0A571042F0CD3BA
:102360007D21C900039802F0CBFF0A2102F0C8FFCB
:102370004800305CE07105B0F0BDE571FBE7257108
:10238000062060717620A071F7E7F7B582B0049857
:10239000FFF706FF00900398FFF702FF07460A21A8
:1023A000049802F0ADFF0246544E4800514C305C98
:1023B000207000980025022807D310460A2102F059
:1023C0009FFF4800305C607000E065700098032853
:1023D0000AD36421049802F093FF0A2102F090FFCF
:1023E0004800305CA07000E0A570009804280BD372
:1023F0007D21C900049802F083FF0A2102F080FFCA
:102400004800305CE07000E0E570029800282ED0B3
:102410000A21039802F074FF4900715C2171022FB8
:1024200006D30A2102F06CFF4800305C607100E0C6
:102430006571032F0AD36421039802F061FF0A211A
:1024400002F05EFF4800305CA07100E0A571042F2F
:102450000BD37D21C900039802F052FF0A2102F03C
:102460004FFF4800305CE07185E7E57183E7257137
:10247000632060710720A071F7E710B51D490022A5
:102480000A704A708A70CA706224632240230C71F9
:102490004A7100288B7101D0072000E07320C871B9
:1024A00010BDF1B50098FFF77BFE05460A210098A4
:1024B00002F026FF02464800104F0E4C385C002602
:1024C0002070022D07D310460A2102F019FF4800A0
:1024D000385C607000E06670032D11D364210098B1
:1024E00002F00EFF0A2102F00BFF4800385CA070DA
:1024F00007E000000C01002090000020965E00081C
:10250000A670042D0BD37D21C900009802F0F8FEBF
:102510000A2102F0F5FE4800385CE07000E0E67049
:102520002671232060715E20A0710F20E071F8BD3C
:1025300010B5FA490F220A7147234F224B717324B9
:102540008A71CC71002805D07E2008704A70422222
:102550008A7004E0002008704C708B706D20C87089
:1025600010BD7047F1B50098FFF71AFE05460A2125
:10257000009802F0BBFE02464800E94EE74C305C92
:1025800000272070022D07D310460A2102F0AEFE6C
:102590004800305C607000E06770032D0AD364214E
:1025A000009802F0A3FE0A2102F0A0FE4800305C71
:1025B000A07000E0A770042D0BD37D21C900009806
:1025C00002F094FE0A2102F091FE4800305CE070B7
:1025D00000E0E770052D0AD3D249009802F086FE8C
:1025E0000A2102F083FE4800305C207100E0277170
:1025F000232060716D20A0710F20E071F8BD70473D
:10260000C6484021017041708170C74AC17053783B
:102610000021002B08D04E23037143716323837183
:102620004723C37151707047017141718171C1714C
:10263000012050707047B94840210170417081708D
:10264000B94AC17093780021002B08D0732303711D
:102650004E23437183716323C3719170704701717D
:1026600041718171C171012090707047F3B581B0E3
:102670000C460198FFF794FD07462046A84E00251A
:10268000A64C00283CD0A848C078002830D00A21A9
:10269000019802F035FE4900715C2170022F06D3CB
:1026A0000A2102F02DFE4800305C607000E0657089
:1026B000032F0AD36421019802F022FE0A2102F0BE
:1026C0001FFE4800305CA07000E0A570042F0BD303
:1026D0007D21C900019802F013FE0A2102F010FECC
:1026E0004800305CE07000E0E5708F48C57034E071
:1026F00025706570A5708C48E5700121C1702CE0D3
:102700000A21019802F0FCFD4900715C2170022F42
:1027100012D30A2102F0F4FD4800305C6070032FF0
:102720000BD36421019802F0EBFD0A2102F0E8FDD1
:102730004800305CA07001E06570A570042F0BD3D9
:102740007D21C900019802F0DBFD0A2102F0D8FDCD
:102750004800305CE07000E0E570732020714E208E
:102760006071A0716320E071FEBD10B56B4840221E
:102770000270427082706C4BC2701C790021002C78
:1027800008D0732404714271622282716322C27183
:10279000197110BD017141718171C17101201871F0
:1027A00010BDF3B581B00C460198FFF7F9FC074660
:1027B00020465B4E0025594C00283CD05A484079B1
:1027C000002830D00A21019802F09AFD4900715C7E
:1027D0002170022F06D30A2102F092FD4800305CDE
:1027E000607000E06570032F0AD36421019802F045
:1027F00087FD0A2102F084FD4800305CA07000E0F3
:10280000A570042F0BD37D21C900019802F078FD3B
:102810000A2102F075FD4800305CE07000E0E570D0
:102820004148457134E025706570A5703E48E570FB
:10283000012141712CE00A21019802F061FD49005B
:10284000715C2170022F12D30A2102F059FD480059
:10285000305C6070032F0BD36421019802F050FDAF
:102860000A2102F04DFD4800305CA07001E0657067
:10287000A570042F0BD37D21C900019802F040FD03
:102880000A2102F03DFD4800305CE07000E0E57098
:1028900073202071402060716220A0716320E0717C
:1028A000FEBD1E4840210170417081701E4AC170FA
:1028B00093790021002B09D04723037163234371CF
:1028C000762383716D23C3719171704701714171DA
:1028D0008171C171012090717047F3B581B00C46D0
:1028E0000198FFF75DFC074620460D4E00250B4C76
:1028F000002844D00C48C079002838D00A2101981B
:1029000002F0FEFC4900715C2170022F0ED30A21F7
:1029100002F0F6FC4800305C607008E00C0100201A
:10292000965E000810270000240000206570032F29
:102930000AD36421019802F0E3FC0A2102F0E0FCD2
:102940004800305CA07000E0A570042F0BD37D21FF
:10295000C900019802F0D4FC0A2102F0D1FC480021
:10296000305CE07000E0E570F748C57134E0257038
:102970006570A570F448E5700121C1712CE00A2151
:10298000019802F0BDFC4900715C2170022F12D346
:102990000A2102F0B5FC4800305C6070032F0BD3B5
:1029A0006421019802F0ACFC0A2102F0A9FC480065
:1029B000305CA07001E06570A570042F0BD37D2101
:1029C000C900019802F09CFC0A2102F099FC480021
:1029D000305CE07000E0E57047202071632060719A
:1029E0007620A0716D20E071FEBD70477047F3B591
:1029F00081B007460298FFF7D3FB0025D34C06466B
:102A0000012F05D0022F1AD025706570A57044E003
:102A100025706570A570CC48E570017A2571002994
:102A200007D0472161714F21A1716D21E1710572BC
:102A3000FEBD6571A571E57101210172FEBD0A211E
:102A4000029802F053FC4900C14F022E795C2170BC
:102A500006D30A2102F04AFC4800385C607000E0AE
:102A60006570032E0AD36421029802F03FFC0A210C
:102A700002F03CFC4800385CA07000E0A570042E19
:102A80000BD37D21C900029802F030FC0A2102F02C
:102A90002DFC4800385CE07000E0E57030202071CB
:102AA000472060714F20A0716D20E071FEBDF7B529
:102AB00007460298FFF774FB0025A44C0646012F39
:102AC00005D0022F1CD025706570A57046E02570DA
:102AD0006570A5709C48E570417A002909D05B219A
:102AE0002171472161714F21A1716D21E171457201
:102AF000FEBD25716571A571E57101214172FEBDB3
:102B00000A21029802F0F2FB4900914F022E795CF3
:102B1000217006D30A2102F0E9FB4800385C60709E
:102B200000E06570032E0AD36421029802F0DEFBF8
:102B30000A2102F0DBFB4800385CA07000E0A570C1
:102B4000042E0BD37D21C900029802F0CFFB0A218D
:102B500002F0CCFB4800385CE07000E0E5705B20E0
:102B60002071472060714F20A0716D20E071FEBD83
:102B700010B50C4609200821C006FEF7BCF87349C1
:102B8000002802D0012804D007E0012C05D1302014
:102B900006E0002C03D0012C04D0002000E0062029
:102BA000087210BD3620FBE7F0B5684800210170BF
:102BB000684A417016787325F70662234F24002F68
:102BC00002DAEF273E4016708570C37004714171C0
:102BD0008171C171F0BD5D48472101706D21417067
:102BE000372181707321C1700021017141718171A0
:102BF000C17170475548472101700621417062221A
:102C00008270C1700021017141718171C171704781
:102C1000704770474D4900220A710F234B716D2395
:102C20008B717323CB716323002802D00A7062205A
:102C300001E04E20087048708B70CA707047704772
:102C400070B50446C107444801D0002200E00122CB
:102C50000121FEF766F84149414DA00701D5002248
:102C600000E001222846FEF75CF8600701D500224B
:102C700000E0012280212846FEF753F8200701D505
:102C8000002200E0012240212846FEF74AF8E00633
:102C900001D5002200E0012210212846FEF741F86C
:102CA000A00601D5002200E0012208212846FEF7F7
:102CB00038F8600601D5002200E0012220212846D4
:102CC000FEF72FF870BD70B5254BC4070421244AC8
:102CD0002033002C01D0916100E01981840701218B
:102CE000002C01DA916100E019811B4C450780221C
:102CF000194B2034002D01DA9A6100E0228105078A
:102D00004022002D01DA9A6100E02281154AC506B1
:102D100001D59A6100E02281134D144B144C8606B4
:102D200001D59D6100E02581450601D59A6100E04D
:102D3000228105060222002D01DA9A6100E022813B
:102D4000C00517D5996170BD240000200C0100203A
:102D5000965E000808010020000000480001000005
:102D60000004004800800000004000000008004807
:102D7000200800482181E6E770B5104C0E49207804
:102D80002546095C0C3529700D494000085A6860D9
:102D90000020FFF755FF6868FFF795FF2878FFF7D9
:102DA0004FFF6868FFF78FFF2078411C21700828CB
:102DB000C9D300202070C6E70C01002024000020A9
:102DC000845E0008FEB509209B4AC0060121490225
:102DD000106091800D239371002151811161D17197
:102DE000162616771F2717720C2454611E2494612F
:102DF000144620340122D2022060A280A371618196
:102E00002161E171267727720C2262617822A2612A
:102E1000224620320125AD021060958093715181C8
:102E20001161D171167717720C255561782595615E
:102E300015462035012212032860AA80AB716981F2
:102E40002961E9712E772F720C226A617822AA61BA
:102E50006A46117151710121890200916946FDF79D
:102E6000FCFEA888009069462868FDF7F6FEA08859
:102E7000009069462068FDF7F0FEFEBD30B582790E
:102E80000021212320240D2A09D00B2A14D00C2A3A
:102E900011D184690269A2420DD3037207E08569EA
:102EA0000269AA4208D30372C279002A03D10161E0
:102EB0004189491C418130BD0472F8E710B50446D0
:102EC00081880068FDF717FF217F162905D0152995
:102ED00002D1012800D0002010BD0028FBD1012024
:102EE00010BD70B554482030FFF7E8FF524C012563
:102EF00020340026012805D02046FFF7DFFF0028F8
:102F000005D005E02069401C2061E57100E0E67114
:102F10002069002805D048482030FFF7CFFF00285F
:102F200009D0A1692069884209D943482030FFF7B8
:102F3000C5FF012803D140482030FFF79FFF3E48DE
:102F4000FFF7BCFF3C4C012805D02046FFF7B6FF39
:102F5000002805D005E02069401C2061E57100E0F3
:102F6000E6712069002804D03348FFF7A7FF002846
:102F700008D0A1692069884207D92F48FFF79EFF32
:102F8000012802D12C48FFF779FF2B484030FFF78A
:102F900095FF294C4034012805D02046FFF78EFFCD
:102FA000002805D005E02069401C2061E57100E0A3
:102FB000E6712069002805D01F484030FFF77EFFEA
:102FC000002809D0A1692069884209D91A484030EF
:102FD000FFF774FF012803D117484030FFF74EFF79
:102FE00015486030FFF76AFF134C6034012805D0A4
:102FF0002046FFF763FF002805D005E02069401C4C
:103000002061E57100E0E6712069002805D00A48DA
:103010006030FFF753FF002809D0A169206988427A
:1030200009D905486030FFF749FF012803D102485C
:103030006030FFF723FF70BD180100207047704714
:10304000F8B5FF4C00252078EF27C106FD4E00297A
:1030500003DA38402070FFF7EEFAD4E0FA48202176
:103060000170FA48C079002803D1F948C0790028D6
:1030700007D02078F449384020700220085E0021F3
:1030800008E02078C10607D538402070EE490220BC
:10309000085E0121FFF7EAFAEB4AEC480A210C3AF4
:1030A000415E1279914202D0027A202A03D0C1797E
:1030B00001290BD00DE0E44A0C3A11710021418145
:1030C000E1484188491C4180012504E0017A212919
:1030D00010D020210172DC49DD480A220C39825EC1
:1030E00009798A4202D0017A202933D0C179012995
:1030F00038D03AE0002141810069FF2191318842B6
:1031000010D20A2102F0F2F80029E4D1D14908686E
:103110000128E0D1CC4A01255088401C5080002075
:103120000860D8E70146FF39FF2292399032914278
:10313000ECD2052102F0DAF80029CCD1C5480168AB
:103140000129C8D1C04A01255188491C518000215C
:103150000160C0E700214181BB484188491E418090
:10316000012504E0017A212909D020210172B64A03
:103170000221515EB84881422EDB508030E00021B0
:1031800041810069FF21913188420DD20A2102F06C
:10319000ADF80029EBD1AF4801680129E7D1AA4A6F
:1031A0005188491E518013E00146FF39FF229239B0
:1031B0009032914204D2052102F098F80029D6D12C
:1031C000A44801680129D2D19F494A88521E4A80E9
:1031D000012500210160CAE7002901DC002151809E
:1031E0002078C1060FD5012D0DD1384020709648AA
:1031F00000250178994800F090FA93480221415E39
:10320000974800F08AFA307A202803D17089042880
:1032100000D123E7F8BD10B589480178CA0604D566
:10322000EF2211400170FFF7EBF987491F2008706A
:1032300010BDF8B5844C854D854E824F0C3C2CE07A
:10324000FFF7E9FF0A20285EE17888420CD0297A4E
:10325000202909D1E070002068812178491C49B2F9
:103260002170032900DD20700A20305EE178884259
:103270000CD0307A202809D1002070812078401E9F
:1032800040B22070002801DA032020700A20385E46
:10329000042802DB052078812BE020780028CFD09D
:1032A00027E0FFF7CDFE0A21695EE07881420BD06E
:1032B000297A202908D1002169812278521C52B232
:1032C0002270032A00DD21700A21715E81420CD038
:1032D000307A202809D1002070812078401E40B229
:1032E0002070002801DA032020700A20385E0528AB
:1032F00002DA20780128D4D0E07800216156022932
:1033000048D10A22AA5E82420AD02A7A202A07D10C
:103310000022491C49B26A812170032900DD227014
:103320000A21715E81420CD0317A202909D1002115
:1033300071812178491E49B22170002901DA0321E7
:1033400021700A21795E0529D7DB23E00A22AA5ED3
:1033500082420AD02A7A202A07D10022491C49B287
:103360006A812170032900DD22700A21715E814289
:103370000CD0317A202909D1002171812178491E90
:1033800049B22170002901DA032121700A21795EF6
:10339000052903DA002161560329D7D0F8BDF8B515
:1033A000294C00270C3CA068FFF7DCF827480A21CD
:1033B000415EA2780026274D914202D0027A202A4F
:1033C00003D0C179012903D005E0A170468120E036
:1033D000017A21290ED0202101721D480A21415E67
:1033E000A278914202D0017A202944D0C1790129E2
:1033F00043D045E046810069FF21913188420BD2DC
:103400000A2101F073FF0029E7D128680128E4D1DF
:103410002E60A068401C11E00146FF39FF2292395E
:103420009032914220D2052101F060FF0029D4D1D1
:1034300028680128D1D12E60A068801C012711E0E6
:10344000080100203801002044000020580100201D
:1034500078010020F40000200F270000007700080A
:10346000007B0008A060B8E728680128B5D12E606D
:10347000A068401DE2E7468118E0017A212906D0C4
:1034800020210172A16801292FDC012030E0468152
:103490000069FF21913188420BD20A2101F026FFF9
:1034A0000029EFD128680128ECD12E60A068401EC9
:1034B00011E00146FF39FF229239903291420DD23C
:1034C000052101F013FF0029DCD128680128D9D19A
:1034D0002E60A068801E0127A060D3E7286801281D
:1034E000D0D12E60A068401FF5E75848814200DB2C
:1034F000A06057480178CA0608D5002F06D0EF22F1
:10350000114001705348A16800F007F9F8BDF8B503
:103510005148C1795148012902D1C17901297DD091
:103520004F49C979012979D04E490126C979002529
:10353000012973D05DE04B4F65817D81FFF72FFF3F
:1035400060890128FAD020E0474C2078FEF7F0FF90
:1035500046490A20385E4978884202D0387A2028C5
:1035600008D03D480A22825E8A420ED0017A202984
:103570000BD113E07D8112E0267000E025702178E8
:103580003B4800F0CAF83B4805703448408902289F
:10359000DAD0324C6089032805D020E045812078BC
:1035A0000028EBD1E8E7207A202822D12F480C30E0
:1035B00000781F2806D0202807D0212808D02228EC
:1035C00008D00AE02948057007E02848067004E0A2
:1035D000022100E0032125480170FFF72AFE207A2E
:1035E000202806D160890328F7D0234F6089052859
:1035F00004D01A4CE07901281AD01EE0FFF7D4FA63
:103600003E70207A2028F4D10A20205E0628EDDBC7
:103610006581E571154C0C34217800E010E0174805
:1036200000F07BF80221615E154800F076F8E0E7D3
:10363000A1692069884200D37DE7207A2128FBD048
:10364000F8BD704770477047704770470F270000FC
:1036500008010020007F00087801002038010020C8
:10366000180100205801002093000020380000209D
:10367000009F000895000020090100200077000845
:10368000007B000810B50446FDF75CF83520FDF717
:10369000AFFA2046FDF787F83520FDF7A9FAFDF7C8
:1036A0005AF810BD70B50C460546FDF74BF83520AD
:1036B000FDF79EFA21462846FDF7A7F83520FDF7CD
:1036C00097FAFDF748F870BD10B52748FFF7DAFF05
:1036D0002648FFF7D7FF2648FFF7D4FF2548FFF716
:1036E000D1FF2548FFF7CEFF2448FFF7CBFF244842
:1036F000FFF7C8FF2348FFF7C5FF2348FFF7C2FFC6
:103700002248FFF7BFFF2248FFF7BCFF2148FFF721
:10371000B9FF2148FFF7B6FF10BDF3B504460646D2
:10372000006881B01D4D0127BF02286008E0241DFC
:10373000A01BB84202D93046FFF7A4FF20682860DA
:10374000401CF4D120460299FFF7ACFFFEBD036890
:10375000024612490B605B1C03D00246001D036841
:10376000F8E710680860704700770008007B0008E1
:10377000007F000800830008008B00080087000815
:10378000008F00080093000800970008009F0008C1
:1037900000A3000800A7000800AB000850000020AC
:1037A000F8B56248006802F083F86149002509789D
:1037B0000127604E604C002926D06049604A097894
:1037C000002902D0012906D00CE001B25D48018039
:1037D00055815D4804E001B25C48018057815C4836
:1037E000FFF79BFF09200821C006FDF784FA024677
:1037F00009200821C006FDF794FAE268A16855483F
:10380000914216DC016015E0E168A0684018C10F24
:10381000081840106060142802DC1420606003E087
:103820004D49884200DB6160A08801B231804B487D
:10383000D6E70260A1883180494967704D81CD711A
:103840001F220A7201684748FFF767FFF8BD10B5ED
:1038500045480178002907D00021017033480068ED
:1038600002F026F83449C86010BD10B53E48017812
:10387000002907D0002101702C48006802F018F8D8
:103880002D49886010BDF8B5354C0025E079012838
:1038900049D12B4F254EF879012845D03FE02649E4
:1038A000012008703048082105700920C006FDF786
:1038B00022FA024609200821C006FDF732FAFFF776
:1038C000D4FF306802F01AF801460220FFF78FF8A3
:1038D00060890128F5D00A20205E02281CDBFFF752
:1038E000B6FFFFF75DFF13480022825E0021022031
:1038F000FFF7DDF81D49012008706089A08165810E
:103900001F201B4920724D8108721A494D8108728F
:103910003872094845700570E079012803D1A16922
:1039200020698842BBD26581F8BD0000D800002024
:1039300093000020AA0000205400002094000020E2
:1039400038010020A200002000A30008A4000020ED
:1039500000A70008EC000020FF0F00000083000813
:103960001801002000970008960000209500002014
:10397000580100207801002070B5A54D0446402173
:103980002846FEF79DFB0028F9D0E1B22846FEF755
:10399000A0FA204670BD401E00B20028FBDC704734
:1039A000704770B501218D072846FEF791F8002871
:1039B0003FD0984C2069401C206197484168491CC1
:1039C00041600A21206901F091FC002911D193483E
:1039D0000078002803D092490888401C088091484C
:1039E0000078002803D090490888401C0880FFF721
:1039F000C3F95021206901F079FC0126002903D187
:103A0000FFF76FFA894806602069894988420CD31C
:103A100000F060FB874810220178714001708648F1
:103A20000178114301700020206101212846FEF732
:103A30005BF870BD10B5814C01212046FEF748F8B7
:103A4000002803D001212046FEF74EF810BD10B526
:103A50007B4C01212046FEF73BF8002803D00121D2
:103A60002046FEF741F810BD10B501F063F901F0F2
:103A70000CFB01F08AFA01F021FC01F02EFC7148E8
:103A8000FDF71AFB01F050FA01F07AF9FFF79AF905
:103A900010BD70B56C4D2846FFF759FE5D4C0121F5
:103AA00009046060884203D30020606000F021FBBD
:103AB00061682846491C6160FFF72FFE3220401ED6
:103AC00000B20028FBDC6068012801DC00F011FB7B
:103AD00070BD10B55D20FDF7D4F9002801D0FDF7C9
:103AE00007FC5A48FDF742F90420FDF742F97D2012
:103AF0000001FDF741F9FDF742F9FDF747F910BD67
:103B000030B5444A93681C79047093681B7A4370FB
:103B100093685B7883709368DB78C37093681D78D3
:103B200005715D7945719D7A8571DD79C5715D7A23
:103B300005729D784572DD7A85729B79C372D36870
:103B40001B7863400B70D36884795B78057A634097
:103B5000C4796C406340447A6340847A6340C47A99
:103B600063404B70D36804799B7863408B70D26854
:103B70008378D27840785A404240CA7030BD254997
:103B8000304800B514312830FFF7BAFF214814300F
:103B900042780178120289188278C07812040006EF
:103BA000101809181B482A4A8161126BC2618A42A7
:103BB00001D1012000BD002000BD10B5FFF754FF6A
:103BC000FFF7DDFF13490870FFF763FF00F068FFA0
:103BD000002010BD70B50F4A1E4D11E0802354889F
:103BE000260402D564006C4000E064005480047830
:103BF0001C4202D054886C4054805B08EFD1401CBA
:103C00000B46491EC9B2002BE8D1508870BD000098
:103C10000038014064000020440000208E00002095
:103C2000A60000208F000020A8000020F400002043
:103C3000881300008800002008010020002C0140AB
:103C40000004004098010020007300085555000052
:103C5000C07F00082110000030B5002305E09D0062
:103C60004D59046864195B1C04609342F7DB30BD56
:103C700070B50B460446002103E08D005D592818FD
:103C8000491C9142F9DB01F031FB206070BD7047A7
:103C900070B5FC4DA8782C46703400283AD12068C5
:103CA00001F068FE296D02F04DF804D2286D01F094
:103CB000FFFD206022E0606801F05CFE296D02F0EB
:103CC00041F804D2286D01F0F3FD606016E0A068B1
:103CD00001F050FE296D02F035F804D2286D01F094
:103CE000E7FDA0600AE0E06801F044FE296D02F003
:103CF00029F803D2286D01F0DBFDE06003CC401809
:103D000006CC89184018C117890F08188010E8657B
:103D10000020286670BDDB48817A012906D01E216B
:103D2000415E502902DB00218171C1837047F8B5E3
:103D3000D44FB87A012876D0F878B978884201D182
:103D4000012200E00022D04E7A7135780920C006A9
:103D500000241F2D0DD00221715E7368C94EB66B11
:103D60007143202D0DD0C84E212D17D0222D24D0E7
:103D700043E0002A1BD001220821FCF7D2FF746027
:103D800039E0002A06D001220821FCF7CAFFBE480C
:103D9000446032E08B4230D9002204E0002A06D091
:103DA0008B422AD901220821FCF7BBFF23E0002225
:103DB0000821FCF7B6FF74601FE03D7C16462E43D9
:103DC00002D0002A09D106E0AF4900224C60082148
:103DD000FCF7A7FF11E0012D0FD18B4206D2012283
:103DE0000821FCF79EFF0120387406E0002208211C
:103DF000FCF797FF3C74012078747878002810D184
:103E0000787901280DD1787C01280AD1786C9F49F6
:103E1000401C78647C740968884202D30120B87120
:103E20007C6478797870F8BDF0B587B00220FCF733
:103E300052FC00282DD096480021415E9548914CB7
:103E4000401AA064E16C0818E064E18D491C09B2D5
:103E5000E18504291ADBC117890F00250818E585BB
:103E6000801001F087FDE5642065A06E0126401CEE
:103E7000A066E07B01280ED0FFF70AFF7D21A06E2F
:103E8000C900884202D3E673606EA0850220FCF769
:103E900030FC07B0F0BDE07A01281ED0607B00281E
:103EA0001BD0FFF7F5FEE16D606E401A00B24B21AA
:103EB000C900A085884202DA4942884200DCA18517
:103EC0002C20205E01F056FD216D01F067FF724F3E
:103ED0006065B84203DB676506E0A585F0E7012170
:103EE000C905884200DA6565E08C401CE0842A2020
:103EF000205E01F03FFD616D01F0FAFE03D8606DB8
:103F000001F0D6FC60852820205E01F033FD616D54
:103F100001F018FF03D8606D01F0CAFC208526204F
:103F2000205E062807DDE584608D218D401AA0847F
:103F3000658558482085E07A012802D0002866D09F
:103F400096E01C202421205E615E4018801C01F058
:103F500011FD616D01F0CCFE0BD81A202421205EEA
:103F6000615E401A801E01F005FD616D01F0EAFE00
:103F700059D9606DFF21C9050590C84221D224207E
:103F8000205E01F030FC0222D24301F037FC0290A7
:103F900000911C20205EC117490E0918C911401A52
:103FA000143801F020FC009B029A01F0D8FB00912C
:103FB0000490059801F052FC009B049A01F0ECFD7E
:103FC00055D92420205E01F00EFC0222D24301F0DC
:103FD00015FC029000911A20205EC117490E0918A5
:103FE000C9110818143001F0FEFB009B029A01F081
:103FF000A9FB03910290606D01F030FC039B029AD3
:1040000001F0FCFD34D8606DB84230DD30E0222094
:104010002421205E615E4018801C01F0ABFC616DC4
:1040200001F066FE01D8A67022E02420205E01F097
:10403000DAFB0222D24301F0E1FB07462220019184
:10404000205EC117490E0918C911401A001F01F05E
:10405000CAFB3A46019B01F082FB07460391606D63
:1040600001F0FCFB3A46039B01F096FD00D8A570D9
:10407000A673FFF75CFEFFF74EFEA1796079FEF7AD
:1040800077FD03E788000020440000204000002066
:104090000A010020FF0F0000003C1C46034610B53B
:1040A0000A460020014604E08C001C592018491CD7
:1040B00089B29142F8D301F019F910BDFB4B2222CD
:1040C0009A5E904201D301207047323A9042FBD869
:1040D0000020704710B5F54C606D01F0E9FBE0631E
:1040E00010BD00216422504300E0491C8842FCD8E6
:1040F0007047F8B5EE490A2008607D21EB4CC900F5
:10410000618433222272EB4F1F263E707880EA4A88
:1041100064201080042020830120E0706183491016
:10412000A1830025E549E5720870E5490870606ED5
:104130002566A565E065A5853146E248FFF7EDFAFD
:104140003220FFF7CEFF0221795EDF48FFF7E5FA64
:104150003220FFF7C6FFD6480168DC48FFF7DDFADA
:104160003220FFF7BEFF2221615ED948FFF7D5FA62
:104170003220FFF7B6FFD748216CFFF7CEFA322086
:10418000FFF7AFFF217AD448FFF7C7FA3220FFF7D5
:10419000A8FFE178D148FFF7C0FA3220FFF7A1FF6E
:1041A000218BCF48FFF7B9FA3220FFF79AFFCD48AD
:1041B000616EFFF7B2FA3220FFF793FF3220FFF76C
:1041C00090FFE17AC848FFF7A8FA3220FFF789FF8D
:1041D0001A21615EC548FFF7A0FA3220FFF781FF80
:1041E0001C21615EC248FFF798FA3220FFF779FF81
:1041F000B3484157BF48FFF790FABF4806720561C0
:104200004581BE4806724581F8BDF8B5BA4C207AA2
:10421000212839D1BA49BB48CB791F27C27900255B
:10422000002B04D1067A212E01D1012A04D0B34EED
:10423000367A212E29D02EE09C4A137A332B0DD0CA
:10424000332313722646658114460120FDF774FF5F
:1042500001206072307A212802D00CE03423F0E78C
:10426000A748C079002806D1A648017A212902D1A1
:10427000C0790128E9D0217A9748FFF74EFA3772C2
:10428000A048758145810772F8BD9C4EF679012ED4
:1042900001D1002B10D0012BF6D10B7A212BF3D1B9
:1042A000002AF1D1814A0E4655640320FDF744FFF0
:1042B000207A21282AD033E00646002AE4D1FDF7EF
:1042C00064FF0FE0FFF700FA02E00220FDF734FF81
:1042D0008948FEF7F3FD012804D18848FEF7EEFD7A
:1042E0000128F2D08448FEF7E9FD012804D1834873
:1042F000FEF7E4FD0128E5D0FFF7FBFE658127729C
:1043000075817F483772458107720EE0F079012888
:1043100006D1307A212803D17A48C0790028C4D048
:10432000277225616581758137727D20C000FFF796
:10433000D8FEF8BD10B55D48406C00B2FEF7B1F88C
:104340007049002048816E49488110BDF8B5574C2E
:10435000A08F01B22220205EFDF72EFF6648617A11
:10436000C07900270843002865D1207A332862D11C
:104370002226A65F2686624D00960A20285EA17C32
:10438000884202D0297A202903D0E879012804D074
:1043900006E0A0746F81761C3AE0287A21280ED0BE
:1043A00020202872574E0A20305EA17C884202D01D
:1043B000307A20282ED0F07901282FD031E06F817B
:1043C000FF212869913188420BD80A2100F08EFF25
:1043D0000029E7D1E06E0128E4D1761C6684E76607
:1043E000E0E70146FF39FF229239903291420AD824
:1043F000052100F07BFF0029D4D1E06E0128D1D146
:10440000B61CE76604E0E06E0128CBD1761DE766B6
:104410006684C7E77781608C401E38E0307A2128B7
:104420000AD0202030722221615E0098884236D066
:10443000F07900282DD032E07781FF213069913169
:1044400088420AD20A2100F051FF0029EBD1E06E28
:104450000128E8D1608C401E10E00146FF39FF22A0
:104460009239903291420CD2052100F03FFF002991
:10447000D9D1E06E0128D6D1608C801E6084E766B9
:10448000D1E7E06E0128CED1E766608C401F6084E2
:10449000C9E7E879002802D10D48FFF73EF922214B
:1044A000615E1948814231DB6084F8BD88000020DC
:1044B00040000020440000204C0000204E0000205E
:1044C0004F00002000770008007B0008007F0008F4
:1044D00000830008008B000800870008008F000898
:1044E0000093000800970008009F000800A3000840
:1044F00000A7000800AB00083801002018010020C8
:1045000058010020780100200F2700000029CCDC92
:104510006784CAE7F0B5F948F849037BF84893B0D7
:10452000C779487AF74A0743087A05900A20105E4F
:104530000090C0B20A90888FF34C06B21046C07942
:10454000109010460269CD6E1046FF3892380F90D9
:104550000A20205E0E902046C0790D90204600690A
:104560000446FF3C923C0C940C780494E54CC97CC6
:10457000247A002BA446E44C247A099416D0012B0B
:1045800070D1002F6ED1059B332B6BD1DB4B1C24DC
:104590001C5F9C86671C009B3FB28B4202D0634627
:1045A000202B6FD0109B012B6DD0D2E0002F59D162
:1045B000059C332C56D1D14B1A241C5F5C86671C9A
:1045C000009B3FB28B4202D06346202B03D0109B4E
:1045D000012B0FD011E0C9480A9ACA49C2740022BF
:1045E0004A81CA4947838F424ADA1A21415E3246DC
:1045F00001205AE06346212B10D0C04A0E9B528BFB
:10460000C14F521E12B200928B4202D0099A202A48
:104610003AD00D9A3946012A3FD041E0B9480021ED
:104620004181FF20913082420BD80A21104600F0D0
:104630005DFE00291ED1B148012D1BD1C166478303
:1046400018E0FF210F98903188420CD805211046C0
:1046500000F04CFE00290DD1A848012D0AD1A41C60
:10466000C16606E099E0A548012D03D10021641D33
:10467000C1664483A1481A22825EA4498A42B4DBFF
:104680004183B2E753E061E000227A819B480099C0
:1046900041830029A9DC4283A7E7099A212A17D080
:1046A00020203872324621460498FDF7F5FD9348E4
:1046B00032221A21825E415E8A426ED09248C079CF
:1046C00000286AD18F48C079002866D19048A8E0B8
:1046D00000274F81FF21913188420BD20A2100F03F
:1046E00005FE00291CD18548012D19D1C766009906
:1046F000418315E0FF220C99903291420AD20521A4
:1047000000F0F4FD00290BD17C48012D08D1A41E36
:10471000C76604E07948012D02D1641FC76644834F
:1047200076481A21415E0029ABDC47835DE7734878
:104730000A9A7449C27400224A81744987838F425D
:104740004ADA1C21415E3246012058E06346212BA3
:1047500010D06A4A0E9B928B6B4F521E12B200927F
:104760008B4202D0099A202A38D00D9A3946012A64
:104770003DD03FE0634800214181FF2091308242DB
:104780000CD80A21104600F0B1FD00291ED15B486B
:10479000012D1BD1C166878318E044E0FF210F98EB
:1047A000903188420BD80521104600F09FFD00296A
:1047B0000CD15248012D09D1A41CC16605E04F4817
:1047C000012D03D10021641DC16684834B481C2246
:1047D000825E4E498A42B4DB8183B2E700227A814D
:1047E0004648009981830029ABDC8283A9E7099AB6
:1047F000212A1AD020203872324621460498FDF72B
:10480000C4FD3E4834221C21825E415E8A420AD0A9
:104810003D48C079002806D13A48C079002802D125
:104820003C48FEF77AFF13B0F0BD00274F81FF210F
:10483000913188420BD20A2100F058FD00291CD189
:104840002E48012D19D1C7660099818315E0FF22FA
:104850000C99903291420AD2052100F047FD0029BF
:104860000BD12648012D08D1A41EC76604E02348B9
:10487000012D02D1641FC766848320481C21415E3C
:104880000029AADC87835CE710B51C490022CB7A9B
:104890002148002B07D08356002B01D08B75027066
:1048A000FFF738FE10BD8B7D002B02D08A750121E9
:1048B0000170FFF74BFD10BDF8B5114F1248114EB6
:1048C000F979C079F279012907D101287ED01349FD
:1048D000C97901297AD0012A78D0084C0025217A9B
:1048E000332955D1064B0A211E7A795E2346DB7A9D
:1048F000002915D0202E17D058E000008800002095
:104900003801002058010020780100200F27000006
:1049100000A3000800A700084F0000201801002095
:104920002573202E13D041E0012902D0022907D09F
:104930000FE000283AD1002A38D10120207335E059
:10494000002833D1002A09D10220207306E0022971
:1049500002D0032905D029E0002827D1002B04D05C
:1049600024E0002822D1012B20D17D8125731DE078
:10497000387A212809D1F079002806D1D748017A60
:10498000212902D1C179012924D00120FDF7D4FBCE
:10499000F8790128ECD0D248C0790128E8D0CF4876
:1049A000C0790128E4D0F0790128E1D0207BE17AB8
:1049B00002460A4334D0012803D8012930D0012807
:1049C00031D0022802D1012900D100E001E0FFF737
:1049D000B1FC6AE5217A33290AD03321217265724C
:1049E0007D810120FDF7A8FB387A212803D00CE057
:1049F00034212172F4E7F079002806D1B748017A12
:104A0000212902D1C0790128EBD0217AB548FEF7DF
:104A100084FE1F203872B1497D814D810872B7E74D
:104A2000FFF732FF41E50029CFD03EE510B5AE4893
:104A3000FEF78DFEAD4C2070AD48FEF788FE60801D
:104A4000AC48FEF784FEAC490860AC48FEF77FFE38
:104A5000AB4C6084AB48FEF77AFE2064A148FEF7B9
:104A600076FE2072A848FEF772FEE070A748FEF7B7
:104A70006EFE2083A648FEF76AFE6066A548FEF734
:104A800066FEE072A448FEF762FE6083A348FEF76C
:104A90005EFEA083A248FEF75AFEA249087010BD30
:104AA000FFF7C4FF964CFFF707FFFFF7AEFB207A36
:104AB0003328F8D1207BE17A02460A4303D001284B
:104AC00003D8012901D1FEF7DEFEFEF720FDEAE75B
:104AD0008B492420085E9449884201DB01207047FD
:104AE00000207047F8B5864CE078FDF7C6FC8F488B
:104AF0000A21415E227D0126834F002591420CD080
:104B0000027A202A09D121754581E078002817D042
:104B1000E570E1783846FEF700FE70480A21415EF4
:104B2000227D91420BD0017A202908D14581E0787D
:104B3000002807D0E570E1783846FEF7EEFDB4E4D2
:104B4000E670E6E7E670F6E7F8B56D4C0021208BDD
:104B500000B2FDF74BFF75480A21415E627D278B4D
:104B600000252026914202D0027A202A03D0C17962
:104B7000012903D005E06175458118E0017A2129FA
:104B80000DD0067255480A21415E627D914202D0E5
:104B9000017A20291BD0C17901291AD01CE0458156
:104BA0000069FF219131884204D20A210AE07F1C6A
:104BB0002783E7E70146FF39FF229239903291427D
:104BC000F5D2052100F092FB0029F0D0DAE745810B
:104BD00012E0017A212907D00672208BFF21F531DE
:104BE00088421AD3218360E445810069FF21913115
:104BF000884205D20A210BE0208B401E2083ECE77F
:104C00000146FF39FF22923990329142F4D20521B8
:104C100000F06CFB0029EFD0DFE70428E3D8042084
:104C2000208342E490E7F0B53549CB7A0A46D26D4D
:104C3000002B32D00B461C211C46595E1A23E35E22
:104C4000E76DDC17640EE418DE1BE4118D18341BCD
:104C5000DB19854206D82646294D503E864201D3AF
:104C600001210FE0264D834202D8314EB04208D9CF
:104C7000CE178A1A760E7118C911511A503981420D
:104C800001D30021A9701E49834201D8012002E00E
:104C9000844201D300200871F0BD2223CB5E9C1812
:104CA000844201D8012009E0DC179A1A240EE31887
:104CB0001B12D21A283A8242EED300208870F0BD2F
:104CC0000F48817A012906D02021415EA02902DB0C
:104CD0000021C171018470477047000078010020F5
:104CE0001801002000870008007700084400002019
:104CF000007B0008007F00084000002000830008BF
:104D000088000020008B0008008F00080093000836
:104D100000970008009F000800A3000800A70008F3
:104D200000AB00084F000020DD0500005801002006
:104D30000F27000010B5FCF779F80120FCF7D7F831
:104D40000120FCF79EF80028FAD00020FCF761F95A
:104D50000020FBF7DFFC012109050020FCF710F91A
:104D60000120FCF719F91920FCF78BF80028FAD07C
:104D70000220FCF742F9FCF747F90828FBD110BDE7
:104D8000FEB501214804FCF77DFA01218804FCF7F7
:104D900079FA0121C804FCF775FA01210805FCF72E
:104DA00071FA01214805FCF76DFA01218805FCF72D
:104DB00069FA6846FBF789FF012469460C710020F7
:104DC0008871487140260920C0060096FBF745FF10
:104DD000802709206946C0060097FBF73EFF694619
:104DE000F7480094FBF739FF042000906946F44827
:104DF000FBF733FFE50309206946C0060095FBF782
:104E00002CFFA00300906946EE48FBF726FF694699
:104E1000EC480095FBF721FF022000906946E94825
:104E2000FBF71BFF6946E7480094FBF716FF0920D4
:104E30006946C0060094FBF710FF24026946E0486B
:104E40000094FBF70AFF6946DD480097FBF705FF72
:104E50006946DB480096FBF700FF1020009069468A
:104E6000D748FBF7FAFE082000906946D448FBF7C4
:104E7000F4FE202000906946D148FBF7EEFE0122A7
:104E80000421CF48FBF74DFF01221146CC48FBF728
:104E900048FF092001228021C006FBF742FF0920BC
:104EA00001224021C006FBF73CFF092001222946D0
:104EB000C006FBF736FF01229103C248FBF731FF22
:104EC00001222946BF48FBF72CFF01220221BD48E1
:104ED000FBF727FF01221146BA48FBF722FF012208
:104EE00009201146C006FBF71CFF01222146B448E9
:104EF000FBF717FF01228021B148FBF712FF0122C7
:104F00004021AF48FBF70DFF01221021AC48FBF711
:104F100008FF01220821AA48FBF703FF01222021F4
:104F2000A748FBF7FEFEFEBD1CB501214804FCF7B7
:104F3000A9F901218804FCF7A5F90121C804FCF7AF
:104F4000A1F901210805FCF79DF901214805FCF7AD
:104F500099F901218805FCF795F96846FBF7B5FE3C
:104F600001206946087100208871487108200924D1
:104F7000E40600902046FBF770FE80200090694612
:104F80002046FBF76AFE1CBD70471FB501210220B9
:104F9000FCF781F91020694608730320487301204B
:104FA000887303A8FBF704FF874C2046FCF7B4F98D
:104FB0006846FCF733FA002269460A814A803220AB
:104FC0000190172008808A7220212046FCF707FEF6
:104FD00069462046FCF7F6F9012211462046FCF707
:104FE00063FD01212046FCF75EFA1FBD30B50121AB
:104FF00087B04804FCF746F905A8FBF766FE0F20CA
:1050000005900321684641760176092005A9C0066E
:10501000FBF723FE602168460180012242800022C6
:1050200082800291082182814C01C18104824282E6
:10503000A50569462846FCF766FA08212846FCF7CC
:10504000AFFB19208001029069462846FCF78FFAD1
:1050500008212846FCF7AAFB694628460294FCF77B
:10506000C4FA08212846FCF7A8FB6D200290694687
:105070002846FCF7F1FA08212846FCF7A4FB012199
:105080002846FCF734FA07B030BD1FB501210846A9
:10509000FCF701F90320694648730F2008730120CB
:1050A000887303A8FBF784FE0124A4072046FCF7BD
:1050B00033F9002269460A814A8064200190172052
:1050C00008808A722046FCF77DF901212046FCF712
:1050D000D1F9012211462046FCF7E6FC01212046C9
:1050E000FCF7E1F91FBD30B589B02F2069468882F1
:1050F0000024CC8219200690344D8C7705A92846CF
:10510000FCF760F9602069460880012048808C80A7
:105110008C810820C881400108824C8203242846E3
:105120000294FCF7F0F908212846FCF739FB6946A0
:1051300028460294FCF71BFA08212846FCF736FBA8
:10514000694628460294FCF750FA08212846FCF7E5
:1051500034FB012211462846FCF7A6FC0121284613
:10516000FCF788F910212846FCF739FD0121284673
:10517000FCF7BAFC80212846FCF741FD01212846B6
:10518000FCF7B5F901212846FCF78DF909B030BDCF
:105190001CB501214804FCF76CF86846FBF795FD47
:1051A000042000900320694608710020887148712E
:1051B0000120C8710920C006FBF74FFD1CBD00008F
:1051C000000400480008004800040040002C014092
:1051D00030B501218DB00846FCF74BF8092168462F
:1051E00001700321417001248470FBF7E1FD3B4D08
:1051F0002846FBF7B1F93A4801903A48002102AA43
:1052000013C2802006904000079080000890202064
:105210000591099000020B910A9001A92846FBF71D
:10522000F4F90220FBF74EFA0220FBF762FA0122A2
:1052300002212846FBF730FA01212846FBF70EFA37
:105240000DB030BD30B5012187B04802FCF71AF827
:10525000234C4C3C2046FBF76BF86846FBF789F87B
:10526000002168460171032080020091049103919E
:105270000591029069462046FBF768F80121204617
:10528000FBF7FFF8002204212046FBF7E1F8204657
:10529000FBF701F901212046FBF773F8124D204678
:1052A0002946FBF736F90028F9D001212046FBF703
:1052B00016F902212046FBF71CF9E4E610B5FFF7CA
:1052C00067FFFFF785FFFFF7BDFF10BD10B5012198
:1052D0004804FBF7CEFF10BD7047F7E70800024017
:1052E0004C2401400A0100200100000100220309B2
:1052F0008B422CD3030A8B4211D300239C464EE0F1
:1053000003460B433CD4002243088B4231D30309AC
:105310008B421CD3030A8B4201D394463FE0C3095E
:105320008B4201D3CB01C01A524183098B4201D376
:105330008B01C01A524143098B4201D34B01C01A61
:10534000524103098B4201D30B01C01A5241C308D9
:105350008B4201D3CB00C01A524183088B4201D348
:105360008B00C01A524143088B4201D34B00C01A34
:105370005241411A00D201465241104670475DE049
:10538000CA0F00D04942031000D3404253400022CC
:105390009C4603098B422DD3030A8B4212D3FC2275
:1053A000890112BA030A8B420CD3890192118B42F4
:1053B00008D3890192118B4204D389013AD092110A
:1053C00000E08909C3098B4201D3CB01C01A5241C5
:1053D00083098B4201D38B01C01A524143098B428E
:1053E00001D34B01C01A524103098B4201D30B0177
:1053F000C01A5241C3088B4201D3CB00C01A52419C
:1054000083088B4201D38B00C01A5241D9D2430882
:105410008B4201D34B00C01A5241411A00D20146BF
:10542000634652415B10104601D34042002B00D529
:105430004942704763465B1000D3404201B50020EB
:10544000C046C04602BD704770477047F0B50C4675
:10545000871A9C410D46861A9D4103D2C01BA1416B
:10546000D21963410D0D1F0DC94EEC1BAE435CD02C
:105470007F057F0D0026002F51D02D05AC46A94396
:10548000DD020123ED0A1B051D4320231B1B24D431
:105490001746E740381871412F46E740CC199D4028
:1054A0002818314661410C0D27D161449A4013D52B
:1054B0000023401C594152000ED1400840000122F7
:1054C0004B005205D34207D305204007C14201D506
:1054D000B04900E0B0493046F0BD6B00002A00D072
:1054E00001229A181F23203C1B1B01D5002302E038
:1054F000E540281871410C0DD7D001242405091965
:10550000C407CD0740084908E40F28436144002C34
:10551000D5D00024401C61419A40D0D1CDE76A0526
:10552000520DD9D1C90FC907D5E79C4D4E000028AF
:1055300001D0012400E0002434195F00002A01D0CA
:10554000012600E00026BE19954FAC420CD8AE42B1
:105550000AD8B44206D001256D05EC42BCD01046F5
:105560001946F0BD9942FCD000203946F0BDF0B597
:105570001FB40C460F46811A9F412546861A9D414D
:1055800006D20125ED076F40401ABC4152187B41FD
:10559000210D1E0D8D1BAC467D4D8D437ED07505B6
:1055A0006D0D7CD00D05AE46AC431B031B0B794D36
:1055B00052429D41202366469B1B14D31746F74059
:1055C000381800260090744160462F460741E419C0
:1055D00000989D402818664116D4714671189A406B
:1055E00025D5012320E093182A466A415200002B5A
:1055F00000D0521C1E23203E9B1B002B61DD354139
:10560000EE1728186641E8D5001876415B1C9A40D1
:1056100000D3401C4B05F3181524E34010D3002B96
:1056200052D071467118D30FC01802D3491C05B06F
:10563000F0BD0123DB079A42F9D140084000F6E7AC
:1056400001225205B21801D1002853D00123CC0AFF
:10565000DB029943891E002A08D1020C03D0020CF8
:105660000004103902E00246002020390023550BC7
:1056700005D112020823550B01D152010D23550CFF
:1056800001D112011B1DD50C01D192009B1C150DDF
:1056900001D152005B1C2025EE1A01E02CE022E033
:1056A0000546F54015439840CA1AE10769181305E5
:1056B000C918002ABBDA032040070818C10FC90720
:1056C0000FE071466118B2E7F10740080843711016
:1056D00071444A000CD001235B059A42A7D2C90F3E
:1056E000C9070020A3E74905490D26D1002001E0A4
:1056F0000028F4D100219AE7284D6600002801D047
:10570000012100E0002171185F00002A01D001266C
:1057100000E00026BE19224FA94210D8AE420ED892
:10572000B14208D001256D05E94206D01946A8020C
:10573000414010467BE79C4201D0214677E700209C
:10574000394674E710B50C465C4005D50124E407E2
:105750006340FFF70CFF10BDFFF778FE10BD30B4BB
:105760000C465C4004D50124E407634030BC6DE680
:1057700030BCFCE670B50124E40761400D465D4095
:1057800002D4FFF763FE70BD6340FFF7F0FE70BD0B
:10579000FF0700000000F0FF0000F07F0000E0FFC6
:1057A0000000F87F1F22030C02D10F22000402D058
:1057B000030E03D004E00020014670470002083ABF
:1057C000030F01D10001121F830F01D18000921E2F
:1057D000002801DB4000521E120551184205C0127C
:1057E000411810467047C10FC90700D0404201223E
:1057F00092071143D6E701218907D3E770B5054623
:105800004800440D124B0020002C0AD0634008D001
:105810009A4206DA6642B24203DD1205401951414E
:1058200070BD002C08D0002B09D0C90FC907002A71
:10583000F6DB084A114370BDC90FC90770BD284681
:105840000A03104302D00020034970BD284670BDF2
:10585000FF0700000000F07F0000F87F0121C9056C
:105860000123411842001B06D3185B0E0AD0C11059
:105870000722D206891840075242D14201D5520070
:1058800089187047090208D50146002A03D0C10FC4
:10589000C9070020704710467047420202D000201E
:1058A00002497047072109050143F4E70000F87F2A
:1058B00010B501469E240002CA15A307002A02D093
:1058C0001843002A04DBA21A002A0CDDD04010BDC8
:1058D0001206120E01D140004008A21A03D4D04093
:1058E00040420028F3DDFF2248001206904201D911
:1058F000002010BDC817C043584010BD0102C2159A
:1059000004D00123DB071943002A0ADB9E239A1ADD
:1059100002D40846D0407047FF224100120691424F
:1059200001D900207047C017C04370471F22030CE5
:1059300002D10F2200041CD0030E01D10002083A4C
:10594000030F01D10001121F830F01D18000921EAD
:10595000002801DB4000521ED205511802125118D6
:105960001922904004D3491C002801D1490849005C
:1059700008467047C10FC90700D040420122920774
:105980001143D3E701218907D0E70000F8B5224C85
:105990004E00069DA6420AD8A64201D1002806D193
:1059A0005E00A64203D8A6420AD1002A08D00D24E0
:1059B000240425422CD02946002000F061F8F8BDCF
:1059C0000C461C430CD4994202D0EFF30080F8BD82
:1059D000904202D0EFF30080F8BDEFF30080F8BDF5
:1059E00009242407E5008B4206D0EFF30080A04392
:1059F000591A06D2284304E0101A05D3EFF30080A9
:105A0000A04380F30088F8BDEFF30080A043F1E7E6
:105A1000009500F04DF8F8BD0000E0FF10B5FF2341
:105A20001B0644009C421DD84C009C421AD80346D9
:105A3000124A0B4307D4401A02D3EFF3008010BD83
:105A4000EFF3008010BD081A06D2EFF300800121A9
:105A50009043C907084302E0EFF30080904380F3CE
:105A6000008810BD0D231B041A4204D011460020EB
:105A700000F006F810BD00F025F810BD0000009001
:105A8000C80212D54803400F002804D0C803C04301
:105A9000012188407047EFF30080000100090321D5
:105AA0000907084380F30088704700207047000012
:105AB00010B500200249029A00F033F810BD000032
:105AC0000000F87F10B5024800F02BF810BD000070
:105AD0000000C07F754600F053F8AE4605006946E9
