:020000040800F2
:10000000A00C0020650100088B0100088D0100088C
:1000100000000000000000000000000000000000E0
:100020000000000000000000000000008F01000838
:10003000000000000000000091010008930100088A
:100040009501000895010008950100089501000838
:100050009501000895010008950100089501000828
:1000600095010008F1340008950100089501000889
:10007000950100088B32000895010008FD31000849
:10008000A532000895010008000000009501000855
:1000900095010008950100089501000895010008E8
:1000A00095010008950100089501000895010008D8
:1000B0009501000800000000950100080000000004
:1000C00000F002F800F03EF80CA030C80838241800
:1000D0002D18A246671EAB4654465D46AC4201D180
:1000E00000F030F87E460F3E0FCCB6460126334274
:1000F00000D0FB1AA246AB463343184730570000E6
:1001000050570000103A02D378C878C1FAD8520785
:1001100001D330C830C101D504680C6070470000BD
:100120000023002400250026103A01D378C1FBD813
:10013000520700D330C100D50B6070471FB51FBDFB
:1001400010B510BD05F06AF91146FFF7F7FF03F08F
:10015000BFF805F082F903B4FFF7F2FF03BC05F026
:10016000B5F900000F4880F308880F480168090EB0
:100170000E4A914205D10E480E4901600E480F49C2
:1001800001600F4880470F480047FEE7FEE7FEE7A3
:10019000FEE7FEE7FEE700000B480C490C4A0D4B5A
:1001A00070470000A00C0020040000001F000000A9
:1001B0001810024001000000000001400000000093
:1001C000D9010008C1000008A0060020A00C0020F2
:1001D000A0080020A008002010B54E4801680122A8
:1001E0001143016041684C4A1140416001684B4A2B
:1001F000114001600168012292049143016041684D
:100200003F22120491434160C16A09090901C16298
:10021000016BFF22543291430163416B490849004D
:1002200041630021816000F02EF810BD70B5394E99
:1002300071680C2001403A483A4C03D0042901D09F
:10024000082901D0206014E07268716803239202CB
:10025000DB03150F1940AD1C002907D0F16A09070F
:10026000090F491C04F0E6FC6843EBE72E484543C0
:10027000256070682B490006000F091D085C216885
:10028000C140216070BD1CB500232248009301933A
:100290000168012212041143016051000524240366
:1002A00002680A400192009A521C0092019A002AA8
:1002B00002D1009AA242F3D10168890328D5012115
:1002C00001911A4A11211160416841604168416001
:1002D00041687F22D2039143416041681122120498
:1002E0001143416001680122120611430160016857
:1002F0008901FCD541688908890041604168022272
:100300001143416041680907890F0229FAD11CBDD8
:1003100001931CBD001002400CB8FF08FFFFF6FE61
:1003200000127A000000002000093D000020024079
:10033000864910B5884208D144150121204600F0B5
:10034000BEFF0021204600F0BAFF10BD30B5C268E4
:100350007F4B8C681A400B680D792343CC686D0382
:100360002C4323430C69496923430B431343C36064
:1003700030BD0021016001718160C1600161416196
:1003800070470029816801D0012200E00222114358
:100390008160704701617047002A026901D00A43F9
:1003A00000E08A43026170470122D2030029C1683C
:1003B00001D0114300E09143C160704701229203D4
:1003C0000029C16801D0114300E09143C16070472A
:1003D0000122D2050029C16801D0114300E09143F8
:1003E000C16070470904114301627047C2681F234E
:1003F0009B069A430A43C260704701229205002976
:10040000C16801D0114300E09143C16070470122EF
:100410005049D2050028886801D0104300E090437D
:100420008860704701224B4992050028886801D0F6
:10043000104300E09043886070470122454912064E
:100440000028886801D0104300E09043886070471E
:10045000836A0B4383624261704701225203002981
:10046000C16801D0114300E09143C160704701228F
:1004700012040029C16801D0114300E09143C1601A
:100480007047012212030029C16801D0114300E026
:100490009143C1607047826800210123DB071A4342
:1004A00082600F231B038268491CD20FD207994236
:1004B00001D0002AF7D18168002901DB006C704768
:1004C0000020704781681022114381607047816865
:1004D0000422114381607047006C80B2704700298C
:1004E000C16802D00122114301E049084900C160FE
:1004F0007047C26802239A43C260C2680A43C2605E
:100500007047002A426801D00A4300E08A434260F3
:10051000704702460020CB0104D5926801231B06D8
:100520009A4300E012680A4200D00120704701603F
:10053000704702465368002012680B400A4202D0FE
:10054000002B00D00120704701607047002401405B
:1005500003D2FFFF00270140F0B501686A4A11404D
:1005600001600021016041608160C1606749674AA4
:1005700008390F2390422DD0644AF024143290425F
:100580002FD0624A1D022832904231D05F4E1A03AA
:100590003C36B04203D1486815E04860F0BD5B4F7F
:1005A0000F2650373604B8422DD0584F6437B84222
:1005B00002D14868320106E0544F7837B84204D17E
:1005C00048680F2212061043E7E75149504F083997
:1005D000B84202D148681843DFE74D4B14339842C4
:1005E00002D148682043D8E7494B2833984202D1CA
:1005F00048682843D1E7464B3C339842CBD0444A25
:1006000050329042CAD148683043C6E730B50368DB
:10061000404A0C6A13408A684D6922430C692C4396
:1006200022438C692243CC6922434C6A22438C6A60
:1006300022431A430260CA6842600A6882604968BD
:10064000C16030BD0021016041608160C160016115
:1006500041618161C161016241628162704700292B
:10066000016802D00122114301E0274A11400160D4
:10067000704710B58030826A0B0F9C000F23A34097
:100680009A438262826A090109090A43826210BDA3
:1006900041607047406880B27047002A026801D00C
:1006A0000A4300E08A430260704702460020D100FE
:1006B00002D51749083901E014490839096811427F
:1006C00000D001207047C10002D51149083901E06E
:1006D0000E4908394860704702460020D10002D513
:1006E0000B49083901E0094908390968114200D06D
:1006F00001207047C10002D50549083901E00349CE
:100700000839486070470000FEFF00000800024002
:10071000080402400F80FFFFFE4A116849084900A3
:10072000014311607047FB4910220028086801D07E
:10073000104300E0904308607047F64900200968C4
:10074000890600D501207047F2480169090603D5E2
:10075000F1494160F14941607047EE4801698022EA
:10076000114301617047EB490420CA68D20701D0E8
:1007700001207047CA68D20601D502207047C968B7
:100780004907FBD50320704700B50346FFF7EBFF91
:1007900002E0FFF7E8FF5B1E012803D0002B00D129
:1007A000052000BD002BF4D1FAE7F0B50B27064673
:1007B0003F043846FFF7E8FF04280FD1D54C2069E5
:1007C0000225284320616661206940210843206199
:1007D0003846FFF7D9FF2169A9432161F0BD70B503
:1007E0000B252D042846FFF7CFFF04280ED1C94C56
:1007F000206904263043206120694021084320619C
:100800002846FFF7C1FF2169B143216170BDF8B5EA
:10081000064600200B273F0400900D463846FFF7A0
:10082000B3FF042815D1BB4C206901210843206186
:1008300035803846FFF7A8FF042806D1B61C290CDE
:10084000009631803846FFF79FFF2169490849002B
:100850002161F8BDF0B50B2706463F040D4638462A
:10086000FFF792FF04280CD1AA4C2069012108430C
:10087000206135803846FFF787FF21694908490024
:100880002161F0BDA3480169890503D4A2498160B3
:10089000A249816070479F480169421591430161F7
:1008A00070479C480169012252031143016170475E
:1008B00098490020C9694907890F00D00120704775
:1008C000F0B5AA24FFF7F4FF002800D000240B277E
:1008D0003F043846FFF758FF042813D18D4D28698F
:1008E0002026304328612869402108432861384682
:1008F000FFF74AFF1021042805D0052802D02A69F5
:100900008A432A61F0BD2869B043286128690E46F0
:1009100030432861824804803846FFF735FF0528B8
:10092000F0D02969B1432961F0BDF0B5C04301049D
:100930000E0E0102C7B2040E0B200D0E0004FFF7CD
:1009400023FF042831D173490A6910231A430A612D
:10095000FF2F07D0724807810B200004FFF714FF18
:1009600004281BD1FF2E07D06D4846810B200004C0
:10097000FFF70AFF042811D1FF2D07D068488581B1
:100980000B200004FFF700FF042807D1FF2C07D03D
:100990006348C4810B200004FFF7F6FE052804D04D
:1009A0005C490B69102293430B61F0BDF0B50B2736
:1009B00006463F043846FFF7E7FE04281ED1554C93
:1009C00020692025284320612069402108432061B7
:1009D0003846FFF7D9FE04280BD12069A8432061CF
:1009E00020691025284320614D4806803846FFF7CE
:1009F000CBFE052802D02169A9432161F0BDF0B5E5
:100A000006460B2094460F460004FFF7BDFE04285F
:100A100014D1404C20691025284320613E43604694
:100A20000643F82006433E4846800B200004FFF7AB
:100A3000ABFE052802D02169A9432161F0BDF0B5C4
:100A40000B2706463F043846FFF79EFE042810D1C8
:100A5000304C2069102528432061EF2006433048A0
:100A600046803846FFF790FE052802D02169A94349
:100A70002161F0BDF0B50B2706463F043846FFF76D
:100A800083FE042810D1234C2069102528432061BF
:100A9000F7200643224846803846FFF775FE0528B2
:100AA00002D02169A9432161F0BDF0B50B270646AC
:100AB0003F043846FFF768FE042810D1154C206922
:100AC0001025284320617F2006431548468038467C
:100AD000FFF75AFE052802D02169A9432161F0BD24
:100AE000F0B50B2706463F043846FFF74DFE0428B5
:100AF00019D1084C2069102528432061DF200643C6
:100B0000074846803846FFF73FFE05280BD021698D
:100B1000A94307E00020024023016745AB89EFCDE0
:100B200000F8FF1F2161F0BDF0B50B2706463F041A
:100B30003846FFF729FE042810D1304C20691025D3
:100B400028432061BF2006432D4846803846FFF7E2
:100B50001BFE052802D02169A9432161F0BDF0B533
:100B60000B2706463F043846FFF70EFE04280ED139
:100B7000224C2069102528432061214846803846B0
:100B8000FFF702FE052802D02169A9432161F0BDCB
:100B9000F0B507460B200E460004FFF7F5FD0428CC
:100BA0000ED1164C20691025284320613E800B2071
:100BB0000004FFF7E9FD052802D02169A94321615E
:100BC000F0BD0E48C0690004000E70470B48006A73
:100BD00070470A4A0029116901D0014300E08143AE
:100BE00011617047054A0146D26800200A4200D0D0
:100BF000012070470149C860704700000020024092
:100C000000F8FF1F092110B5C906884202D1012151
:100C10004C0404E05049884209D1012104022046D5
:100C200000F044FB0021204600F040FB10BD4B4982
:100C3000884202D101210402F1E74949884202D1E8
:100C400001210C05EBE74749884202D1012144020A
:100C5000E5E745498842E9D101218C05DFE7F0B598
:100C60000022032501230C6893401C409C422AD19A
:100C70000C79012C01D0022C12D1876854002E4629
:100C8000A640B74387604E79A640846826438660B5
:100C900084889C43848084888B7993401C4384801F
:100CA000066853002C469C40A64306600E790768F0
:100CB0009E403E430660C668A643C660CC799C4011
:100CC000C3681C43C460521C102ACBD3F0BD274913
:100CD000016000210171012242718171C17170476F
:100CE000012208B512040A430092C261C161009951
:100CF000C161C169C069009008BD0246128A002026
:100D00000A4200D001207047008A70470246928A4A
:100D100000200A4200D001207047808A704781611C
:100D2000704701857047002A01D0816170470185B5
:100D30007047818270474B07DB0E9A40C90810B597
:100D400089000818016A0F249C40A1430162016ACE
:100D50001143016210BD0000000400480008004873
:100D6000000C00480010004800140048FFFF00007D
:100D70000D49086070470C49486070470A4988600F
:100D8000704709490948086070470749086170477A
:100D90000549074808607047034A0146D2680020A9
:100DA0000A4200D00120704700300040AAAA00008B
:100DB000CCCC000030B5827801240178002A15D00F
:100DC0008B08174A9B009A1813688907C90EFF25DC
:100DD0008D40AB434578AD072D0E8D401D4315600A
:100DE0000078C006C00E84400E4804E0C806C00E5D
:100DF00084400C488030046030BD0B4A00291169E2
:100E000001D0014300E0814311617047042207498A
:100E10000428086902D09043086170471043FBE73B
:100E200000E400E000E100E000ED00E000E000E0B0
:100E3000F84801680122114301604168F64A1140F7
:100E400041600168F54A1140016001680122920485
:100E50009143016041683F22120491434160C16A9D
:100E600009090901C162016BED4A11400163416B3F
:100E7000490849004163002181607047E54900222B
:100E80008A708870704703460020E24A59090CD0E6
:100E900001290CD002290CD0516BDA06D20E0123A5
:100EA00093400B4200D0012070471168F5E7116AAA
:100EB000F3E7516AF1E718B50020052424030090F8
:100EC0001120FFF7E0FF0099491C0091A14201D0D9
:100ED0000028F5D01120FFF7D6FF002800D0012010
:100EE00018BDCC4A1168F8239943C000084310602C
:100EF0007047C8490028086802D00122104301E069
:100F00004008400008607047C24A516BF82399437B
:100F1000C000084350637047BE490028486B02D0A8
:100F20000122104301E04008400048637047B9497E
:100F300004220028486B01D0904300E0104348632E
:100F40007047B4490A6A520852000A620A6A0423C6
:100F50009A430A620A6A02430A627047AD490A6A02
:100F600018239A430A620A6A02430A627047A9492F
:100F70000028486A02D00122104301E040084000E6
:100F80004862704710B5A34A53687B24E403A34327
:100F90005360536808430343536010BD01229D49C9
:100FA00012060028086801D0104300E09043086052
:100FB00070470122974912040028486B01D0104362
:100FC00000E0904348637047924AD16A09090901D9
:100FD0000143D162704701228E49D204002808687B
:100FE00001D0104300E0904308607047894B5A6875
:100FF0001202120A00060843104358607047854ADF
:1010000051688908890001435160704781484068F0
:101010000C21084070477F4A5168F02399430143EF
:10102000516070477B4A516807231B029943014373
:101030005160704777494A6801239B039A434A608D
:101040004A6883B21A434A600A6B8B159A430A6353
:101050000A6B000C02430A6370476E490A6B402317
:101060009A430A630A6B02430A63704769490A6B31
:1010700010239A430A630A6B02430A637047010F05
:10108000644A01290AD00229116B0BD003239B0467
:1010900099431163116B014311637047116B890808
:1010A0008900F6E703231B04F2E75A490A6B802301
:1010B0009A430A630A6B02430A637047F8B5554EB8
:1010C0000446706800210C22564D104005D00428BB
:1010D00003D0082803D00C281AD025601AE07168C4
:1010E000706803228902D2030F0F1040BF1C002832
:1010F0000AD0F06A0107090F2846491C03F09AFD3F
:1011000078430146216005E0474839464143F9E705
:10111000464820607068464F0006000F3B5C206820
:101120000246DA40626073685B055B0FFB5CDA4085
:10113000A260336BDB0501D43E4B05E073685B04B2
:1011400001D4530800E09308E360336B5F063A4B29
:1011500003D4394F1237276100E02361376BFF0654
:1011600001D4656100E06061376BBF070ED0376B5B
:10117000BF07BF0F012F0BD0376BBF07BF0F022F69
:1011800008D0376BFF43BF0706D006E0A26104E03A
:10119000A06102E0A36100E0A561376BBF03BF0F50
:1011A0000FD0376BBF03BF0F012F0CD0376BBF03BE
:1011B000BF0F022F09D0376BBF03BF0F032F06D01D
:1011C00006E0E26104E0E06102E0E36100E0E56185
:1011D000376B3F03BF0F0FD0326B1203920F012A00
:1011E0000CD0306B0003800F022809D0306B000355
:1011F000800F032806D006E0226204E0206202E0AD
:10120000236200E02562306B000617D40748606255
:10121000F8BD0000001002400CB8FF08FFFFF6FE0A
:10122000ACFEF0FF00127A0000093D00006CDC0209
:1012300014000020809FD500008000006162E7E775
:1012400035490A6A02430A62704701223249D203D1
:101250000028086A01D0104300E0904308627047FC
:1012600001222D4912040028086A01D0104300E031
:10127000904308627047284A0029516901D0014310
:1012800000E0814351617047234A0029916901D0F0
:10129000014300E08143916170471F4A0029D169F1
:1012A00001D0014300E08143D16170471A4A00290F
:1012B000916A01D0014300E0814391627047164A70
:1012C0000029D16801D0014300E08143D16070471B
:1012D000114A0029116901D0014300E081431161E5
:1012E00070470D4A0029517A01D0014300E0814343
:1012F000517270470848416A012212061143416247
:101300007047054A0146926800200A4200D0012039
:10131000704701498872704700100240F94910B5C2
:10132000884202D10121C4143AE001218907884290
:1013300006D101210846FFF7CBFF0021012008E07C
:10134000F149884208D101210220FFF7C1FF0021A5
:101350000220FFF7BDFF10BDEC49884206D10121F4
:101360001020FFF7B5FF00211020F2E7E84988427E
:1013700006D101212020FFF7ABFF00212020E8E764
:10138000E449884207D1841501212046FFF7A0FFD8
:1013900000212046DDE7E049884209D101210C0403
:1013A0002046FFF78CFF00212046FFF788FF10BD85
:1013B000DA49884202D101214C04F1E7D849884238
:1013C000F5D101218C04EBE710B50288CD4B984292
:1013D00006D00124A407A04202D0CB4CA04203D1E6
:1013E0007024A2434C882243C84CA04203D0CD4C69
:1013F00022400C89224302804A68C2620A88028520
:10140000984208D0C44A904205D0C44A904202D0C3
:10141000C34A904201D1897A01860121818210BD9F
:101420000021C94341600021018001814180817216
:101430007047018582827047028870239A430A436D
:101440000280704741627047C1627047406A7047CE
:10145000008D704702220029018801D0114300E06D
:1014600091430180704704220029018801D0114373
:1014700000E091430180704780220029018801D05B
:10148000114300E0914301807047028808239A438A
:10149000028002880A43028070470288A14B1A40EA
:1014A000028002880A43028070470029018802D026
:1014B0000122114301E0490849000180704710B53D
:1014C0000A884B88CC881A438B8823431A430B899C
:1014D0001A434B8989891A430A434030828010BDE0
:1014E0000021018041808180C18001814181818111
:1014F000704740300029818803D00122D203114374
:1015000001E04904490C8180704770B5028C520893
:1015100052000284048C8288038B7025AB439B08A5
:101520000D889B001D4302239C438E894B882643D4
:10153000744C3343A04208D0774CA04205D0774C7E
:10154000A04202D0764CA0420DD10824A343CC89FE
:101550001C4304239C438B882343724C22400C8AF7
:1015600014434A8A22438280058389684163038445
:1015700070BD70B5028C10239A430284048C82885B
:10158000038B694D2B400D782D062D0C1D43202318
:101590009C438B891B051E0C4B8826431B051B0C8B
:1015A000584C3343A04202D05B4EB04219D15F4E3B
:1015B00032400E8AB604360C3243A04211D1802448
:1015C000A343CC892405240C1C4340239C438B88D3
:1015D0001B051B0C2343564C22404C8AA404240CAC
:1015E00022438280058389688163038470BD30B59E
:1015F000028C504B1A400284038C8288848B7025A5
:10160000AC43A4080D88A40025434B4C23400C7B1D
:101610002406240C1C438B781B061B0C2343394CDB
:10162000A04215D1424C23408C7B2406240C1C4341
:101630003E4B1C400B791B061B0C23433F4C2240A6
:101640000C8A2405240C14434A8A1205120C2243E6
:10165000828085838968C163038430BD30B5028C84
:10166000374B1A400284058C8288838B2E4C234092
:101670000C782406240C1C43324B1D400B7B1B07AB
:101680001B0C2B438D782D072D0C1D431D4B9842B1
:1016900005D12D4B13400A8A9205120C1A43828001
:1016A000848389680164058430BD00210180418004
:1016B000818081608181C18101824182704730B522
:1016C000034618330124058C8C40A543058400296A
:1016D00010D008290ED0091F0804400CC01801685A
:1016E00007231B039943016001681206120C114382
:1016F000016030BD4808C01801687023994301603B
:101700000168F4E7002C0140000400400010004094
:10171000001400400020004000400140004401400F
:1017200000480140FFFC0000FF8C0000FFFB0000B0
:10173000FFF70000FFFE0000FFFD0000FFCF0000EC
:10174000FFEF0000FFDF0000FFBF000041637047B4
:1017500081637047C163704701647047028B7023D7
:101760009A430A4302837047028BF64B09021A40E0
:10177000114301837047828B70239A430A4382830B
:101780007047828BEF4B09021A40114381837047E7
:101790000029818802D00122114301E04908490053
:1017A00081807047028B08239A430A430283704763
:1017B000028BE54B09021A40114301837047828B6B
:1017C00008239A430A4382837047828BDE4B0902C7
:1017D0001A40114381837047028B04239A430A43C2
:1017E00002837047028BD94B09021A4011430183CF
:1017F0007047828B04239A430A4382837047828B0B
:10180000D24B09021A40114381837047028B802317
:101810009A430A4302837047028B5204520C090216
:10182000114301837047828B80239A430A4382834A
:101830007047828B5204520C090211438183704716
:10184000028C02239A430A4302847047028C0823C5
:101850009A430A4302847047028C20239A43090169
:10186000114301847047028C80239A43090111437C
:1018700001847047028CB64B09021A40114301845F
:101880007047028CB04B09021A4011430184704723
:10189000028CB04B09031A4011430184704702893E
:1018A00008239A43028102890A430281704710B5D6
:1018B0000123048C8B409C430484038C8A40134393
:1018C000038410BD10B50423048C8B409C43048416
:1018D000038C8A401343038410BD042200298188AD
:1018E00001D0114300E0914381807047828B9A4B75
:1018F0001A408283828B09020A4382837047828B5B
:101900000C239A438283828B0A4382837047028B23
:10191000914B1A400283028B09020A4302837047EB
:10192000F0B5048C1026B4430484058B048C8B4FD3
:101930001B0309013D402B4312021A43A0239C4381
:101940000C43344302830484F0BD028B0C239A437E
:101950000283028B0A430283704770B5048C6408CB
:1019600064000484058B048C1B011343F3260A22B4
:10197000B54394432B430C4301210C43038304845C
:1019800070BDF8B5054608884E888A880B890C46D4
:1019900000281DD0042824D00828288C2AD070497B
:1019A00008402884A88B2F8C31036C4E12023040E3
:1019B0000243180310436B4AA88317400F430121C9
:1019C00009030F432F84E1882846FFF78FFFF8BDF6
:1019D00031462846FFF7C1FFE1882846FFF7B5FFEB
:1019E000F8BD31462846FFF79BFFE1882846FFF700
:1019F0008EFFF8BD5C4908402884A98B288C3702EB
:101A0000F3261B01B14313430B435849AB830840F2
:101A1000FF213843013108432884E1882846FFF735
:101A20006EFFF8BD00210180418001228280C180CB
:101A300001817047F8B50C46498800260125074604
:101A4000002900D10226A288012A00D1022520887F
:101A500023890028384610D0FFF762FFE188384616
:101A6000FFF755FF23892A4631463846FFF775FFB1
:101A7000E1883846FFF769FFF8BDFFF76EFFE188A0
:101A80003846FFF762FF23892A4631463846FFF77A
:101A900047FFE1883846FFF73AFFF8BD406B7047D3
:101AA000806B7047C06B7047006C7047002A82895A
:101AB00001D00A4300E08A438281704781827047E7
:101AC0000246128A00200A4200D001207047C94312
:101AD000018270470246138A002092890B400A4017
:101AE000002B02D0002A00D001207047C943018298
:101AF00070471143403001817047002A828901D02C
:101B00000A4300E08A4382817047082200298188C5
:101B100001D0114300E09143818070470189C908D9
:101B2000C90001817047028970239A430A430281E8
:101B3000704710B50446FFF7F6FF208907210843D8
:101B4000208110BDFF8F0000FFF70000FFFB0000A9
:101B5000FFFD0000FFDF0000FFF30000FF0C0000AE
:101B6000FFEF0000FF5F0000FFFE0000FFF5000038
:101B700070B516460D46044660290CD00122314648
:101B8000FFF7EBFE29462046FFF7CDFF208907210E
:101B90000843208170BD01223146FFF7C1FEF1E705
:101BA00010B504891B021343E4B20B4323430381A2
:101BB00010BD10B50446FFF7F3FF2089C108C90026
:101BC00007200143702081430143218110BD10B5DE
:101BD0000446FFF7E5FF208901218903084320819E
:101BE00010BD828870239A43828082880A43828053
:101BF00070470289D208D200028102890A43028119
:101C00007047028980239A43028102890A43028134
:101C1000704770B50589048B068CED08ED000D4307
:101C20000C4905810C40FF2102310C43AA218E434F
:101C30001901114331430483018470BD80220029BE
:101C4000818801D0114300E091438180704740308A
:101C500001827047FCFC0000F948062101705B21FD
:101C600041704F2181706621C1706D2101717D210C
:101C70004171072181717F21C171704730B5002208
:101C8000EF49012805D0782302280ED0032813D06D
:101C900018E0EC485C2305783920382408704B7034
:101CA000332D8C700DD13E2004E00B703020487035
:101CB00054238B70C87005E00B706D204870502065
:101CC0008870CA700A714A718A71CA7130BDDC4865
:101CD0000021017041708170C17001714171817189
:101CE000C171704710B5002404E00A2102F0A2FF80
:101CF000641CE4B20028F8D1204610BDF7B50C46AC
:101D00000298FFF7EFFF05462046FFF7EBFF0A2199
:101D1000029802F099FF4900CB4EC94C715C002734
:101D20002170022D06D30A2102F08EFF4800305C9C
:101D3000607000E06770032D0AD36421029802F0FE
:101D400083FF0A2102F080FF4800305CA07000E0B1
:101D5000A770042D0BD37D21C900029802F074FFF7
:101D60000A2102F071FF4800305CE070FEBDE770B0
:101D7000FEBDF7B507461046FFF7B4FF0198FFF721
:101D8000B1FF0026AE4C0546002F2FD00A21019846
:101D900002F05AFF4900AC4F022D795C217006D346
:101DA0000A2102F051FF4800385C607000E0667064
:101DB000032D0AD36421019802F046FF0A2102F0A4
:101DC00043FF4800385CA07000E0A670042D0BD3E0
:101DD0007D21C900019802F037FF0A2102F034FF8B
:101DE0004800385CE070FEBDE670FEBD26707620CF
:101DF00060707820A0705E20F4E7F7B507461046C3
:101E0000FFF770FF0198FFF76DFF00268C4C054629
:101E1000002F2FD00A21019802F016FF49008A4FA7
:101E2000022D795C217006D30A2102F00DFF4800D3
:101E3000385C607000E06670032D0AD3642101985D
:101E400002F002FF0A2102F0FFFE4800385CA07099
:101E500000E0A670042D0BD37D21C900019802F08B
:101E6000F3FE0A2102F0F0FE4800385CE070FEBD8F
:101E7000E670FEBD2670302060707620A0705E2077
:101E8000F4E7F7B507461046FFF72CFF0198FFF778
:101E900029FF00266A4C0546002F2FD00A21019801
:101EA00002F0D2FE4900684F022D795C217006D302
:101EB0000A2102F0C9FE4800385C607000E06670DC
:101EC000032D0AD36421019802F0BEFE0A2102F01C
:101ED000BBFE4800385CA07000E0A670042D0BD358
:101EE0007D21C900019802F0AFFE0A2102F0ACFE8C
:101EF0004800385CE070FEBDE670FEBD26705C20D8
:101F000060703820A0705E20F4E700224C49542312
:101F1000002801D0392000E05C2008704B708A70E6
:101F2000CA707047F1B50098FFF7DCFE05460A213C
:101F3000009802F089FE4900434F414C795C00262D
:101F40002170022D06D30A2102F07EFE4800385C83
:101F5000607000E06670032D0AD36421009802F0DF
:101F600073FE0A2102F070FE4800385CA07000E0A9
:101F7000A670042D0BD37D21C900009802F064FEE9
:101F80000A2102F061FE4800385CE07000E0E67073
:101F90002671762060717820A0715E20E071F8BD16
:101FA0002749002806D07720087079224A705022ED
:101FB0008A7006E0002008705E20487078208870E3
:101FC0006D20C870704770471D49002806D0012851
:101FD00006D0022806D0032806D007E03F2004E000
:101FE000062002E05B2000E04F200870732048705C
:101FF00000208870C87070477047144A00205378DA
:102000000F49002B07D071230B704B705C238B7032
:102010007823CB7004E0087048708870C870012085
:1020200050707047094A002093780549002B0FD063
:102030005E230B7071234B708B705C23CB700CE0B4
:102040000801002038000020DA5700082400002092
:10205000087048708870C870012090707047F3B5A0
:1020600081B00D460198FFF73DFE2946F94F002546
:10207000F94E044600293CD0F848C078002830D0FA
:102080000A21019802F0E0FD4900795C3170022CD0
:1020900006D30A2102F0D8FD4800385C707000E0D9
:1020A0007570032C0AD36421019802F0CDFD0A213A
:1020B00002F0CAFD4800385CB07000E0B570042C36
:1020C0000BD37D21C900019802F0BEFD0A2102F068
:1020D000BBFD4800385CF07000E0F570DF48C5706B
:1020E000FEBD35707570B570DC48F5700121C170AA
:1020F000FEBD0A21019802F0A7FD4900795C31700C
:10210000022C12D30A2102F09FFD4800385C707047
:10211000032C0BD36421019802F096FD0A2102F0F2
:1021200093FD4800385CB07001E07570B570042C08
:102130000BD37D21C900019802F086FD0A2102F02F
:1021400083FD4800385CF070FEBDF570FEBDC34AEB
:1021500000201379C049002B08D05E230B70402368
:102160004B7054238B705C23CB7004E00870487074
:102170008870C870012010717047F3B581B00D46AA
:102180000198FFF7AFFD2946B24F0025B24E044635
:1021900000293CD0B1484079002830D00A2101986C
:1021A00002F052FD4900795C3170022C06D30A21FD
:1021B00002F04AFD4800385C707000E07570032C36
:1021C0000AD36421019802F03FFD0A2102F03CFD90
:1021D0004800385CB07000E0B570042C0BD37D2152
:1021E000C900019802F030FD0A2102F02DFD4800DF
:1021F000385CF07000E0F5709848457134E0357057
:102200007570B5709548F570012141712CE00A2177
:10221000019802F019FD4900795C3170022C12D34B
:102220000A2102F011FD4800385C7070032C0BD3BA
:102230006421019802F008FD0A2102F005FD480022
:10224000385CB07001E07570B570042C0BD37D2143
:10225000C900019802F0F8FC0A2102F0F5FC4800E0
:10226000385CF07000E0F5705E20307140207071D5
:102270005420B0715C20F071FEBD784A0020937943
:102280007549002B08D078230B705C234B707623A4
:102290008B706D23CB7004E0087048708870C87034
:1022A000012090717047F3B581B00D460198FFF79A
:1022B00019FD2946674F0025674E044600293CD08A
:1022C0006648C079002830D00A21019802F0BCFC91
:1022D0004900795C3170022C06D30A2102F0B4FC6B
:1022E0004800385C707000E07570032C0AD36421DC
:1022F000019802F0A9FC0A2102F0A6FC4800385C13
:10230000B07000E0B570042C0BD37D21C90001989A
:1023100002F09AFC0A2102F097FC4800385CF07049
:1023200000E0F5704D48C57134E035707570B570DA
:102330004A48F5700121C1712CE00A21019802F090
:1023400083FC4900795C3170022C12D30A2102F01F
:102350007BFC4800385C7070032C0BD3642101981F
:1023600002F072FC0A2102F06FFC4800385CB07089
:1023700001E07570B570042C0BD37D21C900019864
:1023800002F062FC0A2102F05FFC4800385CF07049
:1023900000E0F570782030715C2070717620B071AB
:1023A0006D20F071FEBD70477047F3B581B00746F0
:1023B0000298FFF797FC0546782079216D220026C8
:1023C000254C012F07D0022F15D0062323706070F3
:1023D000A170E270FEBD214B1D7A2670002D04D045
:1023E0006070A170E2701E72FEBD6670A670E6702D
:1023F00001201872FEBD0A21029802F01BFC490060
:10240000144F022D795C217006D30A2102F012FCD0
:102410004800385C607000E06670032D0AD36421C8
:10242000029802F007FC0A2102F004FC4800385C24
:10243000A07000E0A670042D12D37D21C90002987F
:1024400002F0F8FB0A2102F0F5FB4800385CE0706E
:10245000FEBD0000DA57000808010020240000201B
:10246000E670F5E7F7B507460298FFF73BFC002654
:10247000BC4C0546012F05D0022F1CD0267066707B
:10248000A67046E026706670A670B748E670417A7E
:10249000002909D05B212171782161717921A17115
:1024A0006D21E1714672D3E726716671A671E671FE
:1024B00001214172CCE70A21029802F0BBFB4900DE
:1024C000AA4F022D795C217006D30A2102F0B2FBDB
:1024D0004800385C607000E06670032D0AD3642108
:1024E000029802F0A7FB0A2102F0A4FB4800385C26
:1024F000A07000E0A670042D0BD37D21C9000298C6
:1025000002F098FB0A2102F095FB4800385CE0706D
:1025100000E0E6705B202071782060717920A07166
:102520006D20E07194E710B50C4609200821C00623
:10253000FEF7E3FB8B49002802D0012804D007E016
:10254000012C05D1302006E0002C03D0012C04D052
:10255000002000E00620087210BD3620FBE781480D
:10256000002101705E214170542181707921C17078
:1025700070477C48782101706D2141703E21817047
:102580005E21C1700021017141718171C17170477B
:102590007448782101703021417054228270C170DA
:1025A0000021017141718171C1717047704770479D
:1025B0006C4900220A7139234B716D238B715E23A4
:1025C000CB715C23002802D00A70542001E07120F6
:1025D000087048708B70CA70704762487121017032
:1025E00041708170C1707047704770B50446604D8E
:1025F000C00701D0002200E0012220212846FEF77A
:1026000092FBA00701D5002200E00122012128460B
:10261000FEF789FB600701D5002200E001221021AE
:102620002846FEF780FB534E200701D5002200E02C
:10263000012280213046FEF776FBE00601D500221C
:1026400000E0012280212846FEF76DFBA00601D59F
:10265000002200E0012240213046FEF764FB6006C4
:1026600001D5002200E0012201213046FEF75BFB8C
:1026700070BD70B5044640493E4BC00701D00122F1
:1026800000E000221846FEF74EFB3C49384DA007FB
:1026900001D5012200E000222846FEF744FB600736
:1026A00001D5012200E0002240212846FEF73BFB35
:1026B000200701D5012200E0002208212846FEF76C
:1026C00032FBE00601D5012200E000220421284669
:1026D000FEF729FB2A4DA00601D5012200E00022C9
:1026E00008212846FEF71FFB600601D5012200E005
:1026F000002208212846FEF716FB200601D50122FC
:1027000000E0002208212846FEF70DFBE00501D578
:10271000012200E0002208212846FEF704FB70BDDC
:1027200070B5114D0F4928782C46095C0C34217086
:102730000E4940001239085A60600020FFF755FF2B
:102740006068FFF796FF2078FFF74FFF6068FFF79C
:1027500090FF2878411C2970082801D30020287098
:1027600070BD00000801002024000020DA57000896
:102770000004004800000048008000000001000044
:10278000001400481CB501214804FEF774FD012126
:102790008804FEF770FD0121C804FEF76CFD0121DD
:1027A0008805FEF768FD00206946087148719F485A
:1027B0008188009100686946FEF751FA9B484030D5
:1027C0008188009100686946FEF749FA97486030B1
:1027D0008188009100686946FEF741FA93482030ED
:1027E0008188009100686946FEF739FA1CBDF0B493
:1027F00009228E49D206012040020A6088800D23FA
:102800008B71002048810861C87116240C771F2540
:102810000D7232278F6114264E6120310127FF028D
:102820000A608F808B7148810861C8710C770D72C6
:1028300064278F614E6120310127BF020A608F80BB
:102840008B7148810861C8710C770D7264278F61A4
:102850004E6120310A60012212038A808B71488107
:102860000861C8710C770D728F614E61F0BC89E709
:1028700030B581790022212320240D2909D00B298C
:1028800014D00C2911D184690169A1420DD30372BE
:1028900007E085690169A94208D30372C17900295B
:1028A00003D102614189491C418130BD0472F8E7BE
:1028B00010B5044681880068FEF71FFA217F1629AB
:1028C00005D0152902D1012800D0002010BD002814
:1028D000FBD1012010BD70B554482030FFF7E8FF50
:1028E000524E012420360025012805D03046FFF73E
:1028F000DFFF002805D005E03069401C3061F4712D
:1029000000E0F5713069002805D048482030FFF715
:10291000CFFF002809D0B1693069884209D94348FE
:102920002030FFF7C5FF012803D140482030FFF7D2
:102930009FFF3E48FFF7BCFF3C4E012805D03046C4
:10294000FFF7B6FF002805D005E03069401C306174
:10295000F47100E0F5713069002804D03348FFF7C6
:10296000A7FF002808D0B1693069884207D92F48ED
:10297000FFF79EFF012802D12C48FFF779FF2B4873
:102980004030FFF795FF294E4036012805D03046EC
:10299000FFF78EFF002805D005E03069401C30614C
:1029A000F47100E0F5713069002805D01F4840300F
:1029B000FFF77EFF002809D0B1693069884209D944
:1029C0001A484030FFF774FF012803D11748403000
:1029D000FFF74EFF15486030FFF76AFF134E603671
:1029E000012805D03046FFF763FF002805D005E039
:1029F0003069401C3061F47100E0F57130690028E5
:102A000005D00A486030FFF753FF002809D0B169AC
:102A10003069884209D905486030FFF749FF01282D
:102A200003D102486030FFF723FF70BD140100207E
:102A300010B500280AD001280DD0022812D0032892
:102A40000FD11F220B211920000208E01F220B21A9
:102A5000FF20193003E019201F220B21400101F053
:102A6000F3FE10BD1F220B2119208001F7E7F8B5F6
:102A7000F84E002470783546C1060C3527460029EB
:102A800004DAEF2108407070FFF7CCFAA5E02020AF
:102A90002870F148C079002803D1F048C079002897
:102AA00007D07078EF21084070700220285E002166
:102AB00008E07078C10607D5EF2108407070022049
:102AC000285E0121FFF7CBFAE3490A20085EF2797C
:102AD000904202D00A7A202A03D0C879012807D070
:102AE00009E0F0714F816888401C6880012404E08F
:102AF000087A21280ED020200872D8480A21415E89
:102B0000F279914202D0017A202921D0C17901299C
:102B100024D026E04F810869FF21913188420AD2F2
:102B20000A2110E0B0680128E7D16888401C68805D
:102B30000124B760E1E70146FF39FF229239903264
:102B40009142EFD2052102F075F80029EAD0D4E7CE
:102B500047816888401E6880012404E0017A2129A9
:102B600008D0202101720220285EBD4988421FDB67
:102B7000698020E047810069FF21913188420AD2B3
:102B80000A2110E0B0680128EDD16888401E6880F5
:102B90000124B760E7E70146FF39FF2292399032FE
:102BA0009142EFD2052102F045F80029EAD0DAE798
:102BB000002800DC6F807078C1060ED5012C0CD186
:102BC000EF210840707000242978A64800F0F0F941
:102BD0000221695EA44800F0EBF9A448017A20299B
:102BE00003D14089042800D151E7F8BD10B59949B7
:102BF0004878C20604D5EF2210404870FFF7FDF96F
:102C000094491F200C31087010BDF8B5924F002573
:102C1000964E904C2BE0FFF7E9FF0A20385EA17931
:102C200088420BD0397A202908D1A0717D81E078C3
:102C3000401C40B2E070012800DDE57087490A20A1
:102C4000085EA27990420BD0087A202808D14D81E5
:102C5000E078401E40B2E070002801DA0120E07008
:102C60000A20305E042802DB052070812AE0E0782B
:102C70000028D0D026E0FFF7FAFE0A20385EA179BE
:102C800088420AD0387A202807D17D81E078401C1C
:102C900040B2E070012800DDE570704A0A20105E45
:102CA00088420BD0107A202808D15581E078401E48
:102CB00040B2E070002801DA0120E0700A20305EA6
:102CC000052802DAE0780128D5D0F8BDF8B5614DC5
:102CD00000242857FFF778F95F490A20085E6A79CF
:102CE000FF2791370026904202D00A7A202A03D08B
:102CF000C879012803D005E068714E811BE0087A8D
:102D000021280ED02020087254480A21415E6A7999
:102D1000914202D0017A20291FD0C17901291ED009
:102D200020E04E810869B8420AD20A2110E0A86862
:102D30000128E9D1AE602878401C28700124E3E71F
:102D40000146FF39FF22923990329142EFD205219C
:102D500001F070FF0029EAD0D6E7468115E0017A3C
:102D6000212908D0202101720020285600281EDACF
:102D7000032028701EE046810069B8420AD20A2169
:102D800010E0A8680128EFD1AE602878401E2870B6
:102D90000124E9E70146FF39FF229239903291423E
:102DA000EFD2052101F046FF0029EAD0DCE7032835
:102DB00000DD2E706878C10604D5002C02D0EF210A
:102DC00008406870F8BDF8B52448284FC07901283C
:102DD00002D1F87901287DD02548C079012879D021
:102DE0001D480126C0791B4D012873D07AE00024CC
:102DF00019487C814481FFF769FF78890128FAD05E
:102E000000202856FFF714FE1DE0A878FFF7C8F849
:102E100011490A20085E2A79904202D0087A2028B7
:102E200008D00E480A21415E91420CD0017A202937
:102E300009D121E04C8120E0AE7000E0AC70A978AF
:102E40000C4800F0B5F878890228DED080B203285B
:102E500017D025E04000002054010020740100201C
:102E60000F27000000590008005D00083401002011
:102E700014010020006D00084481A8780028DDD1ED
:102E8000DAE7387A20282DD1204800781F2802D090
:102E9000202802D002E0EC7000E0EE70FFF7B5FEF3
:102EA000387A20281ED178890328F7D017E0FFF759
:102EB00056FB387A202815D10A20385E06280EDB0A
:102EC0007C81FC71114C1248217800F071F80221CC
:102ED000615E00E011E00F4800F06AF802E07889D6
:102EE0000528E4D0F879012804D1B9693869884205
:102EF00000D37CE7387A2128FBD0F8BD70477047B3
:102F00007047704770477047704700004C000020C2
:102F100000590008005D000810B50446FDF714FCD8
:102F20003520FDF767FE2046FDF73FFC3520FDF715
:102F300061FEFDF712FC10BD70B50C460546FDF7AD
:102F400003FC3520FDF756FE21462846FDF75FFCC1
:102F50003520FDF74FFEFDF700FC70BD10B5284889
:102F6000FFF7DAFF2748FFF7D7FF2748FFF7D4FF1F
:102F70002648FFF7D1FF264C2046FFF7CDFF254816
:102F8000FFF7CAFF2448FFF7C7FF2448FFF7C4FF35
:102F90002348FFF7C1FF2046FFF7BEFF2046FFF79B
:102FA000BBFF2046FFF7B8FF2046FFF7B5FF10BD77
:102FB000F3B504460646006881B01A4D0127BF02EA
:102FC000286008E0241DA01BB84202D93046FFF754
:102FD000A3FF20682860401CF4D120460299FFF727
:102FE000ABFFFEBD026801460E4B1A60521C03D0B7
:102FF0000146001D0268F8E7086818607047000085
:1030000000590008005D0008006100080065000824
:10301000006D0008006900080071000800750008D4
:103020000079000854000020F8B56248624D00683D
:10303000002769425D4C5E4B604E42180EE02178DD
:1030400000290BD02770A84202DA1988491C04E035
:103050005B49884202DD1988491E1980B242EED2CE
:1030600058490978002914D0574E584F0021CA01F9
:1030700000209519D3198200401CAC58C0B29C5056
:103080002028F8D3491CC9B20429F0D37D2080013F
:10309000F8BD02F0D7F8F8BD70B5FFF7C5FF4C4C8E
:1030A0004C49606009784C4D002910D04B494C4A7E
:1030B0000978002902D0012904D013E04949088089
:1030C000002002E048490880012050810AE01428CD
:1030D00002DC1420606003E04449884200DB616048
:1030E000A08828800926F60608213046FDF705FE4F
:1030F000024608213046FDF716FEA08800B228805F
:1031000070BDF8B53A4D0024E879264601283CD137
:1031100033482F4FC079012838D032E00120387071
:103120002248082106700920C006FDF7E6FD024688
:1031300009200821C006FDF7F6FD21461720FFF7FC
:1031400034F9FFF7A9FF044603E021460220FFF708
:103150002CF968890128F8D00A20285E02280DDBA6
:10316000A8816E811F20234928724E81087222494E
:103170004E8108721A4908727E703E70E879012803
:1031800003D1A96928698842C8D26E81F8BD10B5FB
:1031900006480178002907D0002101700548006821
:1031A00002F02AF80A49886010BD0000750000206E
:1031B0009C000020B80000200000C84401C0470067
:1031C00000C00F45700000209403002094010020EF
:1031D00058000020420000208E00002073000020D4
:1031E000340100208600002088000020FF0F00002E
:1031F00014010020540100207401002070B5012149
:103200008D072846FEF766FC00283DD0324C20682A
:10321000401C206031494868401C48602068C00755
:1032200011D12F480078002803D02E480188491C6E
:1032300001802D480078002803D02C490888401CC4
:103240000880FFF76DFA0A21206801F0F3FC0126DF
:10325000002903D1FFF73FFB254806602068FF21C6
:10326000F53188420CD300F0C0F8224810220178D2
:1032700071400170204801781143017000202060E6
:1032800001212846FEF732FC70BD10B51B4C012110
:103290002046FEF71FFC002803D001212046FEF740
:1032A00025FC10BD10B5164C10212046FEF712FC6F
:1032B00000280CD002211348FDF71FFD002802D181
:1032C00011490120087010212046FEF70FFC10BDA7
:1032D00001F06BF8FCE70000640000204C000020C7
:1032E0006E0000208A0000206F0000208C0000206B
:1032F000480000206900002041000020002C01400F
:1033000000040040000400486800002030B500239D
:1033100005E09D004D59046864195B1C04609342EC
:10332000F7DB30BD70B50B460446002103E08D008D
:103330005D592818491C9142F9DB01F07BFC2060A3
:1033400070BD70B5FC4CE07825468C3500283AD12C
:10335000286801F0B3FF216D02F096F904D2206DC8
:1033600001F04AFF286022E0686801F0A7FF216DA4
:1033700002F08AF904D2206D01F03EFF686016E089
:10338000A86801F09BFF216D02F07EF904D2206D48
:1033900001F032FFA8600AE0E86801F08FFF216DBC
:1033A00002F072F903D2206D01F026FFE86003CD30
:1033B000401806CD89184018C117890F08188010C9
:1033C000E0650020206670BD30B504460023184635
:1033D00007E08200A2589A4201D913460546401CD4
:1033E00000B28842F5DB284630BD10B5D24C606D86
:1033F00001F002FF606410BDCF48817A012906D038
:103400002221415E502902DB0021817141847047F5
:10341000F8B5C94CA07A012869D02079E1788842B2
:1034200001D1012100E00021C44D61712B780920F8
:103430000027C0061F2B0ED02E460225755F72682E
:10344000BD4E366C7543202B13D0BC4E212B1DD0A6
:10345000222B2AD049E0002905D001220821FDF7BE
:1034600062FC6F603FE000220821FDF75CFC6F60AA
:103470003BE0002906D001220821FDF754FCAF48AB
:10348000476032E0AA4230D9002204E0002906D089
:10349000AA422AD901220821FDF745FC23E0002297
:1034A0000821FDF740FC77601FE0637D0E461E4358
:1034B00002D0002909D106E0A04900224F6008216E
:1034C000FDF731FC11E0012B0FD1AA4206D20122F7
:1034D0000821FDF728FC0120607506E00022082184
:1034E000FDF721FC67750120A0756079A070F8BD1B
:1034F000FEB50220FDF7F0F8002850D090480021DA
:10350000415E90488C4C411A0C202056C2018E48D6
:1035100012183220205E8300D150401C6086207833
:10352000002828D020200921C90688618748102159
:1035300001812046803007687F1C07603420205EB0
:1035400001F0F5FD022201F0FDFD05460E4638466C
:1035500001F0F5FD2A46334601F0F2FF0BD8214673
:10356000002080310860207010210920C006816190
:103570007648202101813220205E20280CDB0020AB
:103580006086A06E0126401CA066A17B012907D0A1
:103590006F49884200D3A6730220FDF7ABF8FEBD49
:1035A000207B401C41B221730429F5DB664F0020CB
:1035B000C901CD198200D1198024BB586458401C20
:1035C0001B19FF2401346458FF31813109686118E7
:1035D00059188908A9502028ECDB5E4800250560B1
:1035E0002021C567FFF7F0FEC2B290003B46C0182D
:1035F000514CFF30FF30E2730230076851493846C2
:1036000032389139E76788427ED8D01E1B2828D2ED
:10361000501EC0B220748446911EC8B260748646A3
:10362000511CC9B2901CA174C0B2E07400906046F5
:103630008000C018FF30FF3002300068E06670463E
:103640008000C018FF30FF3002300068206788001B
:10365000C018FF30FF3002300068606700988000BB
:1036600013E0022A18D82574501C6574C0B2A074E7
:10367000911C8000C9B2C018E174FF30E566FF30CC
:1036800002302567006860678800C018FF30FF308F
:1036900002300068A06719E01E2A17D3501EC0B27E
:1036A0002074911E8000C9B2C0186174FF30A574E7
:1036B000FF30E57402300068E0668800C018FF3013
:1036C000FF30023000686567A5672067607C236F64
:1036D00000935843237CE16E01914B43C118606F06
:1036E000A37C7A434343D21886468818E37CA26FB2
:1036F00001995343C3181B029C46009B70465918FE
:10370000C9190818811800E011E1604601F092FA29
:1037100009498031886001F0D9FD20650146257393
:103720002846258601F0DCFF0B496065884215DBE1
:103730000846606517E00000680000204C0000208B
:1037400004010020FF0F0000940300202000004827
:10375000C409000094050020003C1C460121C90555
:10376000884200DA6565207A00280FD02620205E86
:1037700001F0A4FD616D01F05DFFF848205E7CD88A
:1037800001F09CFD616D01F0ABFFC2E036203946CF
:10379000205E01F04FFA7D210901484300B2F04A52
:1037A000A08600215156002906D0012908D00229FF
:1037B0000BD003290CD00FE028280DDB282002E0D5
:1037C000AA2809DBAA20A08606E0FF21733100E0C9
:1037D000E449884200DBA186A08EE086608D401C13
:1037E00060852E20205E01F069FD616D01F022FFF1
:1037F00003D8606D01F000FDE0852C20205E01F013
:103800005DFD616D01F040FF03D8606D01F0F4FCD7
:10381000A0852A20205E062807DD6585E08DA18D24
:10382000401A2085E585D048A085D0480078012839
:1038300002D0002837D070E02020205E01F03EFD4D
:10384000616D01F0F7FE09D81E20205E01F036FD03
:10385000616D01F019FF01D8E6705EE0FF20676D31
:10386000C005C7420DD220202821205E615E401A8B
:10387000503801F023FD394600E03DE001F004FF3F
:103880000FD91E202821205E615E4018503001F0C3
:1038900015FD616D01F0CEFE3FD8B548616D8142E6
:1038A0003BDCE57039E02820205E01F040FC01227D
:1038B000D24301F047FC074626200091205E01F02C
:1038C00036FC3A46009B01F0EEFB07460091606D26
:1038D00001F068FC3A46009B01F000FEBCD92620AE
:1038E0002821205E615E4018503001F0E7FC616DD8
:1038F00001F0A0FE11D8D4E701F0E0FC616D01F009
:10390000C3FE0AD22620205E01F0D8FC616D01F0D2
:10391000F3FE01F097FC974948606673FFF778FD66
:10392000FFF76AFDA1796079FEF7FDFD34E62675A3
:10393000B7E700216422504300E0491C8842FCD8CC
:103940007047F8B58B4C7D21C900803C8A48E184E2
:1039500033220270894F1F263E700A207880884AE1
:10396000642010800420A08301202071E18349108D
:1039700021847E4900250D708249087082490870B3
:10398000606E2566A565E065258631467F48FFF7B0
:103990000FFB3220FFF7CDFF0221795E7C48FFF755
:1039A00007FB3220FFF7C5FF2621615E7948FFF74C
:1039B000FFFA3220FFF7BDFF774FA16C3846FFF7C3
:1039C000F7FA3220FFF7B5FF6B4801787348FFF72D
:1039D000EFFA3220FFF7ADFF21797148FFF7E8FADF
:1039E0003220FFF7A6FFA18B6E48FFF7E1FA3220E5
:1039F000FFF79FFF6C48616EFFF7DAFA3220FFF79E
:103A000098FF3220FFF795FF584801783846FFF7B6
:103A1000CFFA3220FFF78DFF1E21615E3846FFF797
:103A2000C7FA3220FFF785FF2021615E3846FFF795
:103A3000BFFA3220FFF77DFF534841573846FFF762
:103A4000B7FA5A48067205614581594806724581A0
:103A5000F8BDF8B5554C207A21283AD15548564939
:103A6000C3791F27CA790026002B04D10D7A212D96
:103A700001D1012A04D04E4D2D7A212D2AD02FE0DC
:103A80003D4D2A78332A0FD033222A7000226281DA
:103A90000E460120FEF7F2F83649012080394872BF
:103AA000207A212802D00BE03422EEE74148C07989
:103AB000002805D1307A212802D1F0790128E8D0F8
:103AC00029783648FFF774FA2772002060817081E8
:103AD0003772F8BD364DED79012D01D1002B12D092
:103AE000012BF6D1037A212BF3D1002AF1D1214AFF
:103AF0002546803A0446D6640320FEF7BFF8287AAC
:103B000021285BD064E00D46002AE2D1FEF7DFF801
:103B10000FE0FFF723FA02E00220FEF7AFF8234898
:103B2000FEF7C6FE012804D12148FEF7C1FE012898
:103B3000F2D01E48FEF7BCFE012804D11C48FEF757
:103B4000B7FE0128E5D0FFF7FCFE668127726E8183
:103B500018482F72468107723FE0000026000000DF
:103B60004000002022060000FF0F0000420000205D
:103B7000003C1C46E8000020380000204C000020DB
:103B80003A0000203C0000203D00002000590008C1
:103B9000005D000800650008006D0008006900086D
:103BA0000071000800750008007900083401002049
:103BB000140100205401002074010020E079012844
:103BC00006D1207A212803D1FC48C079002893D05F
:103BD0002F722E616E81668127727D20C000FFF7F3
:103BE000A8FEF8BDF8B5F64C2079FEF78EF9F54938
:103BF0000A20085E627E0126F34F002590420CD019
:103C00000A7A202A09D160764D812079002817D0C0
:103C1000257121793846FFF7CBF9E8480A21415E42
:103C2000627E91420BD0017A202908D1458120790A
:103C3000002807D0257121793846FFF7B9F9F8BD7A
:103C40002671E6E72671F6E7FEB5E048DC4EC0795E
:103C5000717A084374D1DE480078332870D1262564
:103C6000755F3587D7480A22825E681CF17D00B2F5
:103C70000190D4488A42007A02D0D24B20280AD040
:103C8000D04AD44FD379CE4A3C68526C012B12B241
:103C9000009209D00BE0F275002058810198CE49BE
:103CA000F084884253DA5DE0C64A212812D0C44825
:103CB000C24BC08C0A22401E9A5E00B20190184688
:103CC000007A8A4201D020283BD0DA791946012AAD
:103CD0003FD040E000205081FF211069913188429F
:103CE0000BD80A2100F0A6FF00291ED1012C1CD1FF
:103CF0000198F0840020386017E00146FF39FF2268
:103D00009239903291420AD8052100F093FF0029A0
:103D10000BD1012C09D10020AD1C386004E0012C2E
:103D200003D100206D1D3860F5842621715EAA48FC
:103D3000814200DBF0842621715E0120009A0FE0B1
:103D400021E0002159810198F08400280ADCF184E7
:103D500008E0212818D02020187229467078009A8F
:103D6000FEF707F838202621305E715E88420AD0BF
:103D70009248C079002806D19248C079002802D123
:103D80009648FFF715F9FEBD00204881FF2118690C
:103D90009131884209D20A2100F04CFF00291DD13F
:103DA000012C1BD10198F0840FE00146FF39FF225E
:103DB0009239903291420BD2052100F03BFF00294D
:103DC0000CD1012C0AD1AD1EF5840020386005E02D
:103DD000012C03D100206D1F3860F5842620305E51
:103DE0000028A8DC0020A5E7F0B575487449C37A1F
:103DF00076484A7AC0798BB01043754C039020788E
:103E0000704A01900A20105E0090C0B20A901046DD
:103E1000C0790990104602696E4E1046FF3834682A
:103E20009238664D08900A20285E0790486C05B2CB
:103E30006248C0790690614800690746FF3F923F9B
:103E400002974F7804975F4F097E3F7A012BBC465B
:103E50005A4F3F7A05971CD0022B7DD1039B002B34
:103E60007AD1019B332B77D1554F2023FB5E0193F1
:103E7000BB87019B009F5B1C1BB200938F4203D04A
:103E8000504B6746202F68D0099B4E4F012B75D0B1
:103E9000FAE0039B002B5FD1019B332B5CD1484F91
:103EA0001E23FB5E03937B87039B009F5B1C1BB25F
:103EB00000938F4203D0434B6746202F04D0099BC9
:103EC000404F012B0FD011E03D4C0A982076002086
:103ED000588100984049E083884200DBE18300225A
:103EE0001E21615E4BE06346212B10D0344A079BB4
:103EF000D28B324F521E12B200928B4202D00599E1
:103F000020293ED0069A3946012A46D048E00025AD
:103F1000FF2091307D8182420CD80A21104600F0AA
:103F200089FE002921D1012C1FD125483560009937
:103F3000C1831AE0FF210898903188420ED80521EC
:103F4000104600F077FE00290FD1012C0DD135600D
:103F500003981B49801C07E081E082E0012C04D11A
:103F6000356003981649401DC88315481E22825E9D
:103F700019498A4200DBC183002262E080E001200F
:103F800013E0002179810E4B0098D883002800DCD3
:103F9000D9831E212A46595EF1E7059A212A1FD0AE
:103FA000202038722A4603990498FDF726FF04481A
:103FB0003A221E21825E415EC7E0000074010020AB
:103FC0006800002054010020007100083401002026
:103FD00038000020480000200F270000006500087E
:103FE00000274F81FF21913188420BD20A2100F036
:103FF00021FE00291ED1012C1CD1FE4837600099FA
:10400000C18317E0FF220299903291420BD2052121
:1040100000F010FE00290DD1012C0BD13760039860
:10402000F449801E05E0012C04D137600398F14962
:10403000401FC883EF481E21415E002900DCC78372
:104040002A461E21415E9AE7EB48C079002806D136
:10405000EA48C079002802D1E948FEF7A9FF0BB071
:10406000F0BDE44C0A982076002058810098E5497C
:104070002084884200DB218420212A46615E47E0BB
:104080003B466746212F10D0DA4A079B128CDA4F45
:10409000521E12B200928B4202D00599202939D0CB
:1040A000069A3946012A41D043E00027FF2091308B
:1040B0005F8182420BD80A21104600F0BBFD002927
:1040C0001ED1012C1CD13760CA48009917E0FF208F
:1040D0000899903081420CD80521104600F0AAFDC5
:1040E00000290DD1012C0BD137600199C148891CE1
:1040F00005E0012C04D137600199BE48491D0184B7
:10410000BC482022825EBF498A4252DB018450E0D3
:10411000012013E000217981B64B00981884002813
:1041200000DC198420212A46595EF1E7059A212AEC
:104130000FD0202038722A4601990498FDF7A1FE7D
:10414000AC483C222021825E415E8A4200D07BE75F
:1041500085E700274F81FF21913188420BD20A2148
:1041600000F068FD00291ED1012C1CD1A148376048
:104170000099018417E0FF220299903291420BD2FC
:10418000052100F057FD00290DD1012C0BD137601E
:1041900001989849801E05E0012C04D137600198F0
:1041A0009449401F088493482021415E002900DC87
:1041B000078420212A46415EAAE710B592480023D1
:1041C000007892498B4A002807D0C856002801D0B1
:1041D000D0760B70FFF708FE10BDD07E002802D00D
:1041E000D37601200870FFF72FFD10BDF8B5884E7B
:1041F000814F8249F379F879CA79012B07D10128D7
:104200007AD08449C979012976D0012A74D0824CA8
:10421000784D217833294BD17D4B0A211C7A7A4B7A
:10422000715E1B78002902D0202C05D04EE00022C0
:10423000EA72202C1BD049E0012904D0022908D0C1
:1042400003290DD015E0002840D1002A3ED10120DD
:1042500004E000283AD1002A38D10220E87235E083
:10426000002833D1002A09D10320E87206E003298F
:1042700002D0042907D029E0002827D1002B25D11E
:1042800000207081EAE7002820D1012BF8D01DE042
:10429000307A212809D15949C879002805D1387ABE
:1042A000212802D1F879012827D00120FDF7E6FC6A
:1042B000F0790128ECD05748C0790128E8D0F87986
:1042C0000128E5D04D48C0790128E1D04E49E87A6F
:1042D000097802460A433AD0002836D001283DD05A
:1042E000022803D801293BD002283CD0032803D15F
:1042F000012901D1FFF776FCF8BD207833280CD0D6
:104300003320207000206872002070810120FDF7AA
:10431000B5FC307A212803D00CE034202070F3E77C
:104320003648C079002805D1387A212802D1F87999
:104330000128EBD021783948FEF73AFE1F2131726F
:104340000020708178813972B2E70129D4D1686C7C
:10435000002102B20120FDF7D1FCF8BD0029C1D136
:10436000FFF72BFFF8BD0029C4D0F8BD2A4E214C21
:10437000254D207D002810D0FEF72FF9FFF769FBAF
:1043800030783328F5D1E07A297802460A4307D0FD
:10439000012807D8012903D004E0FFF727FFEDE744
:1043A000FEF7AFFEFEF70FFDE3E700F01BFCFFF7A3
:1043B000DDFF10B50F48C06C00B2FDF7B3FD0E492C
:1043C000002048810D49488110BDF8B5094D0021F4
:1043D000A88B00B2FDF7E8FF08490A20085EAA7E14
:1043E000AC8B00262027904202D00A7A202A1AD0CD
:1043F000C87915E0680000207401002054010020F5
:10440000006D00080F270000420000203D00002042
:104410003401002014010020380000200069000849
:10442000012803D005E0A8764E8118E0087A2128FB
:104430000DD00F724A480A21415EAA7E914202D0F5
:10444000017A20291BD0C17901291AD01CE04E81A4
:104450000869FF219131884204D20A210AE0641CD4
:10446000AC83E7E70146FF39FF229239903291424F
:10447000F5D2052100F0DEFB0029F0D0DAE7468115
:1044800012E0017A212907D00772A88BFF21F531AC
:1044900088421AD3A983F8BD46810069FF21913172
:1044A000884205D20A210BE0A88B401EA883ECE7C6
:1044B0000146FF39FF22923990329142F4D2052110
:1044C00000F0B8FB0029EFD0DFE70428E3D8042090
:1044D000A883F8BD79E72348817A012906D02421F1
:1044E000415EA02902DB0021C171818470477047C1
:1044F00070B51D48FEF776FD1C4C20701C48FEF779
:1045000071FD60801B48FEF76DFD164C1A4DE0846E
:104510002846FEF767FDA0641848FEF763FD1849BA
:1045200008701848FEF75EFD20711748FEF75AFD27
:10453000A0831648FEF756FD60662846FEF752FD3A
:10454000134908702846FEF74DFDE0832846FEF724
:1045500049FD20842846FEF745FD0E49087070BDD0
:104560007401002068000020005900084C00002061
:10457000005D000800650008006D00080069000883
:10458000380000200071000800750008007900085C
:10459000420000203D00002010B50521C904002084
:1045A000FCF7F0FC0120FCF7F9FCFE48FCF742FDAB
:1045B0001920FCF768FC0028FAD00220FCF71FFD48
:1045C000FCF724FD0828FBD110BDFEB501214804ED
:1045D000FCF751FE01218804FCF74DFE0121C804BF
:1045E000FCF749FE01218805FCF745FE6846FCF70B
:1045F0006EFB012569460D7100208871032048710A
:104600000824E9480094FCF72AFB40266946E6485E
:104610000096FCF724FB600100906946E248FCF735
:104620001EFB2003009009206946C006FCF717FB1B
:10463000042000906946DC48FCF711FB6946DB4822
:104640000094FCF70CFB6946D8480094FCF707FB84
:104650006946D6480094FCF702FB6946D3480094AB
:10466000FCF7FDFA20246946CF480094FCF7F7FADE
:104670006946CD480095FCF7F2FA10276946CA480A
:104680000097FCF7ECFA8020009009206946C006EC
:10469000FCF7E5FA802000906946C348FCF7DFFA92
:1046A00009206946C0060096FCF7D9FA0920694638
:1046B000C0060095FCF7D3FA09206946C0060094AD
:1046C000FCF7CDFA09206946C0060097FCF7C7FA47
:1046D00009200022A102C006FCF725FB0022E10010
:1046E000B148FCF720FB00224021AF48FCF71BFB40
:1046F00000220821AC48FCF716FB00220421AA483E
:10470000FCF711FB00220821A848FCF70CFB002253
:104710000821A648FCF707FB00220821A348FCF764
:1047200002FB00220821A148FCF7FDFA002220210B
:104730009D48FCF7F8FA002201219B48FCF7F3FAA8
:10474000002210219848FCF7EEFA0920002280216F
:10475000C006FCF7E8FA002280219348FCF7E3FA50
:10476000092000224021C006FCF7DDFA09200022C2
:104770000121C006FCF7D7FA092000222021C0063B
:10478000FCF7D1FA092000221021C006FCF7CBFA71
:10479000FEBD1CB501214804FCF76DFD0121880414
:1047A000FCF769FD0121C804FCF765FD01218805BE
:1047B000FCF761FD6846FCF78AFA01206A46107131
:1047C000002191715171D071082000900920694633
:1047D000C006FCF744FA0220009069467348FCF7D3
:1047E0003EFA1CBD1CB501218804FCF744FD0220E3
:1047F0006946009008710320487101206A4CC87115
:104800002046FCF72CFA012211462046FCF793FAC9
:104810001CBD10B586B060216B46198001215980FE
:104820000021998099810822DA8152011A825982E5
:104830005F4C029069462046FCF710FF0821204695
:10484000FCF7C3FF06B010BDF0B50D46064685B0B7
:10485000174601210220FCF720FD1020694608734D
:104860000A2048730120887303A8FCF7A3FA504C70
:104870002046FCF753FD6846FCF7D2FD0020694650
:104880000881488001960D808872FFF7ABFF38469B
:10489000FFF7BFFF00212046FDF745F90021204624
:1048A000FDF747F906212046FDF7A3F92021204610
:1048B000FDF797F969462046FCF786FD0122102195
:1048C0002046FDF7F3F801212046FCF7D5FD012134
:1048D0002046FCF7EAFD05B0F0BD1CB501214804F7
:1048E000FCF7C9FC202000900220694608710020D6
:1048F000487101200924C871E4062046FCF7AFF98D
:10490000022205212046FCF716FA1CBD10B586B020
:1049100060206A46108001205080002090809081A5
:104920000821D1814901118250820A204407029056
:1049300069462046FCF7E9FD08212046FCF732FFD6
:1049400080E71FB501210846FCF7A7FC08206A464E
:1049500050730F2010730120907303A8FCF72AFAFC
:104960000124A4072046FCF7D9FC00216A461181E6
:1049700051802F2001907D20C00010809172012273
:1049800011462046FDF792F820212046FDF729F92F
:1049900069462046FCF718FD01212046FCF76CFD16
:1049A000012107E000400001000400480014004815
:1049B000000400402046FCF778FD1FBD1CB5012116
:1049C0004804FCF758FCFF200130009002206946A3
:1049D0000871002048710924C871E4062046FCF7DC
:1049E0003EF9022208212046FCF7A5F91CBD70B54E
:1049F00001218AB0C802FCF747FCFFF7DFFF012561
:104A0000684645700D2101708570FCF7D3F90321CC
:104A100068460183002444830220079008A87E4E44
:104A2000847006A93046FCF7CFFC6021684681807F
:104A3000C580048104820821418249018182C482A7
:104A400001A930460395FCF760FD08213046FCF7CC
:104A5000A9FE01213046FCF74CFD01213046FCF750
:104A60000BFD20213046FDF7BCF880213046FDF7D4
:104A7000C8F801213046FDF739F801213046FCF72E
:104A800014FD0AB070BD1CB501214804FCF7F3FB0E
:104A90000420009003206946087100208871487145
:104AA0000120C8710920C006FCF7D9F81CBD70B5FB
:104AB00001218CB00846FCF7DEFB0920694608702E
:104AC00000244C7001258D706846FCF773F9534E35
:104AD0003046FBF741FD52480190524802A931C1CE
:104AE00080200690400007908000089020200990C8
:104AF000059400020A9001A90B943046FBF786FD4D
:104B00000220FBF7E0FD0220FBF7F4FD0122022169
:104B10003046FBF7C2FD01213046FBF7A0FD0CB08B
:104B200070BD30B5012187B04802FCF7ADFB0C2009
:104B30006946087600244C760120887606A8FCF7A2
:104B400039F969460C71009404940394059401208A
:104B5000334CC0020290403C2046FBF7F7FB01219A
:104B60002046FBF78EFC002204212046FBF770FC58
:104B70002046FBF790FC01212046FBF702FC2A4D62
:104B800020462946FBF7C5FC0028F9D00121204624
:104B9000FBF7A5FC02212046FBF7ABFC2046FBF708
:104BA00096FC07B030BD10B5FFF76DFFFFF77FFF34
:104BB000FFF7B7FF10BD10B55D20FCF764F90028C2
:104BC00001D0FCF797FB1948FCF7D2F80420FCF75A
:104BD000D2F87D200001FCF7D1F8FCF7D2F8FCF701
:104BE000D7F810BD10B5FFF7D7FCFFF700FFFFF7B0
:104BF000A8FEFF201F220B211930FFF725FEFFF72B
:104C0000D2FF0B48FCF75AFAFFF7C3FDFFF7DDFCB4
:104C1000FDF7EDFD10BD0000002C01400800024032
:104C2000402401400401002001000001555500000E
:104C300014060020002203098B422CD3030A8B4266
:104C400011D300239C464EE003460B433CD4002284
:104C500043088B4231D303098B421CD3030A8B4296
:104C600001D394463FE0C3098B4201D3CB01C01A64
:104C7000524183098B4201D38B01C01A524143092F
:104C80008B4201D34B01C01A524103098B4201D31D
:104C90000B01C01A5241C3088B4201D3CB00C01A8A
:104CA000524183088B4201D38B00C01A5241430802
:104CB0008B4201D34B00C01A5241411A00D2014627
:104CC0005241104670475DE0CA0F00D049420310C0
:104CD00000D34042534000229C4603098B422DD30F
:104CE000030A8B4212D3FC22890112BA030A8B42B7
:104CF0000CD3890192118B4208D3890192118B4206
:104D000004D389013AD0921100E08909C3098B428A
:104D100001D3CB01C01A524183098B4201D38B01CD
:104D2000C01A524143098B4201D34B01C01A524170
:104D300003098B4201D30B01C01A5241C3088B42B5
:104D400001D3CB00C01A524183088B4201D38B00A0
:104D5000C01A5241D9D243088B4201D34B00C01A2A
:104D60005241411A00D20146634652415B1010463F
:104D700001D34042002B00D54942704763465B1087
:104D800000D3404201B50020C046C04602BD704776
:104D900070477047F0B50C46871A9C410D46861A3D
:104DA0009D4103D2C01BA141D21963410D0D1F0DBE
:104DB000C94EEC1BAE435CD07F057F0D0026002F53
:104DC00051D02D05AC46A943DD020123ED0A1B0598
:104DD0001D4320231B1B24D41746E740381871417C
:104DE0002F46E740CC199D402818314661410C0DF3
:104DF00027D161449A4013D50023401C59415200E9
:104E00000ED14008400001224B005205D34207D387
:104E100005204007C14201D5B04900E0B049304605
:104E2000F0BD6B00002A00D001229A181F23203CFD
:104E30001B1B01D5002302E0E540281871410C0D31
:104E4000D7D0012424050919C407CD074008490813
:104E5000E40F28436144002CD5D00024401C61415C
:104E60009A40D0D1CDE76A05520DD9D1C90FC907F3
:104E7000D5E79C4D4E00002801D0012400E000241D
:104E800034195F00002A01D0012600E00026BE1977
:104E9000954FAC420CD8AE420AD8B44206D0012598
:104EA0006D05EC42BCD010461946F0BD9942FCD0CD
:104EB00000203946F0BDF0B51FB40C460F46811AEC
:104EC0009F412546861A9D4106D20125ED076F4078
:104ED000401ABC4152187B41210D1E0D8D1BAC4662
:104EE0007D4D8D437ED075056D0D7CD00D05AE4694
:104EF000AC431B031B0B794D52429D412023664658
:104F00009B1B14D31746F7403818002600907441B5
:104F100060462F460741E41900989D4028186641D5
:104F200016D4714671189A4025D5012320E09318B4
:104F30002A466A415200002B00D0521C1E23203EFC
:104F40009B1B002B61DD3541EE1728186641E8D523
:104F5000001876415B1C9A4000D3401C4B05F318A7
:104F60001524E34010D3002B52D071467118D30F93
:104F7000C01802D3491C05B0F0BD0123DB079A42DB
:104F8000F9D140084000F6E701225205B21801D1DC
:104F9000002853D00123CC0ADB029943891E002A42
:104FA00008D1020C03D0020C0004103902E00246C2
:104FB000002020390023550B05D112020823550B80
:104FC00001D152010D23550C01D112011B1DD50C2D
:104FD00001D192009B1C150D01D152005B1C2025B4
:104FE000EE1A01E02CE022E00546F540154398401A
:104FF000CA1AE10769181305C918002ABBDA032089
:1050000040070818C10FC9070FE071466118B2E7E1
:10501000F10740080843711071444A000CD0012385
:105020005B059A42A7D2C90FC9070020A3E749052B
:10503000490D26D1002001E00028F4D100219AE793
:10504000284D6600002801D0012100E000217118E0
:105050005F00002A01D0012600E00026BE19224F81
:10506000A94210D8AE420ED8B14208D001256D0534
:10507000E94206D01946A802414010467BE79C420F
:1050800001D0214677E70020394674E710B50C4679
:105090005C4005D50124E4076340FFF70CFF10BD19
:1050A000FFF778FE10BD30B40C465C4004D50124F7
:1050B000E407634030BC6DE630BCFCE670B501240B
:1050C000E40761400D465D4002D4FFF763FE70BD0A
:1050D0006340FFF7F0FE70BDFF0700000000F0FF27
:1050E0000000F07F0000E0FF0000F87F1F22030CAB
:1050F00002D10F22000402D0030E03D004E00020EE
:10510000014670470002083A030F01D10001121F47
:10511000830F01D18000921E002801DB4000521E47
:10512000120551184205C012411810467047C10FB0
:10513000C90700D04042012292071143D6E701215E
:105140008907D3E770B505464800440D124B00208F
:10515000002C0AD0634008D09A4206DA6642B24276
:1051600003DD12054019514170BD002C08D0002B01
:1051700009D0C90FC907002AF6DB084A114370BDE0
:10518000C90FC90770BD28460A03104302D000208A
:10519000034970BD284670BDFF0700000000F07F86
:1051A0000000F87F0121C9050123411842001B06B8
:1051B000D3185B0E0AD0C1100722D2068918400707
:1051C0005242D14201D5520089187047090208D5D0
:1051D0000146002A03D0C10FC907002070471046BE
:1051E0007047420202D0002002497047072109059A
:1051F0000143F4E70000F87F10B501469E24000249
:10520000CA15A307002A02D01843002A04DBA21AF9
:10521000002A0CDDD04010BD1206120E01D1400054
:105220004008A21A03D4D04040420028F3DDFF22F8
:1052300048001206904201D9002010BDC817C04393
:10524000584010BD0102C21504D00123DB071943E9
:10525000002A0ADB9E239A1A02D40846D0407047DF
:10526000FF2241001206914201D900207047C01769
:10527000C04370471F22030C02D10F2200041CD030
:10528000030E01D10002083A030F01D10001121FE1
:10529000830F01D18000921E002801DB4000521EC6
:1052A000D2055118021251181922904004D3491CFA
:1052B000002801D14908490008467047C10FC907B5
:1052C00000D04042012292071143D3E70121890710
:1052D000D0E70000F8B5224C4E00069DA6420AD841
:1052E000A64201D1002806D15E00A64203D8A642FC
:1052F0000AD1002A08D00D24240425422CD02946A6
:10530000002000F061F8F8BD0C461C430CD4994213
:1053100002D0EFF30080F8BD904202D0EFF300809E
:10532000F8BDEFF30080F8BD09242407E5008B42A7
:1053300006D0EFF30080A043591A06D2284304E0B8
:10534000101A05D3EFF30080A04380F30088F8BD66
:10535000EFF30080A043F1E7009500F04DF8F8BDB1
:105360000000E0FF10B5FF231B0644009C421DD83F
:105370004C009C421AD80346124A0B4307D4401AE9
:1053800002D3EFF3008010BDEFF3008010BD081AC8
:1053900006D2EFF3008001219043C907084302E0E1
:1053A000EFF30080904380F3008810BD0D231B04B1
:1053B0001A4204D01146002000F006F810BD00F09B
:1053C00025F810BD00000090CA0211D54A03520F03
:1053D000002A04D0C803C043012188407047054A11
:1053E000EFF3008108010009104380F30088704743
:1053F000002070470000003010B500200249029ADA
:1054000000F031F810BD00000000F87F10B5024830
:1054100000F029F810BD00000000C07F754600F0C4
:1054200051F8AE46050069465346C008C00085469F
:1054300018B020B5FAF7B0FE60BC00274908B646A0
:105440000026C0C5C0C5C0C5C0C5C0C5C0C5C0C593
:10545000C0C5403D49008D4670470446C046C04621
:105460002046FAF778FE10B50C461107090F0929F6
:1054700004D00A290AD008290CD104E011460820DA
:10548000FFF7A2FF06E0510606D501E0510601D55F
:105490000120C007214610BDD10607D50101090929
:1054A000CC084907000E0006044309E0410F200222
:1054B0004907000A0143200E00061D22D141014385
:1054C0000846E7E7004870473C06002001491820DD
:1054D000ABBEFEE7260002007047000070B5012554
:1054E0000C002D051C4310D4EC4206D4AC420AD467
:1054F000994200D070BD904270BDE94217D4EB4292
:1055000015D4994270BD894270BDEC4206D5AC42BB
:10551000F9D58B4200D070BD824270BD6D004C0049
:10552000EC4204D25C00EC4201D28B4270BD034CD1
:1055300030B4FFF7CFFE30BC70BD00BF19001604B9
:1055400070B501251C002D050C4310D4EC4206D487
:10555000AC420AD48B4200D070BD824270BDEB4297
:1055600017D4E94215D48B4270BD9B4270BDEC420A
:1055700006D5AC42F9D5994200D070BD904270BDBD
:105580006D005C00EC4204D24C00EC4201D2994226
:1055900070BD0FB4034C0CBC03BC30B4FFF79AFED3
:1055A00030BC70BD1900160470B501250400ED076C
:1055B0004C4020D4441A01D2001B0919C60D4B00DF
:1055C000F2B2FF2A29D01B0E2CD000020C02D31AF3
:1055D0002C43DC402843051910D2280A02D3401C72
:1055E0006D0611D0761EF6058019FF2A00DA70BD0F
:1055F000C00DC00570BD694000F084F8012005436E
:10560000C541521C761CE8E764089C40C901614012
:105610008900E7D10124A043E4E71B0E440200D037
:10562000034870BD002AFCD1C00FC00770BD00BF89
:105630000000C07F01230200DB050A430DD4DA42DB
:1056400003D49A4207D488427047D84214D4D9422E
:1056500012D48842704780427047DA4203D59A429A
:10566000F9D5814270475B004200DA4204D24A0019
:10567000DA4201D28142704710B5024AFFF772FE4A
:1056800010BD00BF0900160401230A00DB05024318
:105690000DD4DA4203D49A4207D481427047D942EA
:1056A00014D4D84212D48142704789427047DA42FA
:1056B00003D59A42F9D5884270475B004A00DA4226
:1056C00004D24200DA4201D2884270474840414049
:1056D00010B5024A4840FFF745FE10BD0900160408
:1056E00070B50125ED07684004004C4002D56940C3
:1056F00000F008F8FFF75EFF70B501250400ED0724
:105700004C4022D4441A02D26C40001B0919C60D29
:105710004B00F2B2FF2A4BD01B0E50D000020C02FD
:10572000D31A2C43DC40A843051B05D5AD0019D383
:105730006D08761E521E37D0F605280A01D2801950
:1057400070BD70416D0603D070BD6940FFF732FF38
:105750009C4009026140490001D0401E70BD0124F7
:10576000A04370BD6D081DD001202B0C01D12D046C
:1057700010302B0E01D12D0208302B0F01D12D013D
:10578000001DAB0F01D1AD00801CEB0F01D16D00EE
:10579000401C6D00361A121A680AF5054019012AD4
:1057A00002DB70BD002070BDC036300AC00770BD7E
:1057B0001B0E440201D1FF2B00D1024870BD002A0C
:1057C000F0D070BD0000C07F01000200040008009E
:1057D000100020004000800000013F0006005B0038
:1057E0004F0066006D007D0007007F006F007700AE
:1057F0007C0039005E007900710040005C005400BC
:105800001C006D0078000000380073007100760005
:1058100030005000010002000400080010002000C9
:1058200040008000FF0000003E0000004C580008CF
:10583000000000200801000004010008545900087D
:1058400008010020980B000020010008006CDC0219
:105850000000000000000000010203040607080920
:105860000000000001020304010203040607080906
:105870000001010101010101000000000000000021
:10588000000000003300640001010000000000007F
:1058900000000000000000001F000A0000000000DF
:1058A00000000000000000000000000000000000F8
:1058B00000000000000001000100000000000000E6
:1058C00000000000000000000000000000000000D8
:1058D0003200E803F40100000000E80300000000CB
:1058E000FF0F0000000000000000000000000000AA
:1058F000000000000800000000000000E8030000B5
:105900000000000000000000000000000000000097
:105910000000000000000000000000000000000087
:105920000000000000000000000000000000000077
:105930000000000000000000000000000000000067
:105940000010000000100000001000000010000017
:045950000000000053
:04000005080000C12E
:00000001FF
