:020000040800F2
:1000000020080020650100088B0100088D01000810
:1000100000000000000000000000000000000000E0
:100020000000000000000000000000008F01000838
:10003000000000000000000091010008930100088A
:100040009501000895010008950100089501000838
:100050009501000895010008950100089501000828
:1000600095010008DB37000895010008950100089C
:1000700095010008ED340008950100085B34000884
:1000800007350008950100080000000095010008F0
:1000900095010008950100089501000895010008E8
:1000A00095010008950100089501000895010008D8
:1000B0009501000800000000950100080000000004
:1000C00000F002F800F03EF80CA030C80838241800
:1000D0002D18A246671EAB4654465D46AC4201D180
:1000E00000F030F87E460F3E0FCCB6460126334274
:1000F00000D0FB1AA246AB4633431847904E00008F
:10010000B04E0000103A02D378C878C1FAD852072E
:1001100001D330C830C101D504680C6070470000BD
:100120000023002400250026103A01D378C1FBD813
:10013000520700D330C100D50B6070471FB51FBDFB
:1001400010B510BD04F062FE1146FFF7F7FF03F093
:100150008CFA04F07AFE03B4FFF7F2FF03BC04F05C
:10016000AFFE00000F4880F308880F480168090EB1
:100170000E4A914205D10E480E4901600E480F49C2
:1001800001600F4880470F480047FEE7FEE7FEE7A3
:10019000FEE7FEE7FEE700000B480C490C4A0D4B5A
:1001A0007047000020080020040000001F0000002D
:1001B0001810024001000000000001400000000093
:1001C000D9010008C10000082002002020080020FA
:1001D000200400202004002010B54E4801680122B0
:1001E0001143016041684C4A1140416001684B4A2B
:1001F000114001600168012292049143016041684D
:100200003F22120491434160C16A09090901C16298
:10021000016BFF22543291430163416B490849004D
:1002200041630021816000F02EF810BD70B5394E99
:1002300071680C2001403A483A4C03D0042901D09F
:10024000082901D0206014E07268716803239202CB
:10025000DB03150F1940AD1C002907D0F16A09070F
:10026000090F491C04F062FC6843EBE72E48454344
:10027000256070682B490006000F091D085C216885
:10028000C140216070BD1CB500232248009301933A
:100290000168012212041143016051000524240366
:1002A00002680A400192009A521C0092019A002AA8
:1002B00002D1009AA242F3D10168890328D5012115
:1002C00001911A4A11211160416841604168416001
:1002D00041687F22D2039143416041681122120498
:1002E0001143416001680122120611430160016857
:1002F0008901FCD541688908890041604168022272
:100300001143416041680907890F0229FAD11CBDD8
:1003100001931CBD001002400CB8FF08FFFFF6FE61
:1003200000127A000000002000093D000020024079
:10033000864910B5884208D144150121204600F0B5
:10034000BEFF0021204600F0BAFF10BD30B5C268E4
:100350007F4B8C681A400B680D792343CC686D0382
:100360002C4323430C69496923430B431343C36064
:1003700030BD0021016001718160C1600161416196
:1003800070470029816801D0012200E00222114358
:100390008160704701617047002A026901D00A43F9
:1003A00000E08A43026170470122D2030029C1683C
:1003B00001D0114300E09143C160704701229203D4
:1003C0000029C16801D0114300E09143C16070472A
:1003D0000122D2050029C16801D0114300E09143F8
:1003E000C16070470904114301627047C2681F234E
:1003F0009B069A430A43C260704701229205002976
:10040000C16801D0114300E09143C16070470122EF
:100410005049D2050028886801D0104300E090437D
:100420008860704701224B4992050028886801D0F6
:10043000104300E09043886070470122454912064E
:100440000028886801D0104300E09043886070471E
:10045000836A0B4383624261704701225203002981
:10046000C16801D0114300E09143C160704701228F
:1004700012040029C16801D0114300E09143C1601A
:100480007047012212030029C16801D0114300E026
:100490009143C1607047826800210123DB071A4342
:1004A00082600F231B038268491CD20FD207994236
:1004B00001D0002AF7D18168002901DB006C704768
:1004C0000020704781681022114381607047816865
:1004D0000422114381607047006C80B2704700298C
:1004E000C16802D00122114301E049084900C160FE
:1004F0007047C26802239A43C260C2680A43C2605E
:100500007047002A426801D00A4300E08A434260F3
:10051000704702460020CB0104D5926801231B06D8
:100520009A4300E012680A4200D00120704701603F
:10053000704702465368002012680B400A4202D0FE
:10054000002B00D00120704701607047002401405B
:1005500003D2FFFF00270140F0B501686A4A11404D
:1005600001600021016041608160C1606749674AA4
:1005700008390F2390422DD0644AF024143290425F
:100580002FD0624A1D022832904231D05F4E1A03AA
:100590003C36B04203D1486815E04860F0BD5B4F7F
:1005A0000F2650373604B8422DD0584F6437B84222
:1005B00002D14868320106E0544F7837B84204D17E
:1005C00048680F2212061043E7E75149504F083997
:1005D000B84202D148681843DFE74D4B14339842C4
:1005E00002D148682043D8E7494B2833984202D1CA
:1005F00048682843D1E7464B3C339842CBD0444A25
:1006000050329042CAD148683043C6E730B50368DB
:10061000404A0C6A13408A684D6922430C692C4396
:1006200022438C692243CC6922434C6A22438C6A60
:1006300022431A430260CA6842600A6882604968BD
:10064000C16030BD0021016041608160C160016115
:1006500041618161C161016241628162704700292B
:10066000016802D00122114301E0274A11400160D4
:10067000704710B58030826A0B0F9C000F23A34097
:100680009A438262826A090109090A43826210BDA3
:1006900041607047406880B27047002A026801D00C
:1006A0000A4300E08A430260704702460020D100FE
:1006B00002D51749083901E014490839096811427F
:1006C00000D001207047C10002D51149083901E06E
:1006D0000E4908394860704702460020D10002D513
:1006E0000B49083901E0094908390968114200D06D
:1006F00001207047C10002D50549083901E00349CE
:100700000839486070470000FEFF00000800024002
:10071000080402400F80FFFFFE4A116849084900A3
:10072000014311607047FB4910220028086801D07E
:10073000104300E0904308607047F64900200968C4
:10074000890600D501207047F2480169090603D5E2
:10075000F1494160F14941607047EE4801698022EA
:10076000114301617047EB490420CA68D20701D0E8
:1007700001207047CA68D20601D502207047C968B7
:100780004907FBD50320704700B50346FFF7EBFF91
:1007900002E0FFF7E8FF5B1E012803D0002B00D129
:1007A000052000BD002BF4D1FAE7F0B50B27064673
:1007B0003F043846FFF7E8FF04280FD1D54C2069E5
:1007C0000225284320616661206940210843206199
:1007D0003846FFF7D9FF2169A9432161F0BD70B503
:1007E0000B252D042846FFF7CFFF04280ED1C94C56
:1007F000206904263043206120694021084320619C
:100800002846FFF7C1FF2169B143216170BDF8B5EA
:10081000064600200B273F0400900D463846FFF7A0
:10082000B3FF042815D1BB4C206901210843206186
:1008300035803846FFF7A8FF042806D1B61C290CDE
:10084000009631803846FFF79FFF2169490849002B
:100850002161F8BDF0B50B2706463F040D4638462A
:10086000FFF792FF04280CD1AA4C2069012108430C
:10087000206135803846FFF787FF21694908490024
:100880002161F0BDA3480169890503D4A2498160B3
:10089000A249816070479F480169421591430161F7
:1008A00070479C480169012252031143016170475E
:1008B00098490020C9694907890F00D00120704775
:1008C000F0B5AA24FFF7F4FF002800D000240B277E
:1008D0003F043846FFF758FF042813D18D4D28698F
:1008E0002026304328612869402108432861384682
:1008F000FFF74AFF1021042805D0052802D02A69F5
:100900008A432A61F0BD2869B043286128690E46F0
:1009100030432861824804803846FFF735FF0528B8
:10092000F0D02969B1432961F0BDF0B5C04301049D
:100930000E0E0102C7B2040E0B200D0E0004FFF7CD
:1009400023FF042831D173490A6910231A430A612D
:10095000FF2F07D0724807810B200004FFF714FF18
:1009600004281BD1FF2E07D06D4846810B200004C0
:10097000FFF70AFF042811D1FF2D07D068488581B1
:100980000B200004FFF700FF042807D1FF2C07D03D
:100990006348C4810B200004FFF7F6FE052804D04D
:1009A0005C490B69102293430B61F0BDF0B50B2736
:1009B00006463F043846FFF7E7FE04281ED1554C93
:1009C00020692025284320612069402108432061B7
:1009D0003846FFF7D9FE04280BD12069A8432061CF
:1009E00020691025284320614D4806803846FFF7CE
:1009F000CBFE052802D02169A9432161F0BDF0B5E5
:100A000006460B2094460F460004FFF7BDFE04285F
:100A100014D1404C20691025284320613E43604694
:100A20000643F82006433E4846800B200004FFF7AB
:100A3000ABFE052802D02169A9432161F0BDF0B5C4
:100A40000B2706463F043846FFF79EFE042810D1C8
:100A5000304C2069102528432061EF2006433048A0
:100A600046803846FFF790FE052802D02169A94349
:100A70002161F0BDF0B50B2706463F043846FFF76D
:100A800083FE042810D1234C2069102528432061BF
:100A9000F7200643224846803846FFF775FE0528B2
:100AA00002D02169A9432161F0BDF0B50B270646AC
:100AB0003F043846FFF768FE042810D1154C206922
:100AC0001025284320617F2006431548468038467C
:100AD000FFF75AFE052802D02169A9432161F0BD24
:100AE000F0B50B2706463F043846FFF74DFE0428B5
:100AF00019D1084C2069102528432061DF200643C6
:100B0000074846803846FFF73FFE05280BD021698D
:100B1000A94307E00020024023016745AB89EFCDE0
:100B200000F8FF1F2161F0BDF0B50B2706463F041A
:100B30003846FFF729FE042810D1304C20691025D3
:100B400028432061BF2006432D4846803846FFF7E2
:100B50001BFE052802D02169A9432161F0BDF0B533
:100B60000B2706463F043846FFF70EFE04280ED139
:100B7000224C2069102528432061214846803846B0
:100B8000FFF702FE052802D02169A9432161F0BDCB
:100B9000F0B507460B200E460004FFF7F5FD0428CC
:100BA0000ED1164C20691025284320613E800B2071
:100BB0000004FFF7E9FD052802D02169A94321615E
:100BC000F0BD0E48C0690004000E70470B48006A73
:100BD00070470A4A0029116901D0014300E08143AE
:100BE00011617047054A0146D26800200A4200D0D0
:100BF000012070470149C860704700000020024092
:100C000000F8FF1F092110B5C906884202D1012151
:100C10004C0404E05049884209D1012104022046D5
:100C200000F044FB0021204600F040FB10BD4B4982
:100C3000884202D101210402F1E74949884202D1E8
:100C400001210C05EBE74749884202D1012144020A
:100C5000E5E745498842E9D101218C05DFE7F0B598
:100C60000022032501230C6893401C409C422AD19A
:100C70000C79012C01D0022C12D1876854002E4629
:100C8000A640B74387604E79A640846826438660B5
:100C900084889C43848084888B7993401C4384801F
:100CA000066853002C469C40A64306600E790768F0
:100CB0009E403E430660C668A643C660CC799C4011
:100CC000C3681C43C460521C102ACBD3F0BD274913
:100CD000016000210171012242718171C17170476F
:100CE000012208B512040A430092C261C161009951
:100CF000C161C169C069009008BD0246128A002026
:100D00000A4200D001207047008A70470246928A4A
:100D100000200A4200D001207047808A704781611C
:100D2000704701857047002A01D0816170470185B5
:100D30007047818270474B07DB0E9A40C90810B597
:100D400089000818016A0F249C40A1430162016ACE
:100D50001143016210BD0000000400480008004873
:100D6000000C00480010004800140048FFFF00007D
:100D70000D49086070470C49486070470A4988600F
:100D8000704709490948086070470749086170477A
:100D90000549074808607047034A0146D2680020A9
:100DA0000A4200D00120704700300040AAAA00008B
:100DB000CCCC000030B5827801240178002A15D00F
:100DC0008B08174A9B009A1813688907C90EFF25DC
:100DD0008D40AB434578AD072D0E8D401D4315600A
:100DE0000078C006C00E84400E4804E0C806C00E5D
:100DF00084400C488030046030BD0B4A00291169E2
:100E000001D0014300E0814311617047042207498A
:100E10000428086902D09043086170471043FBE73B
:100E200000E400E000E100E000ED00E000E000E0B0
:100E3000F84801680122114301604168F64A1140F7
:100E400041600168F54A1140016001680122920485
:100E50009143016041683F22120491434160C16A9D
:100E600009090901C162016BED4A11400163416B3F
:100E7000490849004163002181607047E54900222B
:100E80008A708870704703460020E24A59090CD0E6
:100E900001290CD002290CD0516BDA06D20E0123A5
:100EA00093400B4200D0012070471168F5E7116AAA
:100EB000F3E7516AF1E718B50020052424030090F8
:100EC0001120FFF7E0FF0099491C0091A14201D0D9
:100ED0000028F5D01120FFF7D6FF002800D0012010
:100EE00018BDCC4A1168F8239943C000084310602C
:100EF0007047C8490028086802D00122104301E069
:100F00004008400008607047C24A516BF82399437B
:100F1000C000084350637047BE490028486B02D0A8
:100F20000122104301E04008400048637047B9497E
:100F300004220028486B01D0904300E0104348632E
:100F40007047B4490A6A520852000A620A6A0423C6
:100F50009A430A620A6A02430A627047AD490A6A02
:100F600018239A430A620A6A02430A627047A9492F
:100F70000028486A02D00122104301E040084000E6
:100F80004862704710B5A34A53687B24E403A34327
:100F90005360536808430343536010BD01229D49C9
:100FA00012060028086801D0104300E09043086052
:100FB00070470122974912040028486B01D0104362
:100FC00000E0904348637047924AD16A09090901D9
:100FD0000143D162704701228E49D204002808687B
:100FE00001D0104300E0904308607047894B5A6875
:100FF0001202120A00060843104358607047854ADF
:1010000051688908890001435160704781484068F0
:101010000C21084070477F4A5168F02399430143EF
:10102000516070477B4A516807231B029943014373
:101030005160704777494A6801239B039A434A608D
:101040004A6883B21A434A600A6B8B159A430A6353
:101050000A6B000C02430A6370476E490A6B402317
:101060009A430A630A6B02430A63704769490A6B31
:1010700010239A430A630A6B02430A637047010F05
:10108000644A01290AD00229116B0BD003239B0467
:1010900099431163116B014311637047116B890808
:1010A0008900F6E703231B04F2E75A490A6B802301
:1010B0009A430A630A6B02430A637047F8B5554EB8
:1010C0000446706800210C22564D104005D00428BB
:1010D00003D0082803D00C281AD025601AE07168C4
:1010E000706803228902D2030F0F1040BF1C002832
:1010F0000AD0F06A0107090F2846491C03F016FDC3
:1011000078430146216005E0474839464143F9E705
:10111000464820607068464F0006000F3B5C206820
:101120000246DA40626073685B055B0FFB5CDA4085
:10113000A260336BDB0501D43E4B05E073685B04B2
:1011400001D4530800E09308E360336B5F063A4B29
:1011500003D4394F1237276100E02361376BFF0654
:1011600001D4656100E06061376BBF070ED0376B5B
:10117000BF07BF0F012F0BD0376BBF07BF0F022F69
:1011800008D0376BFF43BF0706D006E0A26104E03A
:10119000A06102E0A36100E0A561376BBF03BF0F50
:1011A0000FD0376BBF03BF0F012F0CD0376BBF03BE
:1011B000BF0F022F09D0376BBF03BF0F032F06D01D
:1011C00006E0E26104E0E06102E0E36100E0E56185
:1011D000376B3F03BF0F0FD0326B1203920F012A00
:1011E0000CD0306B0003800F022809D0306B000355
:1011F000800F032806D006E0226204E0206202E0AD
:10120000236200E02562306B000617D40748606255
:10121000F8BD0000001002400CB8FF08FFFFF6FE0A
:10122000ACFEF0FF00127A0000093D00006CDC0209
:1012300014000020809FD500008000006162E7E775
:1012400035490A6A02430A62704701223249D203D1
:101250000028086A01D0104300E0904308627047FC
:1012600001222D4912040028086A01D0104300E031
:10127000904308627047284A0029516901D0014310
:1012800000E0814351617047234A0029916901D0F0
:10129000014300E08143916170471F4A0029D169F1
:1012A00001D0014300E08143D16170471A4A00290F
:1012B000916A01D0014300E0814391627047164A70
:1012C0000029D16801D0014300E08143D16070471B
:1012D000114A0029116901D0014300E081431161E5
:1012E00070470D4A0029517A01D0014300E0814343
:1012F000517270470848416A012212061143416247
:101300007047054A0146926800200A4200D0012039
:10131000704701498872704700100240F94910B5C2
:10132000884202D10121C4143AE001218907884290
:1013300006D101210846FFF7CBFF0021012008E07C
:10134000F149884208D101210220FFF7C1FF0021A5
:101350000220FFF7BDFF10BDEC49884206D10121F4
:101360001020FFF7B5FF00211020F2E7E84988427E
:1013700006D101212020FFF7ABFF00212020E8E764
:10138000E449884207D1841501212046FFF7A0FFD8
:1013900000212046DDE7E049884209D101210C0403
:1013A0002046FFF78CFF00212046FFF788FF10BD85
:1013B000DA49884202D101214C04F1E7D849884238
:1013C000F5D101218C04EBE710B50288CD4B984292
:1013D00006D00124A407A04202D0CB4CA04203D1E6
:1013E0007024A2434C882243C84CA04203D0CD4C69
:1013F00022400C89224302804A68C2620A88028520
:10140000984208D0C44A904205D0C44A904202D0C3
:10141000C34A904201D1897A01860121818210BD9F
:101420000021C94341600021018001814180817216
:101430007047018582827047028870239A430A436D
:101440000280704741627047C1627047406A7047CE
:10145000008D704702220029018801D0114300E06D
:1014600091430180704704220029018801D0114373
:1014700000E091430180704780220029018801D05B
:10148000114300E0914301807047028808239A438A
:10149000028002880A43028070470288A14B1A40EA
:1014A000028002880A43028070470029018802D026
:1014B0000122114301E0490849000180704710B53D
:1014C0000A884B88CC881A438B8823431A430B899C
:1014D0001A434B8989891A430A434030828010BDE0
:1014E0000021018041808180C18001814181818111
:1014F000704740300029818803D00122D203114374
:1015000001E04904490C8180704770B5028C520893
:1015100052000284048C8288038B7025AB439B08A5
:101520000D889B001D4302239C438E894B882643D4
:10153000744C3343A04208D0774CA04205D0774C7E
:10154000A04202D0764CA0420DD10824A343CC89FE
:101550001C4304239C438B882343724C22400C8AF7
:1015600014434A8A22438280058389684163038445
:1015700070BD70B5028C10239A430284048C82885B
:10158000038B694D2B400D782D062D0C1D43202318
:101590009C438B891B051E0C4B8826431B051B0C8B
:1015A000584C3343A04202D05B4EB04219D15F4E3B
:1015B00032400E8AB604360C3243A04211D1802448
:1015C000A343CC892405240C1C4340239C438B88D3
:1015D0001B051B0C2343564C22404C8AA404240CAC
:1015E00022438280058389688163038470BD30B59E
:1015F000028C504B1A400284038C8288848B7025A5
:10160000AC43A4080D88A40025434B4C23400C7B1D
:101610002406240C1C438B781B061B0C2343394CDB
:10162000A04215D1424C23408C7B2406240C1C4341
:101630003E4B1C400B791B061B0C23433F4C2240A6
:101640000C8A2405240C14434A8A1205120C2243E6
:10165000828085838968C163038430BD30B5028C84
:10166000374B1A400284058C8288838B2E4C234092
:101670000C782406240C1C43324B1D400B7B1B07AB
:101680001B0C2B438D782D072D0C1D431D4B9842B1
:1016900005D12D4B13400A8A9205120C1A43828001
:1016A000848389680164058430BD00210180418004
:1016B000818081608181C18101824182704730B522
:1016C000034618330124058C8C40A543058400296A
:1016D00010D008290ED0091F0804400CC01801685A
:1016E00007231B039943016001681206120C114382
:1016F000016030BD4808C01801687023994301603B
:101700000168F4E7002C0140000400400010004094
:10171000001400400020004000400140004401400F
:1017200000480140FFFC0000FF8C0000FFFB0000B0
:10173000FFF70000FFFE0000FFFD0000FFCF0000EC
:10174000FFEF0000FFDF0000FFBF000041637047B4
:1017500081637047C163704701647047028B7023D7
:101760009A430A4302837047028BF64B09021A40E0
:10177000114301837047828B70239A430A4382830B
:101780007047828BEF4B09021A40114381837047E7
:101790000029818802D00122114301E04908490053
:1017A00081807047028B08239A430A430283704763
:1017B000028BE54B09021A40114301837047828B6B
:1017C00008239A430A4382837047828BDE4B0902C7
:1017D0001A40114381837047028B04239A430A43C2
:1017E00002837047028BD94B09021A4011430183CF
:1017F0007047828B04239A430A4382837047828B0B
:10180000D24B09021A40114381837047028B802317
:101810009A430A4302837047028B5204520C090216
:10182000114301837047828B80239A430A4382834A
:101830007047828B5204520C090211438183704716
:10184000028C02239A430A4302847047028C0823C5
:101850009A430A4302847047028C20239A43090169
:10186000114301847047028C80239A43090111437C
:1018700001847047028CB64B09021A40114301845F
:101880007047028CB04B09021A4011430184704723
:10189000028CB04B09031A4011430184704702893E
:1018A00008239A43028102890A430281704710B5D6
:1018B0000123048C8B409C430484038C8A40134393
:1018C000038410BD10B50423048C8B409C43048416
:1018D000038C8A401343038410BD042200298188AD
:1018E00001D0114300E0914381807047828B9A4B75
:1018F0001A408283828B09020A4382837047828B5B
:101900000C239A438283828B0A4382837047028B23
:10191000914B1A400283028B09020A4302837047EB
:10192000F0B5048C1026B4430484058B048C8B4FD3
:101930001B0309013D402B4312021A43A0239C4381
:101940000C43344302830484F0BD028B0C239A437E
:101950000283028B0A430283704770B5048C6408CB
:1019600064000484058B048C1B011343F3260A22B4
:10197000B54394432B430C4301210C43038304845C
:1019800070BDF8B5054608884E888A880B890C46D4
:1019900000281DD0042824D00828288C2AD070497B
:1019A00008402884A88B2F8C31036C4E12023040E3
:1019B0000243180310436B4AA88317400F430121C9
:1019C00009030F432F84E1882846FFF78FFFF8BDF6
:1019D00031462846FFF7C1FFE1882846FFF7B5FFEB
:1019E000F8BD31462846FFF79BFFE1882846FFF700
:1019F0008EFFF8BD5C4908402884A98B288C3702EB
:101A0000F3261B01B14313430B435849AB830840F2
:101A1000FF213843013108432884E1882846FFF735
:101A20006EFFF8BD00210180418001228280C180CB
:101A300001817047F8B50C46498800260125074604
:101A4000002900D10226A288012A00D1022520887F
:101A500023890028384610D0FFF762FFE188384616
:101A6000FFF755FF23892A4631463846FFF775FFB1
:101A7000E1883846FFF769FFF8BDFFF76EFFE188A0
:101A80003846FFF762FF23892A4631463846FFF77A
:101A900047FFE1883846FFF73AFFF8BD406B7047D3
:101AA000806B7047C06B7047006C7047002A82895A
:101AB00001D00A4300E08A438281704781827047E7
:101AC0000246128A00200A4200D001207047C94312
:101AD000018270470246138A002092890B400A4017
:101AE000002B02D0002A00D001207047C943018298
:101AF00070471143403001817047002A828901D02C
:101B00000A4300E08A4382817047082200298188C5
:101B100001D0114300E09143818070470189C908D9
:101B2000C90001817047028970239A430A430281E8
:101B3000704710B50446FFF7F6FF208907210843D8
:101B4000208110BDFF8F0000FFF70000FFFB0000A9
:101B5000FFFD0000FFDF0000FFF30000FF0C0000AE
:101B6000FFEF0000FF5F0000FFFE0000FFF5000038
:101B700070B516460D46044660290CD00122314648
:101B8000FFF7EBFE29462046FFF7CDFF208907210E
:101B90000843208170BD01223146FFF7C1FEF1E705
:101BA00010B504891B021343E4B20B4323430381A2
:101BB00010BD10B50446FFF7F3FF2089C108C90026
:101BC00007200143702081430143218110BD10B5DE
:101BD0000446FFF7E5FF208901218903084320819E
:101BE00010BD828870239A43828082880A43828053
:101BF00070470289D208D200028102890A43028119
:101C00007047028980239A43028102890A43028134
:101C1000704770B50589048B068CED08ED000D4307
:101C20000C4905810C40FF2102310C43AA218E434F
:101C30001901114331430483018470BD80220029BE
:101C4000818801D0114300E091438180704740308A
:101C500001827047FCFC0000FA48302101705B21D2
:101C60004170792181707421C1706D2101716F21E2
:101C70004171382181717F21C171704730B50022D7
:101C8000F049012805D0472302280ED0032813D09D
:101C900018E0ED48632305780F20072408704B7087
:101CA000332D8C700DD1372004E00B700620487066
:101CB00062238B70C87005E00B706D204870422065
:101CC0008870CA700A714A718A71CA7130BDDD4864
:101CD0000021017041708170C17001714171817189
:101CE000C171704710B5002404E00A2102F01EFF04
:101CF000641CE4B20028F8D1204610BDF3B581B0D1
:101D00000298FFF7EFFF07460198FFF7EBFF0090FF
:101D10000A21029802F014FF4900CC4EC94C715CB4
:101D200000252170022F06D30A2102F009FF480086
:101D3000305C607000E06570032F0AD36421029864
:101D400002F0FEFE0A2102F0FBFE4800305CA070AB
:101D500000E0A57038467D27FF0004280AD33946E5
:101D6000029802F0EDFE0A2102F0EAFE4800305C23
:101D7000E07000E0E5700A21019802F0E1FE490000
:101D8000715C21710099022906D30A2102F0D8FE64
:101D90004800305C607100E06571009803280AD348
:101DA0006421019802F0CCFE0A2102F0C9FE48002D
:101DB000305CA07100E0A571009804280AD3394670
:101DC000019802F0BDFE0A2102F0BAFE4800305C24
:101DD000E071FEBDE571FEBDF7B582B00498FFF776
:101DE00081FF00900398FFF77DFF06460A210498C3
:101DF00002F0A6FE954F4900924C795C2170009943
:101E00000025022906D30A2102F09AFE4800385C18
:101E1000607000E06570009803280AD3642104987C
:101E200002F08EFE0A2102F08BFE4800385CA070A2
:101E300000E0A570009804280BD37D21C900049808
:101E400002F07EFE0A2102F07BFE4800385CE07062
:101E500000E0E570029800282FD00A21039802F0D4
:101E60006FFE4900795C2171022E06D30A2102F02F
:101E700067FE4800385C607100E06571032E0AD38C
:101E80006421039802F05CFE0A2102F059FE48002A
:101E9000385CA07100E0A571042E0CD37D21C9002F
:101EA000039802F04DFE0A2102F04AFE4800385C19
:101EB000E07105B0F0BDE571FBE7257106206071AA
:101EC0007620A071F7E7F7B582B00498FFF70AFF14
:101ED00000900398FFF706FF06460A21049802F0D7
:101EE0002FFE5A4F4900574C795C2170009900250C
:101EF000022906D30A2102F023FE4800385C6070F4
:101F000000E06570009803280AD36421049802F069
:101F100017FE0A2102F014FE4800385CA07000E0B1
:101F2000A570009804280BD37D21C900049802F005
:101F300007FE0A2102F004FE4800385CE07000E071
:101F4000E570029800282ED00A21039802F0F8FDCF
:101F50004900795C2171022E06D30A2102F0F0FDBE
:101F60004800385C607100E06571032E0AD364217B
:101F7000039802F0E5FD0A2102F0E2FD4800385C1A
:101F8000A07100E0A571042E0BD37D21C900039838
:101F900002F0D6FD0A2102F0D3FD4800385CE07162
:101FA00087E7E57185E72571632060710720A071DF
:101FB000F7E710B5234900220A704A708A70CA7088
:101FC0006222632340240A714B7100288C7101D076
:101FD000072000E07320C87110BDF1B50098FFF72D
:101FE00081FE05460A21009802F0AAFD4900174F1C
:101FF000144C795C00262170022D06D30A2102F0D0
:102000009FFD4800385C607000E06670032D0AD3C5
:102010006421009802F094FD0A2102F091FD48002D
:10202000385CA07000E0A670042D11D37D21C9009A
:10203000009802F085FD0A2102F082FD4800385C1C
:10204000E07006E000010020900000203A4F0008F8
:10205000E6702671232060715E20A0710F20E07170
:10206000F8BD10B5F9490F220A7147244F234C716E
:1020700073228B71CA71002805D07E2008704B70C6
:1020800042228A7004E0002008704A708C706D2033
:10209000C87010BD7047F1B50098FFF723FE0546E4
:1020A0000A21009802F042FD4900E94EE74C715CBC
:1020B00000272170022D06D30A2102F037FD4800C7
:1020C000305C607000E06770032D0AD364210098D3
:1020D00002F02CFD0A2102F029FD4800305CA070BE
:1020E00000E0A770042D0BD37D21C900009802F0F9
:1020F0001DFD0A2102F01AFD4800305CE07000E08E
:10210000E770052D0AD3D349009802F00FFD0A218C
:1021100002F00CFD4800305C207100E027712320A4
:1021200060716D20A0710F20E071F8BD7047C74845
:102130004021017041708170C74AC17053780021FD
:10214000002B08D04E23037143716323837147230F
:10215000C37151707047017141718171C17101206A
:1021600050707047B9484021017041708170BA4A7F
:10217000C17093780021002B08D0732303714E2384
:10218000437183716323C371917070470171417111
:102190008171C171012090707047F3B581B00D4617
:1021A0000198FFF79FFD2946A94F0025A74E044639
:1021B00000293CD0A848C078002830D00A210198D6
:1021C00002F0BEFC4900795C3170022C06D30A2172
:1021D00002F0B6FC4800385C707000E07570032CAB
:1021E0000AD36421019802F0ABFC0A2102F0A8FC9A
:1021F0004800385CB07000E0B570042C0BD37D2132
:10220000C900019802F09CFC0A2102F099FC4800E8
:10221000385CF07000E0F5708F48C57034E03570C0
:102220007570B5708C48F5700121C1702CE00A21E1
:10223000019802F085FC4900795C3170022C12D3C0
:102240000A2102F07DFC4800385C7070032C0BD32F
:102250006421019802F074FC0A2102F071FC48002C
:10226000385CB07001E07570B570042C0BD37D2123
:10227000C900019802F064FC0A2102F061FC4800E8
:10228000385CF07000E0F570732030714E20707192
:10229000B0716320F071FEBD10B56C484022027031
:1022A000427082706C4BC2701C790021002C08D0E7
:1022B000732404714271622282716322C2711971A6
:1022C00010BD017141718171C1710120187110BD82
:1022D000F3B581B00D460198FFF704FD29465C4F28
:1022E00000255A4E044600293CD05B48407900281E
:1022F00030D00A21019802F023FC4900795C31704A
:10230000022C06D30A2102F01BFC4800385C7070D6
:1023100000E07570032C0AD36421019802F010FCD0
:102320000A2102F00DFC4800385CB07000E0B57086
:10233000042C0BD37D21C900019802F001FC0A2175
:1023400002F0FEFB4800385CF07000E0F570424897
:10235000457134E035707570B5703F48F5700121F6
:1023600041712CE00A21019802F0EAFB4900795CF6
:102370003170022C12D30A2102F0E2FB4800385CD3
:102380007070032C0BD36421019802F0D9FB0A2151
:1023900002F0D6FB4800385CB07001E07570B57093
:1023A000042C0BD37D21C900019802F0C9FB0A213E
:1023B00002F0C6FB4800385CF07000E0F570732056
:1023C0003071402070716220B0716320F071FEBDE9
:1023D0001E4840210170417081701F4AC17093797D
:1023E0000021002B09D04723037163234371762317
:1023F00083716D23C3719171704701714171817156
:10240000C171012090717047F3B581B00D460198FC
:10241000FFF768FC29460E4F00250C4E04460029A4
:1024200045D00D48C079002839D00A21019802F022
:1024300087FB4900795C3170022C0FD30A2102F02E
:102440007FFB4800385C707009E00000000100204C
:102450003A4F000810270000240000207570032C5C
:102460000AD36421019802F06BFB0A2102F068FB99
:102470004800385CB07000E0B570042C0BD37D21AF
:10248000C900019802F05CFB0A2102F059FB4800E8
:10249000385CF07000E0F570F848C57134E03570D4
:1024A0007570B570F548F5700121C1712CE00A21F5
:1024B000019802F045FB4900795C3170022C12D37F
:1024C0000A2102F03DFB4800385C7070032C0BD3EE
:1024D0006421019802F034FB0A2102F031FB48002C
:1024E000385CB07001E07570B570042C0BD37D21A1
:1024F000C900019802F024FB0A2102F021FB4800E8
:10250000385CF07000E0F570472030716320707126
:102510007620B0716D20F071FEBD70477047F3B545
:1025200081B007460298FFF7DDFB0026D44C054634
:10253000012F05D0022F1AD026706670A67044E0D5
:1025400026706670A670CD48E670017A2671002963
:1025500007D0472161714F21A1716D21E171067290
:10256000FEBD6671A671E67101210172FEBD0A21F0
:10257000029802F0DBFA4900C24F022D795C21700B
:1025800006D30A2102F0D2FA4800385C607000E0FD
:102590006670032D0AD36421029802F0C7FA0A215B
:1025A00002F0C4FA4800385CA07000E0A670042D68
:1025B0000BD37D21C900029802F0B8FA0A2102F07B
:1025C000B5FA4800385CE07000E0E6703020207119
:1025D000472060714F20A0716D20E071FEBDF7B5FE
:1025E00007460298FFF77EFB0026A54C0546012F03
:1025F00005D0022F1CD026706670A67046E02670AB
:102600006670A6709D48E670417A002909D05B216A
:102610002171472161714F21A1716D21E1714672D4
:10262000FEBD26716671A671E67101214172FEBD83
:102630000A21029802F07AFA4900924F022D795C41
:10264000217006D30A2102F071FA4800385C6070EC
:1026500000E06670032D0AD36421029802F066FA46
:102660000A2102F063FA4800385CA07000E0A6700E
:10267000042D0BD37D21C900029802F057FA0A21DC
:1026800002F054FA4800385CE07000E0E6705B202D
:102690002071472060714F20A0716D20E071FEBD58
:1026A00010B50C4609200821C006FEF726FB744928
:1026B000002802D0012804D007E0012C05D13020E9
:1026C00006E0002C03D0012C04D0002000E00620FE
:1026D000087210BD3620FBE7F0B5694900220A7088
:1026E000694E4A7030787325C70662234F24002F45
:1026F00002DAEF27384030708D70CB700C714A7160
:102700008A71CA71F0BD5E48472101706D21417028
:10271000372181707321C170002101714171817174
:10272000C1717047564847210170062141706222ED
:102730008270C1700021017141718171C171704756
:10274000704770474E4900220A710F234B716D2369
:102750008B717323CB716323002802D00A7062202F
:1027600001E04E20087048708B70CA707047704747
:1027700070B50446454BC00701D0002200E001229D
:1027800001211846FEF7CFFA4149424DA00701D575
:10279000002200E001222846FEF7C5FA600701D5B5
:1027A000002200E0012280212846FEF7BCFA200723
:1027B00001D5002200E0012240212846FEF7B3FAAD
:1027C000E00601D5002200E0012210212846FEF794
:1027D000AAFAA00601D5002200E00122082128461D
:1027E000FEF7A1FA600601D5002200E001222021B7
:1027F0002846FEF798FA70BDF0B52649C4070422B2
:10280000244B2031002C01D09A6100E00A8184071A
:102810000122002C01DA9A6100E00A811B4E420776
:1028200080211A4D2036002A01DAA96100E03181A9
:1028300002074021002A01DAA96100E03181164B2C
:10284000C4060221144A2033002C01DA916100E011
:102850001981124C870601D5946100E01C81104C4F
:10286000470601D5946100E01C81070601D59161FE
:1028700000E01981C00515D5AC61F0BD2400002031
:10288000000100203A4F0008F80000200000004836
:10289000000100000004004800080048004000005B
:1028A000008000003481E8E770B5104D0E492878AB
:1028B0002C46095C0C3421700D494000085A6060B8
:1028C0000020FFF755FF6068FFF796FF2078FFF7BD
:1028D0004FFF6068FFF790FF2878411C2970082897
:1028E00001D30020287070BD0001002024000020CA
:1028F000284F0008FEB509209B4AC0060121490265
:10290000106091800D239371002151811161D1716B
:10291000162616771F2717720C2454611E24946103
:10292000144620340122D2022060A280A37161816A
:102930002161E171267727720C2262617822A261FF
:10294000224620320125AD0210609580937151819D
:102950001161D171167717720C2555617825956133
:1029600015462035012212032860AA80AB716981C7
:102970002961E9712E772F720C226A617822AA618F
:102980006A46117151710121890200916946FEF771
:1029900066F9A888009069462868FEF760F9A08863
:1029A000009069462068FEF75AF9FEBD30B581797E
:1029B0000022212320240D2909D00B2914D00C2911
:1029C00011D184690169A1420DD3037207E08569C1
:1029D0000169A94208D30372C179002903D10261B8
:1029E0004189491C418130BD0472F8E710B50446A5
:1029F00081880068FEF781F9217F162905D0152905
:102A000002D1012800D0002010BD0028FBD10120F8
:102A100010BD70B554482030FFF7E8FF524E012436
:102A200020360025012805D03046FFF7DFFF0028BB
:102A300005D005E03069401C3061F47100E0F571AB
:102A40003069002805D048482030FFF7CFFF002824
:102A500009D0B1693069884209D943482030FFF76D
:102A6000C5FF012803D140482030FFF79FFF3E48B3
:102A7000FFF7BCFF3C4E012805D03046FFF7B6FFFC
:102A8000002805D005E03069401C3061F47100E099
:102A9000F5713069002804D03348FFF7A7FF0028FC
:102AA00008D0B1693069884207D92F48FFF79EFFE7
:102AB000012802D12C48FFF779FF2B484030FFF75F
:102AC00095FF294E4036012805D03046FFF78EFF8E
:102AD000002805D005E03069401C3061F47100E049
:102AE000F5713069002805D01F484030FFF77EFFA0
:102AF000002809D0B1693069884209D91A484030A4
:102B0000FFF774FF012803D117484030FFF74EFF4D
:102B100015486030FFF76AFF134E6036012805D074
:102B20003046FFF763FF002805D005E03069401C00
:102B30003061F47100E0F5713069002805D00A4871
:102B40006030FFF753FF002809D0B169306988422F
:102B500009D905486030FFF749FF012803D1024831
:102B60006030FFF723FF70BD0C01002070477047F5
:102B7000F8B5FA4800240078F94EC106F94D274609
:102B8000002905DAF54AEF2108401070FFF7EAFA4C
:102B9000AEE020202870F448C079002803D1F34823
:102BA000C079002808D0ED49EF220878104008705D
:102BB0000220285E002109E0E8490878C20607D50E
:102BC000EF22104008700220285E0121FFF7E5FA8D
:102BD000E44AE5490A200C3A085E1279904202D094
:102BE0000A7A202A03D0C879012809D00BE0DD4AEF
:102BF0000C3A10714F816888401C6880012404E001
:102C0000087A212810D020200872D649D7480A22F5
:102C10000C39825E09798A4202D0017A202921D0BA
:102C2000C179012924D026E04F810869FF21913123
:102C300088420AD20A2110E030680128E5D168886C
:102C4000401C688001243760DFE70146FF39FF221E
:102C5000923990329142EFD2052101F067FF0029AD
:102C6000EAD0D2E747816888401E6880012404E0EA
:102C7000017A212908D0202101720220285EBC4956
:102C800088421FDB698020E047810069FF21913184
:102C900088420AD20A2110E030680128EDD1688804
:102CA000401E688001243760E7E70146FF39FF22B4
:102CB000923990329142EFD2052101F037FF00297D
:102CC000EAD0DAE7002800DC6F80A4490878C20661
:102CD0000ED5012C0CD1EF22104008700024297869
:102CE000A44800F08FFA0221695EA34800F08AFA36
:102CF000A248017A202903D14089042800D148E75D
:102D0000F8BD10B595490878C20604D5EF221040E9
:102D10000870FFF70CFA93491F20087010BDF8B532
:102D2000914E0024914F954D2CE0FFF7EAFF8D491D
:102D30000A200C39305ECA7890420BD0327A202AB1
:102D400008D1C87074810878401C40B2087003280C
:102D500000DD0C700A20385ECA7890420BD0387AB9
:102D6000202808D17C810878401E40B208700028D5
:102D700001DA032008700A20285E042802DB0520FF
:102D800068812DE077480C3800780028CDD027E006
:102D9000FFF7EEFE73490A200C39305ECA78904284
:102DA0000AD0307A202807D174810878401C40B2BC
:102DB0000870032800DD0C700A20385E90420BD0AA
:102DC000387A202808D17C810878401E40B20870EB
:102DD000002801DA032008700A20285E052804DA9A
:102DE00060480C3800780128D2D05E490C390022A6
:102DF0008A56022A46D10A23F35EC878834209D054
:102E0000337A202B06D1521C52B274810A70032AE5
:102E100000DD0C700A22BA5E82420BD0387A20287C
:102E200008D17C810878401E40B20870002801DA81
:102E3000032008700A20285E0528D8DB22E00A2338
:102E4000F35EC878834209D0337A202B06D1521C16
:102E500052B274810A70032A00DD0C700A22BA5E35
:102E600082420BD0387A202808D17C810878401E15
:102E700040B20870002801DA032008700A20285E9A
:102E8000052803DA00228A56032AD8D0F8BDF8B5FF
:102E9000344D00240C3DA868FFF7FDF832490A20A4
:102EA000085EAA7800272E4E904202D00A7A202A85
:102EB00003D0C879012803D005E0A8704F8120E035
:102EC000087A21280ED02020087228480A21415E65
:102ED000AA78914202D0017A202931D0C179012902
:102EE00030D032E04F810869FF21913188420BD206
:102EF0000A2101F01BFE0029E7D130680128E4D146
:102F00003760A868401C11E00246FF3AFF21923A60
:102F100090318A420DD2052101F008FE0029D4D15A
:102F200030680128D1D13760A868801C0124A860CE
:102F3000CBE730680128C8D13760A868401DF5E7A5
:102F400047812CE0017A21291AD020210172A8683A
:102F5000012843DC0120A86044E00000F8000020C4
:102F600095000020440000204C0100206C0100204E
:102F70000F27000000590008005D00082C01002008
:102F800047810069FF21913188420BD20A2101F06B
:102F9000CDFD0029DBD130680128D8D13760A86881
:102FA000401E11E00146FF39FF22923990329142D2
:102FB0000DD2052101F0BAFD0029C8D130680128E1
:102FC000C5D13760A868801E0124A860BFE73068BB
:102FD0000128BCD13760A868401FF5E755498842F1
:102FE00000DBA96054490878C20608D5002C06D039
:102FF000EF22104008705148A96800F003F9F8BDAD
:10300000F8B54F48C1794F48012902D1C17901294A
:103010007AD04D49C979012976D04C494C4DC979AE
:10302000012701297FD073E000244848748144813E
:10303000FFF72DFF70890128FAD01EE0454E307849
:10304000FFF70FF841490A228A5E6878824202D06F
:103050000A7A202A1AD03A490A228A5E82420CD081
:10306000087A202809D111E0377000E034703178F7
:10307000394800F0C7F839480470324840890228BE
:10308000DCD0304E7089032805D01DE04C813078AB
:103090000028EBD1E8E7307A202839D12C480C30D1
:1030A00000781F2806D0202806D0212806D0222804
:1030B00006D007E02C7005E02F7003E0022000E04E
:1030C00003202870FFF72BFE307A202820D170894A
:1030D0000328F7D019E0FFF7FFFA21480770307A8C
:1030E000202815D10A20305E06280EDB7481F47189
:1030F000174C1C480C34217800F084F80221615EE2
:10310000194800F07FF803E00DE070890528E2D04F
:103110000C4EF079012803D1B1693069884283D21D
:10312000307A212880D0F8BD7047704770477047CB
:10313000704700000F270000F80000200061000821
:103140006C0100202C0100200C0100204C0100200B
:103150003800002093000020006D0008FA000020D5
:10316000F900002000590008005D000810B5044671
:10317000FDF7EAFA3520FDF73DFD2046FDF715FB8A
:103180003520FDF737FDFDF7E8FA10BD70B50C46A8
:103190000546FDF7D9FA3520FDF72CFD21462846D6
:1031A000FDF735FB3520FDF725FDFDF7D6FA70BD9F
:1031B00010B52848FFF7DAFF2748FFF7D7FF274861
:1031C000FFF7D4FF2648FFF7D1FF264C2046FFF734
:1031D000CDFF2548FFF7CAFF2448FFF7C7FF244863
:1031E000FFF7C4FF2348FFF7C1FF2046FFF7BEFFEC
:1031F0002046FFF7BBFF2046FFF7B8FF2046FFF74A
:10320000B5FF10BDF3B504460646006881B01A4DFF
:103210000127BF02286008E0241DA01BB84202D984
:103220003046FFF7A3FF20682860401CF4D12046F9
:103230000299FFF7ABFFFEBD026801460E4B1A6014
:10324000521C03D00146001D0268F8E708681860A8
:103250007047000000590008005D00080061000888
:1032600000650008006D0008006900080071000892
:10327000007500080079000850000020F8B5624889
:10328000006801F003FD6149002509780127604EBF
:10329000604C002926D06049604A0978604B0029BB
:1032A00002D0012905D00BE001B25E4801805581B2
:1032B00003E001B25C48018057811846FFF7A2FF86
:1032C00009200821C006FDF718FD02460920082143
:1032D000C006FDF728FDE168A068544A884216DC64
:1032E000106015E0E168A0684018C10F0818401090
:1032F0006060142802DC1420606003E04C498842BE
:1033000000DB6160A08801B231804A48D6E71160D5
:10331000A0883080484867704581C5711F210172BF
:1033200046481168FFF76EFFF8BD10B544480178B4
:10333000002907D0002101703348006801F0A6FC85
:103340003449C86010BD10B53D480178002907D048
:10335000002101702C48006801F098FC2D4988601C
:1033600010BDF8B5344C0025E079012849D12B482F
:10337000284EC079012845D03FE001203070304808
:1033800009270570FF0608213846FDF7B6FC0246FE
:1033900008213846FDF7C7FCFFF7D5FF1A4F3868FC
:1033A00001F09AFC01460220FFF7B9F86089012874
:1033B000F5D00A20205E02281CDBFFF7B6FFFFF7DE
:1033C0005DFF13480022825E00210220FFF707F90B
:1033D0001C49012008706089A08165811F201A495D
:1033E00020724D81087219494D8108720B4908728B
:1033F00075703570E079012803D1A1692069884290
:10340000BBD26581F8BD0000D000002093000020F1
:10341000A800002054000020940000202C0100206F
:10342000006D0008A0000020A2000020E4000020A1
:10343000FF0F0000006500080C0100200079000863
:10344000FB000020FA0000204C0100206C0100204D
:10345000401E00B20028FBDC704770B501218D07CB
:103460002846FEF737FB00283FD0954C2069401CCA
:10347000206194494868401C48600A21206901F095
:1034800055FB002911D190480078002803D08F49BE
:103490000888401C08808E480078002803D08D4999
:1034A0000888401C0880FFF7FFF95021206901F0CF
:1034B0003DFB0126002903D1FFF7ABFA86480660E1
:1034C0002069864988420CD300F0BAF9844810225A
:1034D0000178714001708348017811430170002028
:1034E000206101212846FEF701FB70BD10B57E4C1E
:1034F00001212046FEF7EEFA002803D001212046E4
:10350000FEF7F4FA10BD10B5784C01212046FEF705
:10351000E1FA002803D001212046FEF7E7FA10BDAA
:1035200010B501F047F801F009FA01F0EFFA704820
:10353000FDF7C4FD01F024F901F055F8FFF7DAF9C1
:1035400010BD70B56B4D2846FFF776FE5C4C01212F
:1035500009046060884203D30020606000F07FF9B6
:1035600061682846491C6160FFF74CFE3220401E0E
:1035700000B20028FBDC6068012801DC00F06FF974
:1035800070BD10B55D20FDF77EFC002801D0FDF771
:10359000B1FE5948FDF7ECFB0420FDF7ECFB7D2064
:1035A0000001FDF7EBFBFDF7ECFBFDF7F1FB10BDB8
:1035B00030B5434B9A68147904709A68127A427055
:1035C0009A68527882709A68D278C2709A68157830
:1035D000057155794571957A8571D579C571557A99
:1035E000057295784572D57A85729279C272DA68D9
:1035F000127862400A70DA6884795278057A6240FB
:10360000C4796C406240447A6240847A6240C47AF1
:1036100062404A70DA680479927862408A70DA68A7
:103620008378D27840785A404240CA7030BD2449ED
:103630002F4800B514312830FFF7BAFF2048143066
:1036400042780178120289188278C0781204000644
:10365000101808181A4A29499061096BD1618142F2
:1036600001D1012000BD002000BD10B5FFF758FFBB
:10367000FFF7DDFF12490870FFF763FF00F085FDDB
:10368000002010BD70B50E4C1D4D11E080226388E6
:103690001E0402D55B006B4000E05B006380037892
:1036A000134202D063886B4063805208EFD1401C04
:1036B0000A46491EC9B2002AE8D1608870BD0000E0
:1036C00064000020440000208E000020A4000020A0
:1036D0008F000020A6000020950000208813000025
:1036E00088000020F8000020002C01400004004069
:1036F0008C0100200055000855550000C07F0008CF
:103700002110000030B5002305E09D004D590468EC
:1037100064195B1C04609342F7DB30BD70B50B4647
:103720000446002103E08D005D592818491C914290
:10373000F9DB01F0FBF9206070BD70B5FC4CA0789E
:103740002546603500283AD1286801F001FBA16CBC
:1037500001F0BEFB04D2A06C01F098FA286022E0D0
:10376000686801F0F5FAA16C01F0B2FB04D2A06C1C
:1037700001F08CFA686016E0A86801F0E9FAA16C23
:1037800001F0A6FB04D2A06C01F080FAA8600AE068
:10379000E86801F0DDFAA16C01F09AFB03D2A06C9D
:1037A00001F074FAE86003CD401806CD891840187E
:1037B000C117890F0818801060650020A06570BDD2
:1037C00010B5DC4C04212046FCF7B3FE002803D0E2
:1037D00004212046FCF7ABFE10BD10B50220FCF71B
:1037E0007BFF00280FD0D4490020085ED349091A76
:1037F000CF480164426C51184164C18C491CC1849A
:103800000220FCF777FF10BD034610B50A460020E2
:10381000014604E08C001C592018491C89B29142D1
:10382000F8D301F083F910BDC14B2021595E8842C5
:1038300001D30120704732398842FBD800207047FD
:1038400010B5BB4CE06C01F021FA606310BD0021A3
:103850006422504300E0491C8842FCD87047F8B508
:10386000B7490A2008607D21B14CC9002184332268
:103870002272B44F1F263E707880B34A64201080B5
:103880000420E0820120E07021834910618300253B
:10389000AE49E5720870AE490870E06DA565256512
:1038A0006065A5843146AB48FFF7ACFC3220FFF7DA
:1038B000CEFF0221795EA848FFF7A4FC3220FFF773
:1038C000C6FF9F480168A548FFF79CFC3220FFF720
:1038D000BEFF2021615EA248FFF794FC3220FFF773
:1038E000B6FFA04FA16B3846FFF78CFC3220FFF7E4
:1038F000AEFF217A9C48FFF785FC3220FFF7A7FF37
:10390000E1789A48FFF77EFC3220FFF7A0FFE18ABA
:103910009748FFF777FC3220FFF799FF9548E16D54
:10392000FFF770FC3220FFF792FF3220FFF78FFF86
:10393000E17A3846FFF766FC3220FFF788FF18214E
:10394000615E3846FFF75EFC3220FFF780FF1A21E8
:10395000615E3846FFF756FC3220FFF778FF7C485F
:1039600041573846FFF74EFC834806720561458192
:10397000824806724581F8BDF8B57F4C207A21282F
:103980003AD17F4D7F48EA791F27C1790026002A66
:1039900004D1037A212B01D1012904D0774B1B7A62
:1039A000212B2AD02FE062490A7A332A0FD0332202
:1039B0000A720022264662810C4605460120FEF767
:1039C0005DF901206072307A212802D00BE03422A8
:1039D000EEE76B48C079002805D1287A212802D16A
:1039E000E8790128EAD0217A5F48FFF70BFC3772AB
:1039F0000020708168812F72F8BD604BDB79012B4C
:103A000001D1002A10D02B46012AF5D11A7A212A99
:103A1000F2D10029F0D14649CE630320FEF72EF9FA
:103A2000207A21282AD033E005460029E4D1FEF788
:103A30004EF90FE0FFF7BCFB02E00220FEF71EF993
:103A40004D48FEF7D3FF012804D14C48FEF7CEFFC6
:103A50000128F2D04848FEF7C9FF012804D14748A1
:103A6000FEF7C4FF0128E5D0FFF7F9FE6681277253
:103A70006E8143482F72468107720EE0E879012873
:103A800006D1287A212803D13E48C0790028C4D025
:103A90002772266166816E812F727D20C000FFF73C
:103AA000D6FEF8BD10B52248808F00B2FEF795FA19
:103AB0003449002048813249488110BDF8B51C4C7A
:103AC000A08E01B22020205EFEF718F92A48617A04
:103AD000C0790025084300287AD1207A332877D18D
:103AE0002027E75F2785264E00970A20305E217C3D
:103AF000884202D0317A202903D0F079012804D0FD
:103B000006E0207475817F1C68E0307A21283BD064
:103B1000202030721B4F0A20385E217C884202D060
:103B2000387A20285CD0F87901285DD05FE0000069
:103B30008800002000240140FC000020FF0F00004E
:103B400040000020440000204C0000204E000020D7
:103B50004F00002000590008005D000800610008C7
:103B600000650008006D0008006900080071000889
:103B700000750008007900082C0100200C010020CD
:103B80004C0100206C0100207581FF2130699131CA
:103B900088420BD80A2100F0C9FF0029BAD1607B06
:103BA0000128B7D17F1C27846573B3E70146FF392D
:103BB000FF229239903291420BD8052100F0B6FFD6
:103BC0000029A7D1607B0128A4D16573BF1C05E043
:103BD00017E0607B01289DD165737F1D278499E7DD
:103BE0007D81208C401E38E0387A21280AD02020A0
:103BF00038722021615E0098884236D0F87900281A
:103C00002DD032E07D81FF213869913188420AD27E
:103C10000A2100F08BFF0029EBD1607B0128E8D15D
:103C2000208C401E10E00146FF39FF22923990326D
:103C300091420CD2052100F079FF0029D9D1607B97
:103C40000128D6D1208C801E20846573D1E7607B4B
:103C50000128CED16573208C401F2084C9E7F079FC
:103C6000002802D1FD48FFF7CDFA2020205EFC4954
:103C7000884201DB2184F8BD0028FCDC2584F8BDE6
:103C8000F0B5F848F749037BF7488BB0C779487A15
:103C9000F64A0743087A09900A20105E0890C0B2DD
:103CA0000790888EF24E05B21046C07906901046F5
:103CB00002694C7B1046FF38923805900A20305E2E
:103CC00004903046C0790390304600690646FF3EB6
:103CD000923E02960E780196E44E497C367A002B8D
:103CE000B446E34E367A009616D0012B7BD1002FD6
:103CF00079D1099B332B76D1DA4B1A269E5F9E85AC
:103D0000771C089B3FB28B4202D06346202B6BD0BE
:103D1000069B012B69D0D3E0002F64D1099E332E7E
:103D200061D1D04B18269E5F5E85771C089B3FB201
:103D30008B4202D06346202B03D0069B012B0BD075
:103D40000DE0C848079AC949427400224A81C44913
:103D500007838F4245DA94E06346212B10D0C14A95
:103D6000049B128BC24F521E12B204928B4202D09D
:103D7000009920293AD0039A3946012A43D045E0D8
:103D8000BA4800214181FF20913082420BD80A219C
:103D9000104600F0CBFE00291DD1B248012C1AD1EB
:103DA0004173078317E0FF200599903081420BD8BB
:103DB0000521104600F0BAFE00290CD1A948012CBB
:103DC00009D14173B61C05E0A648012C03D100219E
:103DD0004173761D0683A3481822825EA0498A4259
:103DE0004FDB01834DE05BE05CE066E00021798120
:103DF0009C4B04981883002800DC19831821595E15
:103E00002A46012007E0009A212A0CD0202038728F
:103E10002A4631460198FDF7DFFF92482A221821F1
:103E2000825E415EACE000274F81FF2191318842E4
:103E30000BD20A2100F07AFE00291CD18948012CFE
:103E400019D147730499018315E0FF21029A90313B
:103E50008A420AD2052100F069FE00290BD181486F
:103E6000012C08D14773B61E04E07E48012C02D114
:103E70004773761F06837B481821415E002900DCCA
:103E8000078318212A46415EBBE77948C07900289C
:103E900006D17648C079002802D17648FFF7B2F9FA
:103EA0000BB0F0BD6F48079A7049427400224A81F6
:103EB0006B4947838F4245DA93E06346212B10D04C
:103EC000684A049B528B6A4F521E12B204928B4274
:103ED00002D00099202937D0039A3946012A40D0D0
:103EE00042E0624800214181FF20913082420BD89C
:103EF0000A21104600F01AFE00291DD15948012C54
:103F00001AD14173478317E0FF2105989031884209
:103F10000BD80521104600F009FE00290CD15148AC
:103F2000012C09D14173B61C05E04E48012C03D188
:103F300000214173761D46834A481A22825E484911
:103F40008A424EDB41834CE000217981454B049845
:103F50005883002800DC59831A21595E2A46012023
:103F600007E0009A212A0ED0202038722A463146D6
:103F70000198FDF7A8FF3B482C221A21825E415E82
:103F80008A4282D18CE700274F81FF2191318842FC
:103F90000BD20A2100F0CAFD00291CD13148012CA6
:103FA00019D147730499418315E0FF21029A90319A
:103FB0008A420AD2052100F0B9FD00290BD1294817
:103FC000012C08D14773B61E04E02648012C02D10B
:103FD0004773761F468323481A21415E002900DC7F
:103FE00047831A212A46415EB9E710B51D490023CF
:103FF000C87A214A002807D0D056002801D0087579
:104000001370FFF73DFE10BD087D002802D00B7530
:1040100001201070FFF752FD10BDF8B5124D144E7F
:104020001249EB79F079CA79012B07D101287DD0AB
:104030001249C97901297CD0012A7AD0094C00277C
:10404000217A332954D1084B0A211E7A695E23460E
:10405000DB7A002914D0202E16D057E00065000826
:104060000F270000880000202C0100204C010020B8
:104070006C010020006D00084F0000200C010020A2
:104080002773202E13D041E0012902D0022907D046
:104090000FE000283AD1002A38D10120207335E002
:1040A000002833D1002A09D10220207306E002291A
:1040B00002D0032905D029E0002827D1002B04D005
:1040C00024E0002822D1012B20D16F8127731DE02D
:1040D000287A212809D1F648C179002905D1317AF9
:1040E000212902D1F179012924D00120FDF7C6FD53
:1040F000E8790128ECD0EF48C0790128E8D0F079C0
:104100000128E5D0EA48C0790128E1D0207BE17A96
:1041100002460A4333D0012803D801292FD00128B1
:1041200030D0022805D1012903D100E001E0FFF7DA
:10413000B9FCF8BD217A33290AD033212172677284
:104140006F810120FDF79AFD287A212803D00CE029
:1041500034212172F4E7D648C079002805D1307A9D
:10416000212802D1F0790128EBD0217AD248FFF73B
:1041700049F81F2028726F8177813072B8E7FFF706
:1041800034FFF8BD0029D0D0F8BDCC4CFFF745FF77
:10419000FFF7F2FB207A3328F8D1217BE07A0A4638
:1041A000024303D0012903D8012801D1FFF7D9F830
:1041B000FEF726FFEAE7C1492220085EC04988428F
:1041C00001DB0120704700207047F8B5BB4CE07858
:1041D000FDF7EFFEB6490A20085EA27C0126B94F22
:1041E000002590420CD00A7A202A09D1A0744D8172
:1041F000E078002817D0E570E1783846FFF702F83C
:10420000B1480A21415EA27C91420BD0017A20295B
:1042100008D14581E078002807D0E570E17838467C
:10422000FEF7F0FFF8BDE670E6E7E670F6E7F8B5F2
:10423000A24D0021E88A00B2FEF770F99C490A20DD
:10424000085EEA7CEC8A00262027904202D00A7A97
:10425000202A03D0C879012803D005E0E8744E81F4
:1042600018E0087A21280DD00F7297480A21415E84
:10427000EA7C914202D0017A20291BD0C179012920
:104280001AD01CE04E810869FF219131884204D286
:104290000A210AE0641CEC82E7E70146FF39FF22AD
:1042A000923990329142F5D2052100F03FFC00296D
:1042B000F0D0DAE7468112E0017A212907D00772AF
:1042C000E88AFF21F53188421AD3E982F8BD468198
:1042D0000069FF219131884205D20A210BE0E88A6A
:1042E000401EE882ECE70146FF39FF229239903206
:1042F0009142F4D2052100F019FC0029EFD0DFE74C
:104300000428E3D80420E882F8BD90E7F0B56B4BB1
:10431000DA7A1946496D002A33D01A461A23144610
:10432000D35E1822A25E676DD417640EA418D61B44
:10433000E4115D18341BD219854207D825465F4E1B
:10434000503D854202D30121B17010E05B4D8242A5
:1043500002D85E4EB04208D9DE17591A760EF3180D
:10436000DB11C91A5039814201D30021A970534988
:10437000824201D8012002E0844201D3002008716A
:10438000F0BD20229A5E5418844201D8012009E031
:10439000D417511A240EA2181212891A28398142F0
:1043A000EED300209870F0BDF8B5444FB87A0128DC
:1043B0007DD0F878B978884201D1012100E0002150
:1043C000434D79712B780920C00600241F2B0ED095
:1043D0002E460225755F7268384E366B7543202B6A
:1043E00013D03B4E212B1DD0222B2AD049E000298F
:1043F00005D001220821FCF796FC6C603FE000220A
:104400000821FCF790FC6C603BE0002906D00122FB
:104410000821FCF788FC2E48446032E0AA4230D9DB
:10442000002204E0002906D0AA422AD9012208214C
:10443000FCF779FC23E000220821FCF774FC74608F
:104440001FE0BB7B0E461E4302D0002909D106E0C7
:104450001F4900224C600821FCF765FC11E0012B8C
:104460000FD1AA4206D201220821FCF75CFC0120F0
:10447000B87306E000220821FCF755FCBC7301204C
:10448000F8737878002810D1787901280DD1F87B5D
:1044900001280AD1F86B0F49401CF863FC730968C6
:1044A000884202D30120B871FC6378797870F8BD36
:1044B0004C0100200C010020006900088800002049
:1044C000DD050000007100086C0100200F270000CE
:1044D00044000020400000202948817A012906D0AC
:1044E0001C21415E502902DB0021817181837047CC
:1044F0002348817A012906D01E21415EA02902DBD2
:104500000021C171C1837047704770B51D48FEF727
:1045100093FE1D4C20701D48FEF78EFE60801C48E7
:10452000FEF78AFE1B4908601B48FEF785FE144C07
:104530001A4D20842846FEF77FFEA0631848FEF738
:104540007BFE20721748FEF777FEE0701648FEF7F4
:1045500073FEE0821548FEF76FFEE0652846FEF721
:104560006BFEE0722846FEF767FE20832846FEF7C2
:1045700063FE60832846FEF75FFE0D49087070BD3C
:10458000880000200059000844000020005D000859
:10459000006100084000002000650008006D000870
:1045A0000069000800710008007500080079000823
:1045B0004F00002010B50521C9040020FCF7E2FCE3
:1045C0000120FCF7EBFCFE48FCF734FD1920FCF75A
:1045D0005AFC0028FAD00220FCF711FDFCF716FD6A
:1045E0000828FBD110BDFEB501214804FCF743FEAD
:1045F00001218804FCF73FFE0121C804FCF73BFEC3
:1046000001218805FCF737FE6846FCF760FB0124B2
:1046100069460C7100208871487140260920C00647
:104620000096FCF71CFB8020009009206946C0061C
:10463000FCF715FB6946E3480094FCF710FB0420E7
:1046400000906946DF48FCF70AFB02276946DE480E
:104650000097FCF704FBA00300906946DA48FCF7DA
:10466000FEFAE5036946D8480095FCF7F8FA694672
:10467000D5480097FCF7F3FA09206946C006009573
:10468000FCF7EDFA09206946C0060094FCF7E7FA4A
:1046900024026946CB480094FCF7E1FA80200090A0
:1046A0006946C848FCF7DBFA6946C6480096FCF73D
:1046B000D6FA102000906946C248FCF7D0FA0820CC
:1046C00000906946BF48FCF7CAFA2020009069466E
:1046D000BC48FCF7C4FA01220421BA48FCF723FBCA
:1046E00001221146B748FCF71EFB09200122802158
:1046F000C006FCF718FB092001224021C006FCF788
:1047000012FB01220221B048FCF70DFB01229103AC
:10471000AD48FCF708FB01222946AB48FCF703FB38
:1047200001220221A848FCF7FEFA092001222946AD
:10473000C006FCF7F8FA012209201146C006FCF772
:10474000F2FA012221469F48FCF7EDFA012280216E
:104750009C48FCF7E8FA012240219A48FCF7E3FA6A
:10476000012210219748FCF7DEFA01220821954822
:10477000FCF7D9FA012220219248FCF7D4FAFEBDB9
:104780001CB501214804FCF776FD01218804FCF7E3
:1047900072FD0121C804FCF76EFD01218805FCF7BC
:1047A0006AFD6846FCF793FA01206946087100200B
:1047B0008871487108200924E40600902046FCF71F
:1047C0004EFA8021009169462046FCF748FA1CBD4C
:1047D00070471FB501210220FCF75FFD10206A46DB
:1047E00010730A2050730120907303A8FCF7E2FABB
:1047F000764C2046FCF792FD6846FCF711FE00213E
:104800006A461181518032200190172010809172E8
:1048100020212046FDF7E5F969462046FCF7D4FD46
:10482000012211462046FDF741F901212046FCF7FF
:104830003CFE1FBD1CB501214804FCF71CFD2020D7
:104840000090022069460871002048710924C8714F
:10485000E4062046FCF703FA022205212046FCF775
:104860006AFA1CBD10B586B060206A46108001202F
:1048700050800020908090810821D18149011182CF
:1048800050820A204407029069462046FCF73DFE0C
:1048900008212046FCF786FF01212046FCF729FE6F
:1048A00006B010BD1FB501210846FCF7F6FCFFF766
:1048B000C1FFFFF7D7FF08206A4650730F2010731F
:1048C0000120907303A8FCF775FA0124A407204681
:1048D000FCF724FD00216A46118151802F200190B0
:1048E00017201080917269462046FCF76DFD01216A
:1048F0002046FCF7C1FD012211462046FDF7D6F8FF
:1049000001212046FCF7D1FD1FBD1CB50121480443
:10491000FCF7B1FCFF2001300090022069460871CD
:10492000002048710924C871E4062046FCF797F975
:10493000022208212046FCF7FEF91CBDF0B501213A
:1049400089B0C802FCF7A0FCFFF7DFFF012568462D
:1049500045700D2606708570FCF72CFA0321684619
:104960000183002444831920079008A8184F8470FD
:1049700006A93846FCF728FD602168468180C5807D
:10498000048104820821418249018182C48201A9F3
:1049900038460396FCF7B9FD08213846FCF702FFBC
:1049A00001213846FCF7A5FD012211463846FDF7E6
:1049B0007DF801213846FCF75FFD2021384609E0EB
:1049C00000400001000400480008004800040040C6
:1049D000002C0140FDF705F901213846FDF786F866
:1049E00001213846FCF761FD09B0F0BD1CB501217D
:1049F0004804FCF740FC042000900320694608713D
:104A00000020887148710120C8710920C006FCF798
:104A100026F91CBD70B501218CB00846FCF72BFCB3
:104A200009206946087000244C7001258D70684685
:104A3000FCF7C0F9394E3046FBF78EFD384801903F
:104A4000384802A931C180200690400007908000BC
:104A5000089020200990059400020A9001A90B9467
:104A60003046FBF7D3FD0220FBF72DFE0220FBF7BB
:104A700041FE012202213046FBF70FFE01213046A4
:104A8000FBF7EDFD0CB070BD30B5012187B04802D9
:104A9000FCF7FAFB0C206946087600244C760120CE
:104AA000887606A8FCF786F969460C710094049490
:104AB0000394059401201A4CC0020290403C204609
:104AC000FBF744FC01212046FBF7DBFC0322042119
:104AD0002046FBF7BDFC2046FBF7DDFC012120460C
:104AE000FBF74FFC104D20462946FBF712FD00282E
:104AF000F9D001212046FBF7F2FC02212046FBF70A
:104B0000F8FC2046FBF7E3FC07B030BD10B5FFF71B
:104B10006DFFFFF77FFFFFF7B7FF10BD08000240F2
:104B200040240140FC000020010000010022030994
:104B30008B422CD3030A8B4211D300239C464EE0B8
:104B400003460B433CD4002243088B4231D3030974
:104B50008B421CD3030A8B4201D394463FE0C30926
:104B60008B4201D3CB01C01A524183098B4201D33E
:104B70008B01C01A524143098B4201D34B01C01A29
:104B8000524103098B4201D30B01C01A5241C308A1
:104B90008B4201D3CB00C01A524183088B4201D310
:104BA0008B00C01A524143088B4201D34B00C01AFC
:104BB0005241411A00D201465241104670475DE011
:104BC000CA0F00D04942031000D340425340002294
:104BD0009C4603098B422DD3030A8B4212D3FC223D
:104BE000890112BA030A8B420CD3890192118B42BC
:104BF00008D3890192118B4204D389013AD09211D2
:104C000000E08909C3098B4201D3CB01C01A52418C
:104C100083098B4201D38B01C01A524143098B4255
:104C200001D34B01C01A524103098B4201D30B013E
:104C3000C01A5241C3088B4201D3CB00C01A524163
:104C400083088B4201D38B00C01A5241D9D243084A
:104C50008B4201D34B00C01A5241411A00D2014687
:104C6000634652415B10104601D34042002B00D5F1
:104C70004942704763465B1000D3404201B50020B3
:104C8000C046C04602BD70477047704710B5014628
:104C90009E240002CA15A307002A02D01843002A46
:104CA00004DBA21A002A0CDDD04010BD1206120E41
:104CB00001D140004008A21A03D4D040404200284D
:104CC000F3DDFF2248001206904201D9002010BDFA
:104CD000C817C043584010BD0102C21504D00123BB
:104CE000DB071943002A0ADB9E239A1A02D40846DE
:104CF000D0407047FF2241001206914201D90020A6
:104D00007047C017C04370471F22030C02D10F2207
:104D100000041CD0030E01D10002083A030F01D198
:104D20000001121F830F01D18000921E002801DBB9
:104D30004000521ED20551180212511819229040FB
:104D400004D3491C002801D149084900084670478E
:104D5000C10FC90700D04042012292071143D3E797
:104D600001218907D0E7000010B5FF231B0644008E
:104D70009C421DD84C009C421AD80346124A0B4351
:104D800007D4401A02D3EFF3008010BDEFF3008088
:104D900010BD081A06D2EFF3008001219043C90725
:104DA000084302E0EFF30080904380F3008810BDD9
:104DB0000D231B041A4204D01146002000F006F80F
:104DC00010BD00F01BF810BD00000090C80212D505
:104DD0004803400F002804D0C803C0430121884085
:104DE0007047EFF300800001000903210907084321
:104DF00080F30088704700207047000010B502481B
:104E000000F02BF810BD00000000C07F754600F0D8
:104E100053F8AE46050069465346C008C0008546B3
:104E200018B020B5FBF7B8F960BC00274908B646B2
:104E30000026C0C5C0C5C0C5C0C5C0C5C0C5C0C5A9
:104E4000C0C5403D49008D46704710B50446C04678
:104E5000C0462046FBF77FF910BD10B50C46110780
:104E6000090F092904D00A290AD008290CD104E025
:104E700011460820FFF7AAFF06E0510606D501E01B
:104E8000510601D50120C007214610BDD10607D526
:104E900001010909CC084907000E0006044309E096
:104EA000410F20024907000A0143200E00061D227F
:104EB000D14101430846E7E700487047C0010020A0
:104EC00001491820ABBEFEE7260002007047000033
:104ED00001230A00DB0502430DD4DA4203D49A42CF
:104EE00007D481427047D94214D4D84212D48142A7
:104EF000704789427047DA4203D59A42F9D5884211
:104F000070475B004A00DA4204D24200DA4201D222
:104F1000884270474840414010B5024A4840FFF778
:104F200023FF10BD09001604010002000400080060
:104F3000100020004000800000013F0030005B00B6
:104F4000790074006D006F0038007F007D007E00E6
:104F500067000F0073004F004E00400063006200C6
:104F600023006D004700000007005E004E00760041
:104F700006004200010002000400080010002000AA
:104F800040008000FF00000037000000AC4F000828
:104F9000000000200001000004010008AC500008DF
:104FA000000100202007000020010008006CDC0246
:104FB00000000000000000000102030406070809C9
:104FC00000000000010203040102030406070809AF
:104FD00000010101010101010000000000000000CA
:104FE0000000000000000000000000000A000000B7
:104FF0001F000A0000000000640001010000000022
:1050000000000000000000000000000000000000A0
:105010000000000000000000E8F7FF1F84000020EF
:105020000000000000000000000000000000000080
:1050300043191019000100010000000033000000B6
:10504000000000000000000000003200E803F4014E
:1050500000000000E8030000000000000000000065
:10506000000000000800000000000000E80300004D
:105070000000000000000000000000000000000030
:105080000000000000000000000000000000000020
:1050900000000000001000000010000000100000E0
:0C50A000001000000001010000000000F2
:04000005080000C12E
:00000001FF
